:04000000F7EF15F011
:1010000000010000000A00000064000000E8030086
:101010000010270000A086010040420F0080969833
:101020000000E1F50500CA9A3B00803FCDCC3DD7DA
:10103000233C12833AB7D138C62737388635C0D615
:1010400033CC2B32708930E7DB2EE53C1E42A20DFB
:1010500000803F00204100C842007A44401C4650B6
:10106000C34724744997184BBCBE4C6B6E4E031596
:101070005079AD60F34971766F6C7461676520706B
:10108000686F746F207265736973746F72203D208E
:101090002566200D0A000000420E4E6E000E4F6EB7
:1010A000FFD2250E6118D8B404D061507DEC16F043
:1010B000F7D2000E516E000E506E05D0FFD2518453
:1010C00013D0EED211D040C0F6FF41C0F7FF404A26
:1010D000412A0800F5CF61F06150000AD8B4EED281
:1010E000660AD8B4ECD7DCD2070E5114D8B4CAD2F1
:1010F000000E536E060E526E4EC0D9FF4FC0DAFF7F
:10110000DECF5EF0DECF5FF0DDCF60F0030E4E2667
:10111000000E4F2260AE11D05EC001F05FC002F041
:1011200060C003F033EC16F001C05EF002C05FF067
:1011300003C060F0030E501200D0000E596E000E76
:10114000586E5E505F106010D8B485D0820E456E28
:10115000FF0E466E5EC047F05FC048F060C049F0C9
:1011600061C04AF0100E05D0D8904A324932483258
:101170004732E82EF9D747504524586E000E4620D6
:10118000596E5806D8A0590658C00FF059C010F033
:10119000000E126E030E116E0CEC16F00FC058F01C
:1011A00010C059F058C007F059C008F0000E0A6E80
:1011B0000A0E096E43EC13F007C058F008C059F04E
:1011C00059AE04D05806D8A0590600D0585000088F
:1011D0005FEC0BF024C05AF025C05BF026C05CF039
:1011E0005AC015F05BC016F05CC017F05EC018F076
:1011F0005FC019F060C01AF060EC10F015C05AF032
:1012000016C05BF017C05CF05AC001F05BC002F082
:101210005CC003F0000E046E800E056E3F0E066E7D
:101220008EEC13F0D8B004D05806D8A0590613D0CD
:101230005AC001F05BC002F05CC003F0000E046E07
:10124000200E056E410E066E8EEC13F0D8A003D072
:10125000584A592A00D053BE06D053501CE10D0EF7
:10126000525CD8B018D05EC02EF05FC02FF060C0C6
:1012700030F052504FEC0DF024C031F025C032F068
:1012800026C033F071EC0EF02EC05EF02FC05FF080
:1012900030C060F000D059BE06D0595020E10A0E8F
:1012A000585CD8B01CD05E505F106010D8B46DD0C0
:1012B0005EC02BF05FC02CF060C02DF04FEC11F041
:1012C0002B502C102D102E10D8B459BE5ED0595072
:1012D00006E1020E585CD8B002D057D000D05AC0F8
:1012E00001F05BC002F05CC003F0700E046E890E6A
:1012F000056E400E066E8EEC13F0D8B002D0F70EDD
:1013000001D0F80E5826FF0E592200D058505FEC3D
:101310000BF024C05AF025C05BF026C05CF017D05B
:101320005EC001F05FC002F060C003F05AC004F07C
:101330005BC005F05CC006F0DBEC0FF001C054F0C0
:1013400002C055F003C056F004C057F017D05EC07D
:1013500001F05FC002F060C003F05AC004F05BC04F
:1013600005F05CC006F053EC0FF001C054F002C071
:1013700055F003C056F004C057F000D0000E5E6E6A
:10138000000E5F6E000E606E33D05EC02BF05FC04B
:101390002CF060C02DF04FEC11F02BC054F02CC09D
:1013A00055F02DC056F02EC057F05EC03AF05FC029
:1013B0003BF060C03CF054C009F055C00AF056C084
:1013C0000BF057C00CF01BEC15F009C03DF00AC043
:1013D0003EF00BC03FF04BEC15F03AC05EF03BC066
:1013E0005FF03CC060F0000E596E000E586E00D0E9
:1013F000010E616E0A0E6118D8B41CD001D01AD04B
:101400006150040D010EF324F66E100EF420F76EF9
:101410000900F550545C0900F55055580900F55085
:1014200056580900F5505758D8A004D001D002D022
:10143000612AE0D7030E5014456E000E5114466E1B
:1014400045504610D8B449D02D0E7DEC16F045D04D
:1014500054C001F055C002F056C003F057C004F06C
:101460006150040D010EF324F66E100EF420F76E99
:101470000900F5CF05F00900F5CF06F00900F5CF1A
:1014800007F00A00F5CF08F024EC14F001C05AF080
:1014900002C05BF003C05CF004C05DF05AC001F014
:1014A0005BC002F05CC003F05DC004F00A0E056E84
:1014B000000E066E000E076E000E086EABEC14F008
:1014C00001C05AF002C05BF003C05CF004C05DF0E4
:1014D0005A50300F7DEC16F000D061066128D8B468
:1014E00009D0B6D707D0300E7DEC16F05806D8A03C
:1014F000590600D059BE05D05950F5E15804D8B06E
:10150000F2D753BE09D0535004E1090E525CD8A063
:1015100003D0080E616E03D052C061F000D061505C
:10152000525E000E61BEFF0E535A6150D8B404D013
:101530002E0E7DEC16F000D061505FEC0BF024C055
:101540004BF025C04CF026C04DF05EC018F05FC0D7
:1015500019F060C01AF04BC015F04CC016F04DC029
:1015600017F060EC10F015C02BF016C02CF017C06F
:101570002DF04FEC11F02BC054F02CC055F02DC0C5
:1015800056F02EC057F06BD054C001F055C002F099
:1015900056C003F057C004F06150040D010EF3244F
:1015A000F66E100EF420F76E0900F5CF05F0090075
:1015B000F5CF06F00900F5CF07F00A00F5CF08F0E7
:1015C00024EC14F001C05AF002C05BF003C05CF0E0
:1015D00004C05DF05AC001F05BC002F05CC003F0D3
:1015E0005DC004F00A0E056E000E066E000E076E5A
:1015F000000E086EABEC14F001C05AF002C05BF0B4
:1016000003C05CF004C05DF05A50300F7DEC16F062
:1016100054C001F055C002F056C003F057C004F0AA
:101620006150040D010EF324F66E100EF420F76ED7
:101630000900F5CF05F00900F5CF06F00900F5CF58
:1016400007F00A00F5CF08F0ABEC14F001C054F03D
:1016500002C055F003C056F004C057F000D0610638
:101660006128D8B409D090D707D0300E7DEC16F0A1
:101670005206D8A0530600D052505310D8B410D000
:10168000F4D70ED0030E5014456E000E5114466E62
:1016900045504610D8B404D02D0E7DEC16F000D085
:1016A00040C0F6FF41C0F7FF404A412A0800F5CF8D
:1016B00061F06150D8B402D0F4D400D012002A6E88
:1016C0002AAEEFD02A6C2A50800A120FD8A08DD0F3
:1016D000000E126E030E116E000E0A6E0A0E096ED7
:1016E000000E046E640E036E2A50016E026A01BE83
:1016F00002066AEC14F001C007F002C008F043ECE7
:1017000013F0090E07240F6E000E0820106E0CEC6B
:1017100016F0290E0F24F66E100E1020F76E090039
:10172000F5CF18F00900F5CF19F00A00F5CF1AF03F
:10173000000E0A6E640E096E2A50076E086A07BE14
:10174000080643EC13F0120E07240F6E000E08205B
:10175000106E000E126E030E116E0CEC16F0290EB8
:101760000F24F66E100E1020F76E0900F5CF15F05D
:101770000900F5CF16F00A00F5CF17F060EC10F075
:1017800015C027F016C028F017C029F027C015F0A3
:1017900028C016F029C017F0000E126E030E116E4D
:1017A000000E046E0A0E036E2A50016E026A01BE1C
:1017B00002066AEC14F001C00FF002C010F00CEC4D
:1017C00016F0290E0F24F66E100E1020F76E090089
:1017D000F5CF18F00900F5CF19F00A00F5CF1AF08F
:1017E00060EC10F041D15AD154D02A50800A750FC4
:1017F000D8A04FD0000E0A6E0A0E096E2A50076E4E
:10180000086A07BE080643EC13F0090E07240F6EA2
:10181000000E0820106E000E126E030E116E0CECFE
:1018200016F0290E0F24F66E100E1020F76E090028
:10183000F5CF15F00900F5CF16F00A00F5CF17F037
:10184000000E126E030E116E000E046E0A0E036E71
:101850002A50016E026A01BE02066AEC14F001C051
:101860000FF002C010F00CEC16F0290E0F24F66EEB
:10187000100E1020F76E0900F5CF18F00900F5CF13
:1018800019F00A00F5CF1AF060EC10F0EDD006D197
:1018900000D02A50030D290EF324F66E100EF2D05C
:1018A000FDD02A50800A120FD8A08DD0000E126EE3
:1018B000030E116E000E0A6E0A0E096E000E046E03
:1018C000640E036E2A50016E026A01BE02066AECC3
:1018D00014F001C007F002C008F043EC13F0090E49
:1018E00007240F6E000E0820106E0CEC16F0500E40
:1018F0000F24F66E100E1020F76E0900F5CF18F0C9
:101900000900F5CF19F00A00F5CF1AF0000E0A6EA3
:10191000640E096E2A50076E086A07BE080643EC7B
:1019200013F0120E07240F6E000E0820106E000E2A
:10193000126E030E116E0CEC16F0500E0F24F66EA4
:10194000100E1020F76E0900F5CF15F00900F5CF45
:1019500016F00A00F5CF17F060EC10F015C027F074
:1019600016C028F017C029F027C015F028C016F0BF
:1019700029C017F0000E126E030E116E000E046ED9
:101980000A0E036E2A50016E026A01BE02066AEC5C
:1019900014F001C00FF002C010F00CEC16F0500E65
:1019A0000F24F66E100E1020F76E0900F5CF18F018
:1019B0000900F5CF19F00A00F5CF1AF060EC10F02D
:1019C00053D06CD059D02A50800A750FD8A054D06B
:1019D000000E0A6E0A0E096E2A50076E086A07BECC
:1019E000080643EC13F0090E07240F6E000E0820C2
:1019F000106E000E126E030E116E0CEC16F0500EEF
:101A00000F24F66E100E1020F76E0900F5CF15F0BA
:101A10000900F5CF16F00A00F5CF17F0000E126E90
:101A2000030E116E000E046E0A0E036E2A50016E34
:101A3000026A01BE02066AEC14F001C00FF002C097
:101A400010F00CEC16F0500E0F24F66E100E102055
:101A5000F76E0900F5CF18F00900F5CF19F00A006C
:101A6000F5CF1AF060EC10F015C024F016C025F088
:101A700017C026F013D000D02A50030D500EF324C7
:101A8000F66E100EF420F76E0900F5CF24F0090071
:101A9000F5CF25F00A00F5CF26F000D012002D6E0C
:101AA0006D0E2D649BD0000E126E030E116E000E93
:101AB0000A6E0A0E096E000E046E640E036E2DC0CF
:101AC00001F0026A6AEC14F001C007F002C008F0ED
:101AD00043EC13F0090E07240F6E000E0820106E61
:101AE0000CEC16F0290E0F24F66E100E1020F76E77
:101AF0000900F5CF18F00900F5CF19F00A00F5CF6D
:101B00001AF0000E0A6E640E096E2DC007F0086A06
:101B100043EC13F0120E07240F6E000E0820106E17
:101B2000000E126E030E116E0CEC16F0290E0F242F
:101B3000F66E100E1020F76E0900F5CF15F00900B3
:101B4000F5CF16F00A00F5CF17F060EC10F015C0D5
:101B50002AF016C02BF017C02CF0000E126E030EE8
:101B6000116E000E046E0A0E036E2DC001F0026AA3
:101B70006AEC14F001C00FF002C010F00CEC16F08B
:101B8000290E0F24F66E100E1020F76E0900F5CF07
:101B900018F00900F5CF19F00A00F5CF1AF02AC0A5
:101BA00015F02BC016F02CC017F060EC10F015C02B
:101BB00027F016C028F017C029F027C015F028C05C
:101BC00016F029C017F0000E186E000E196E3F0EA9
:101BD0001A6E60EC10F07DD083D062D00A0E2D64B6
:101BE0005FD0000E126E030E116E000E046E0A0E10
:101BF000036E2DC001F0026A6AEC14F001C00FF010
:101C000002C010F00CEC16F0290E0F24F66E100E28
:101C10001020F76E0900F5CF18F00900F5CF19F084
:101C20000A00F5CF1AF0000E0A6E0A0E096E2DC0DA
:101C300007F0086A43EC13F0090E07240F6E000E3C
:101C40000820106E000E126E030E116E0CEC16F0D2
:101C5000290E0F24F66E100E1020F76E0900F5CF36
:101C600015F00900F5CF16F00A00F5CF17F060EC7B
:101C700010F015C02AF016C02BF017C02CF02AC0A7
:101C800015F02BC016F02CC017F0000E186E000EC9
:101C9000196E3F0E1A6E60EC10F01BD021D000D0F0
:101CA0002D50030D290EF324F66E100EF420F76E5E
:101CB0000900F5CF15F00900F5CF16F00A00F5CFB1
:101CC00017F0000E186E000E196E3F0E1A6E60ECC3
:101CD00010F015C024F016C025F017C026F000D073
:101CE000120030C034F0356A366A2F34343601E3DE
:101CF00035803450396E33C034F0356A366A323448
:101D0000343601E335803450386E3950D8B40BD0B6
:101D10003850395CD8B00ED0395000083824346EB1
:101D2000180E346407D031C02EF032C02FF033C00B
:101D300030F0B8D03850D8B40BD03950385CD8B067
:101D40000ED0385000083924346E180E346407D091
:101D50002EC02EF02FC02FF030C030F0A3D0060ED2
:101D6000376E30AE02D0378E00D033BE378C2F8E18
:101D7000FF0E2E16FF0E2F16000E3016328EFF0E9F
:101D80003116FF0E3216000E33163850395CD8B0BB
:101D90001ED0D8903136323633363806395038189E
:101DA000D8B40FD0370637C034F0070E3416D8B485
:101DB00008D0EFD706D0D89030322F322E32392AC1
:101DC00000D038503918D8B424D0F5D722D03950A3
:101DD000385CD8B01ED0D8902E362F363036390623
:101DE00039503818D8B40FD0370637C034F0070E42
:101DF0003416D8B408D0EFD706D0D8903332323268
:101E00003132382A00D038503918D8B402D0F5D73A
:101E100000D037AE0CD0FF0E2E1AFF0E2F1AFF0E79
:101E2000301A010E2E26000E2F22000E302237AC63
:101E30000DD0FF0E311AFF0E321AFF0E331A010EAB
:101E40003126000E3222000E332200D0000E376EF3
:101E50002E5031262F5032223050332233AE0FD045
:101E6000FF0E311AFF0E321AFF0E331A010E312601
:101E7000000E3222000E3322010E376E00D031C028
:101E800001F032C002F033C003F039C004F037C0B3
:101E900005F033EC12F001C02EF002C02FF003C0A9
:101EA00030F000D0120003C007F0086A096A02345B
:101EB000073601E3088007500F6E0F50D8A402D0F8
:101EC0005DD078D006C007F0086A096A0534073685
:101ED00001E3088007500E6E0E50D8A402D04ED0F9
:101EE00069D0028EFF0E0116FF0E0216000E0316B9
:101EF000058EFF0E0416FF0E0516000E0616000EC8
:101F00000A6E000E0B6E000E0C6E000E0D6E7F0E34
:101F10000F5E0E50980F0F5E180E0E6ED8900A3698
:101F20000B360C360D360450015C05500258065035
:101F30000358D8A007D00450015E0550025A06503D
:101F4000035A0A80D8900136023603360E2EE6D7A1
:101F500000D00FAE10D00F50800A970FD8B003D02A
:101F60000DD028D000D0D8900D320C320B320A326E
:101F70000F3EF9D717D0170E0F6411D0000E016E67
:101F8000000E026E000E036E000E046E13D007D01A
:101F9000D8900A360B360C360D360F0600D00F508F
:101FA000D8A4F6D70AC001F00BC002F00CC003F0B1
:101FB0000DC004F01200033404340C6E0C50D8A48D
:101FC00002D061D07CD0063407340B6E0B50D8A4FD
:101FD00002D059D074D0038EFF0E0116FF0E0216E8
:101FE000FF0E0316000E0416068EFF0E0416FF0EDB
:101FF0000516FF0E0616000E0716000E076E000EE1
:10200000086E000E096E000E0A6E7F0E0C5E0B50FD
:10201000A00F0C5E200E0B6E00D0D890073608364D
:1020200009360A360450015C055002580650035820
:1020300007500458D8A00AD00450015E0550025A37
:102040000650035A0750045A078000D0D890013632
:102050000236033604360B2EE0D700D00CAE10D07B
:102060000C50800A9F0FD8B003D00DD028D000D0DC
:10207000D8900A320932083207320C3EF9D717D00D
:102080001F0E0C6411D0000E016E000E026E000EC9
:10209000036E000E046E13D007D0D89007360836B2
:1020A00009360A360C0600D00C50D8A4F6D707C063
:1020B00001F008C002F009C003F00AC004F01200E9
:1020C00017C01BF01C6A1D6A16341B3601E31C8006
:1020D0001B501E6E1E50D8A402D00ED06CD01AC059
:1020E0001BF01C6A1D6A19341B3601E31C801B504F
:1020F000236E2350D8A407D0000E156E000E166E66
:10210000000E176E58D023507B0F1E2617C023F0E9
:102110001A50231A800E2316168E198EFF0E1816CB
:10212000FF0E1916000E1A16000E1F6E000E206EFE
:10213000000E216E070E226E00D015A007D0185099
:102140001F26195020221A50212200D0D890173271
:1021500016321532D890183619361A36222EEDD787
:1021600000D0090E226E00D015A007D018501F26EF
:10217000195020221A50212200D0D890173216323E
:102180001532D890213220321F32222EEDD700D0C6
:102190001FC001F020C002F021C003F01EC004F0F7
:1021A00023C005F033EC12F001C015F002C016F0A8
:1021B00003C017F000D012001F0E926E000E936E37
:1021C000000E946E000E956E000E966E6AEC16F080
:1021D00084EC16F000D0000E92EC16F020EC16F015
:1021E00001C065F002C066F065C00FF066C010F077
:1021F000000E126E050E116E0CEC16F00FC015F0ED
:1022000010C016F06DEC15F015C019F016C01AF0DC
:1022100017C01BF0200E1C6E800E1D6E440E1E6E2D
:10222000C2EC11F019C067F01AC068F01BC069F069
:10223000770E406E100E416E67C042F068C043F0EA
:1022400069C044F04CEC08F0000E046E200E056EE0
:10225000400E066E67C001F068C002F069C003F06E
:102260008EEC13F0D8B002D0010E01D0000E156E26
:10227000166A6DEC15F015C062F016C063F017C059
:1022800064F0625063106410D8B403D096EC12F07E
:1022900002D0F5EC12F084509ED700EF00F02DC074
:1022A0002FF0306A316A2C342F3601E330802F5002
:1022B000396E3950D8A402D039D063D0170E2F6EA2
:1022C0002BC030F02CC031F02DC032F02F28336EEF
:1022D00004D0D890323231323032332EFAD73050E7
:1022E000346E2C8EFF0E2B16FF0E2C16000E2D16A4
:1022F0002B50356E2C50366E2D50376E386A8E0E40
:10230000395E39AE10D03950800A8F0FD8B003D063
:102310000DD037D000D0D8903832373236323532FF
:10232000393EF9D719D0170E396411D0000E2B6E33
:10233000000E2C6E000E2D6E000E2E6E22D007D0D9
:10234000D8903536363637363836390600D03950DB
:10235000D8B402D0F5D700D03450D8B409D0381E44
:10236000371E361E356C000E36223722382200D03A
:1023700035C02BF036C02CF037C02DF038C02EF011
:1023800000D012001BC01FF0206A216A1A341F36C9
:1023900001E320801F50266E2650D8A402D00ED014
:1023A00061D01EC01FF0206A216A1D341F3601E370
:1023B00020801F50276E2750D8A407D0000E196E1A
:1023C000000E1A6E000E1B6E4DD0000E236E000E16
:1023D000246E000E256E2750890F265E1BC027F045
:1023E0001E50271A800E27161A8EFF0E1916FF0E82
:1023F0001A16000E1B161D8EFF0E1C16FF0E1D1644
:10240000000E1E16180E226E00D0D89023362436E9
:1024100025361C50195C1D501A581E501B58D8A048
:1024200007D01C50195E1D501A5A1E501B5A23808B
:10243000D89019361A361B36222EE7D700D023C083
:1024400001F024C002F025C003F026C004F027C02C
:1024500005F033EC12F001C019F002C01AF003C00D
:102460001BF000D012000450D8B405D00150021067
:102470000310D8A40ED0000E016E000E026E000EE6
:10248000036E53D006D0042AD890033202320132B0
:1024900000D0000E0114066E000E0214076EFE0E30
:1024A0000314086E065007100810D8B40ED0EBD7EE
:1024B0000CD0042A010E0126000E0222000E032277
:1024C000D89003320232013200D0000E0114066EA1
:1024D000000E0214076EFF0E0314086E065007105C
:1024E0000810D8B408D0E5D706D00406D890013635
:1024F0000236033600D002BE04D0020E0460F5D7C7
:1025000000D004B002D0029E00D0D8900432045013
:1025100003120550D8B402D0038E00D001C001F0E0
:1025200002C002F003C003F000D012008484010E48
:10253000A6EC15F0010E8BEC15F0010EC1EC15F0B8
:10254000020EDCEC15F080A606D0080E016E000E1F
:10255000D9EC13F000D0060E45EC16F0030EDCECBF
:1025600015F0020E45EC16F0010EDCEC15F080A221
:102570000FD0020E8BEC15F0070E45EC16F0030E93
:102580008BEC15F0020E45EC16F0010E8BEC15F0FD
:10259000020EA6EC15F080A406D0070E016E010E07
:1025A000D9EC13F000D0020EA6EC15F0050E45ECA8
:1025B00016F0030EA6EC15F0020E45EC16F0010E17
:1025C000A6EC15F080A810D0020EC1EC15F0060E96
:1025D00045EC16F0030EC1EC15F0020E45EC16F0BA
:1025E000010EC1EC15F000D012008168836884945C
:1025F000010EA6EC15F0010E8BEC15F0010EC1ECEE
:1026000015F0020EDCEC15F0060E45EC16F0030E8C
:10261000DCEC15F0020E45EC16F0010EDCEC15F0CA
:1026200080A20FD0020E8BEC15F0050E45EC16F0D3
:10263000030E8BEC15F0020E45EC16F0010E8BEC40
:1026400015F0020EA6EC15F0070E45EC16F0030E81
:10265000A6EC15F0020E45EC16F0010EA6EC15F0F6
:1026600080A810D0020EC1EC15F0050E45EC16F056
:10267000030EC1EC15F0020E45EC16F0010EC1EC94
:1026800015F000D01200000E0C6E0AAE07D0096CD7
:102690000A1ED8B00A2A010E0C6E00D008AE07D070
:1026A000076C081ED8B0082A010E0C1A00D0000EC4
:1026B0000E6E000E0D6E09500A10D8B421D0010E16
:1026C0000B6E05D0D89009360A360B2A00D00ABE08
:1026D00002D0F8D700D0D8900D360E360950075CDE
:1026E0000A500858D8A006D00950075E0A50085A68
:1026F0000D8000D0D8900A3209320B2EECD700D0D2
:102700000C50D8B405D00D6C0E1ED8B00E2A00D0D7
:102710000DC007F00EC008F000D0120003AE17D0B5
:1027200001C007F002C008F003C009F0071E081E30
:10273000091E072A000E08220922000E0724016E36
:10274000000E0820026E800E0920036E00D006AE37
:1027500017D004C007F005C008F006C009F0071E36
:10276000081E091E072A000E08220922000E07244F
:10277000046E000E0820056E800E0920066E00D043
:10278000000E011A000E021A800E031A000E041A1F
:10279000000E051A800E061A0450015C05500258FE
:1027A00006500358D8B002D0D89002D0D88000D0BC
:1027B0001200026E816883680250D8A422D00104FE
:1027C000036E836803C004F0056A05BE16D0055089
:1027D00005E10404D8A011D001D00FD06A0E042462
:1027E000D96E000E0520DA6EDF50816E5FEC16F0B8
:1027F0000406D8A00506E9D7F1D781685FEC16F08A
:1028000022D00104036E816803C004F0056A05BE8E
:1028100016D0055005E10404D8A011D001D00FD086
:102820006A0E0424D96E000E0520DA6EDF50836E26
:102830005FEC16F00406D8A00506E9D7F1D7836847
:102840005FEC16F000D01200000E096E000E0A6E4A
:10285000000E0B6E000E0C6E0550061007100810CF
:10286000D8B42FD0010E0D6E07D0D890053606369D
:10287000073608360D2A00D008BE02D0F6D700D0A1
:10288000D89009360A360B360C360550015C0650D6
:1028900002580750035808500458D8A00AD00550D1
:1028A000015E0650025A0750035A0850045A098024
:1028B00000D0D89008320732063205320D2EE0D70C
:1028C00000D009C001F00AC002F00BC003F00CC038
:1028D00004F01200000E066E02AE07D0016C021E5C
:1028E000D8B0022A010E066E00D004AE05D0036CEB
:1028F000041ED8B0042A00D003500410D8B41DD050
:10290000010E056E05D0D89003360436052A00D096
:1029100004BE02D0F8D700D00350015C0450025826
:10292000D8A005D00350015E0450025A00D0D890C0
:1029300004320332052EF0D700D00650D8B405D0AB
:10294000016C021ED8B0022A00D001C001F002C002
:1029500002F000D012000550061007100810D8B47D
:1029600029D0010E096E07D0D890053606360736F5
:102970000836092A00D008BE02D0F6D700D005508C
:10298000015C065002580750035808500458D8A05C
:1029900009D00550015E0650025A0750035A0850EC
:1029A000045A00D0D8900832073206320532092E78
:1029B000E6D700D001C001F002C002F003C003F06E
:1029C00004C004F01200036E000EAC6E000EAB6E7D
:1029D00003A002D0AC8800D003A203D0AC8CAB8C97
:1029E00000D003A402D0AC8E00D003A602D0AB88E6
:1029F00002D0AB8A00D003B8AC849E9803AA02D060
:102A0000AB8600D003AC02D09D8A01D09D9A9E9ADD
:102A100003AE02D09D8801D09D9801C0AFFF025047
:102A2000B06EAC8AAB8E949C948EACB8ACBE02D027
:102A3000948C00D012008E0E116E07D0D8900C32FC
:102A40000B320A320932112A00D0000E09140D6E21
:102A5000000E0A140E6E000E0B140F6EFF0E0C14F7
:102A6000106E0D500E100F101010D8A4E7D709C02B
:102A700001F00AC002F00BC003F011C004F0000E18
:102A8000056E33EC12F001C009F002C00AF003C079
:102A90000BF000D012003D503E103F10D8B407D0CC
:102AA000000E3D1A000E3E1A800E3F1A00D03AC0AA
:102AB0002EF03BC02FF03CC030F03DC031F03EC0A6
:102AC00032F03FC033F071EC0EF02EC03AF02FC060
:102AD0003BF030C03CF000D01200000E186E16AE75
:102AE00007D0156C161ED8B0162A010E186E00D02D
:102AF00015C001F016C002F0036A8E0E046E18C0F5
:102B000005F033EC12F001C015F002C016F003C05E
:102B100017F000D01200016E0AD0849001D084809A
:102B2000849213D0849001D0848084820ED001508E
:102B3000000AD8B4F2D7010AD8B4F1D7030AD8B43E
:102B4000F1D7010AD8B4F0D700D01200016E0AD034
:102B5000829801D08288829A13D0829801D082888C
:102B6000828A0ED00150000AD8B4F2D7010AD8B434
:102B7000F1D7030AD8B4F1D7010AD8B4F0D700D0FE
:102B80001200016E0AD0829401D08284829613D002
:102B9000829401D0828482860ED00150000AD8B47B
:102BA000F2D7010AD8B4F1D7030AD8B4F1D7010A91
:102BB000D8B4F0D700D01200016E0AD0809A01D0AC
:102BC000808A829013D0809A01D0808A82800ED031
:102BD0000150000AD8B4F2D7010AD8B4F1D7030AD9
:102BE000D8B4F1D7010AD8B4F0D700D01200300E13
:102BF000F66E2D0EF76E000EF86E00EE6AF010EE17
:102C00000AF00900F5CFEEFFE550E150FAE1000EC1
:102C1000F86E0001DCEF10F00F501102F3CF13F04B
:102C2000F4CF14F00F501202F3501426105011027A
:102C3000F350142613C00FF014C010F000D012008F
:102C4000C28200D0C2B2FED7C450046E036AC35021
:102C50000324056E000E0420066E05C001F006C0B8
:102C600002F000D01200015002100310D8B406D0B8
:102C7000000E011A000E021A800E031A01C001F0A4
:102C800002C002F003C003F01200016E000E026EDB
:102C900004D08BEC16F0022A00D00150025CD8A0C0
:102CA000F8D71200030ED56E010ED66E0A0ED76E3F
:102CB000F294D58E00D0F2A4FED7D59E1200838E5A
:102CC00074EC16F052EC16F0839E9DEC16F052EC6C
:102CD00016F01200000E026E190E016E3C0EE3ECAF
:102CE00014F0700ED36E1200F90ECB6E050ECA6E84
:102CF0004A0EBB6E3C0EBA6E1200016E00D0ACA242
:102D0000FED701C0ADFF1200010EC26E0E0EC16EE5
:102D1000A90EC06E1200838E52EC16F0839E52EC08
:102D200016F01200016E0150040DF328C26E12005D
:102D300040792430191202780010000EBA6E829287
:022D400012007F
:020000040020DA
:08000000FFFFFFFFFFFFFFFF00
:020000040030CA
:0E000000FF08191EFF8381FF0FC00FE00F40A5
:00000001FF
