:020000040000FA
:100000000F0EC16EFF0E926E936E000E946E956E83
:10001000070E966E84B40FEF00F014EF00F084B278
:1000200019EF00F01BEF00F084B21DEF00F022EF9B
:1000300000F04AEF00F043EF00F084B03CEF00F036
:1000400035EF00F084B02EEF00F027EF00F083943E
:100050008392839051EC00F00AEF00F08394839236
:1000600083805DEC00F00AEF00F08394838283903C
:100070006BEC00F00AEF00F083948382838079ECCC
:1000800000F00AEF00F083848392839087EC00F005
:100090000AEF00F083848382839095EC00F00AEFEE
:1000A00000F080500F0B206E201C0F0B226E22C020
:1000B00082FF829A01E1828A120080500F0B206E2B
:1000C00081500F0B216E2024226E22C082FF829A63
:1000D00001E1828A120080500F0B206E81500F0BBD
:1000E000216E2010226E22C082FF829A01E1828A54
:1000F000120080500F0B206E81500F0B216E2014C8
:10010000226E22C082FF829A01E1828A1200805010
:100110000F0B206E81500F0B216E2018226E22C013
:1001200082FF829A01E1828A120080500F0B206EBA
:10013000090E2065A2EF00F09EEF00F0060E2024CD
:10014000A3EF00F02050226E22C082FF829A01E1CC
:04015000828A12008D
:020154000000A9
:020000040030CA
:0100010008F6
:0100020019E4
:010003001EDE
:010006008178
:00000001FF
