:020000040000FA
:100000000F0EC16E000E946E956E070E406E050EBB
:10001000416E060E426E030E436E020E446E000EDB
:10002000456E040E466E010E476EC00E506EE00E19
:10003000516E200E526E600E536E800E546E000E86
:10004000556E400E566EA00E576E00EE40F010EE4C
:1000500050F0080E296EEF50826EE750836E37EC39
:1000600000F0E92AE12A2906F6E125EF00F0FF0E6B
:10007000216E0000FF0E206E00002006FDE121062B
:04008000F8E1120091
:0200840000007A
:020000040030CA
:0100010008F6
:0100020019E4
:010003001EDE
:010006008178
:00000001FF
