:04000000ACEF7FF0F2
:10FF24000705060302000401060701030400020595
:10FF3400000E026E000E016E02BE08D0680E015C57
:10FF4400420E0258D8B005D001D003D0014A022A8B
:10FF5400F3D71200240EF66EFF0EF76E000EF86E45
:10FF640000EE16F010EE10F00900F5CFEEFFE550AC
:10FF7400E150FAE10001BFEF7FF0000E946E000E35
:10FF8400956E0F0EC16E20EE16F010EE05F0070E02
:10FF9400DBCFE3FFE806FCE220EE1EF010EE0DF0EE
:10FFA400070EDBCFE3FFE806FCE2000E156E070E3A
:10FFB400156402D000EF00F01550010D050EF32476
:10FFC400D96E000EF420DA6EDF50826E1550010DEA
:10FFD4000D0EF324D96E000EF420DA6EDF50036E9A
:10FFE400050E046ED8900336042EFCD70350836E9E
:0CFFF4009AEC7FF0152ADBD700EF00F03C
:020000040020DA
:08000000FFFFFFFFFFFFFFFF00
:020000040030CA
:0E000000FF08191EFF8381FF0FC00FE00F40A5
:00000001FF
