:04000000CDEF7FF0D1
:10FF9A000001F1EF7FF0838ED7EC7FF0839ED7ECE0
:10FFAA007FF01200030ED56E010ED66E0A0ED76EC2
:10FFBA00F294D58E00D0F2A4FED7D59E1200016E1F
:10FFCA00000E026E04D0D0EC7FF0022A00D001505D
:10FFDA00025CD8A0F8D712001F0E926E000E936E24
:10FFEA00000E946E000E956E000E966E050EE4ECF1
:06FFFA007FF000EF00F0B3
:020000040020DA
:08000000FFFFFFFFFFFFFFFF00
:020000040030CA
:0E000000FF08191EFF8381FF0FC00FE00F40A5
:00000001FF
