:0400000095EF7FF009
:10FF2A000001B6EF7FF0838EA9EC7FF0839EA9ECE7
:10FF3A007FF01200000E026E190E016E3C0EC8EC24
:10FF4A007FF0700ED36E1200030ED56E010ED66EC0
:10FF5A000A0ED76EF294D58E00D0F2A4FED7D59EA3
:10FF6A0012001F0E926E000E936E000E946E000E1B
:10FF7A00956E000E966E9FEC7FF000D098EC7FF0A5
:10FF8A00FDD700EF00F0036E000EAC6E000EAB6EF4
:10FF9A0003A002D0AC8800D003A203D0AC8CAB8CF7
:10FFAA0000D003A402D0AC8E00D003A602D0AB8846
:10FFBA0002D0AB8A00D003B8AC849E9803AA02D0C0
:10FFCA00AB8600D003AC02D09D8A01D09D9A9E9A3E
:10FFDA0003AE02D09D8801D09D9801C0AFFF0250A8
:10FFEA00B06EAC8AAB8E949C948EACB8ACBE02D088
:06FFFA00948C00D01200FF
:020000040020DA
:08000000FFFFFFFFFFFFFFFF00
:020000040030CA
:0E000000FF08191EFF8381FF0FC00FE00F40A5
:00000001FF
