:040000000CEF00F011
:10000800FACF03F0FBCF04F0E9CF05F0E7ED07F0F6
:1000180067EF07F01F0E236E000E246EF5D0250E35
:100028002918D8B404D0295082EC0AF0EDD0000E7B
:10003800266E06D0F7D01BD0268E19D0E5D017D063
:100048001DC0F6FF1EC0F7FF1D4A1E2A0800F5CF87
:1000580029F02950000AD8B4E5D0640AD8B407D0EA
:100068000D0AD8B404D0110AD8B4E6D7CDD026BE2C
:1000780015D023C0D9FF24C0DAFFDECF27F0DDCFAB
:1000880028F0020E2326000E242228AE4ED0030E9E
:100098002612276C281ED8B0282A47D023C0D9FF9B
:1000A80024C0DAFFDECF27F0DDCF28F0020E2326AA
:1000B800000E24223AD0010E296E050E2918D8B454
:1000C8003DD001D03BD02950020DAA0EF324F66E84
:1000D800FF0EF420F76E0900F550275C0900F55073
:1000E8002858D8A02BD001D029D0292AE6D726D045
:1000F800010E296E040E2918D8B420D001D01ED0C4
:100108002950020DB40EF324F66EFF0EF420F76E9C
:100118000900F550275C0900F5502858D8A00ED0E2
:1001280001D00CD0292AE6D709D02650800B000A26
:10013800D8B4C1D7800AD8B4DBD700D026C021F004
:10014800030E2116D8B404D02D0E82EC0AF000D08C
:1001580029C025F053D045D02550020DAA0EF3240E
:10016800F66EFF0EF420F76E0900F5CF13F00A00C3
:10017800F5CF14F027C011F028C012F05DEC08F09C
:1001880011C018F012C019F0000E1B6E0A0E1A6E7C
:1001980032EC09F01850300F296E2CD027C011F01E
:1001A80028C012F02550020DB40EF324F66EFF0E8F
:1001B800F420F76E0900F5CF13F00A00F5CF14F01C
:1001C8005DEC08F011500F0B226E2250010DE50E68
:1001D800F324F66EFF0EF420F76E0800F5CF29F031
:1001E80009D02650800B000AD8B4B6D7800AD8B4F4
:1001F800D5D700D0295082EC0AF000D02506252852
:10020800D8B402D0EED700D01DC0F6FF1EC0F7FF4D
:100218001D4A1E2A0800F5CF29F02950D8B402D06B
:10022800FED600D0120056EC0AF0700ED36EF19E86
:10023800010E936E000E946E000E956E0F0EC16E39
:10024800000E846E000E966E000E926EC9EC06F0DB
:1002580040EC0AF0000E5E6E000E5F6E000E606EDF
:10026800000E616E00D062046310D8A4FCD7000EA3
:10027800636E000E626E9CEC0AF0D20E1D6EFF0ECD
:100288001E6E6AC01FF0206A0EEC00F03D68000E7A
:100298003C6E140E3C6401D011D03C50010D3E0E52
:1002A800F324D96E000EF420DA6E6A50DE18D8A452
:1002B80003D03CC03DF000D03C2AEBD73D28D8B451
:1002C800D2D7BC0E1D6EFF0E1E6E3DC01FF0206AF9
:1002D8000EEC00F0000E0001F46F3C0EF36F000E00
:1002E8000001F66F500EF56F000E0001F86F140E46
:1002F800F76F3D50020D000EF324D96E010EF42065
:10030800DA6EDECFF9F0DDCFFAF08BEC08F0000EF4
:100318001D6E3C0E1C6E000E1F6E500E1E6E000EE3
:10032800216E140E206EFF0E236E2268F3EC01F08E
:100338004D0E0001F36F3D50040D2A0EF324000109
:10034800F46F010EF4200001F56FFF0E0001F76F46
:10035800F669000E0001F96F000EF86F010E00013A
:10036800FA6F340ECEEC04F03D50010D950EF324D7
:10037800D96E000EF420DA6EDF503B6E3D50010D51
:10038800800EF324D96E000EF420DA6EDF503B1095
:10039800806E3D50010DAA0EF324D96E000EF42094
:1003A800DA6EDF50816E3D50010DBF0EF324D96E19
:1003B800000EF420DA6EDF503B6E3B463B4682501F
:1003C8003B18FB0B3B18826E838E69EC0AF08FECAE
:1003D8000AF094EC0AF0839E46D70CEF00F020C098
:1003E80024F021C025F0241E251E244A252A010EAA
:1003F80024242A6E000E25202B6E000E276E010E77
:10040800266E20C024F021C025F0D8902436253649
:10041800241E251E244A252A24C028F025C029F098
:10042800000E2D6E000E2C6E20C02EF021C02FF075
:100438001E502024186E22C019F023C01AF01C5038
:10044800D4EC09F0205000081E24186E22C019F0C0
:1004580023C01AF01C50D4EC09F01EC018F022C0BA
:1004680019F023C01AF01C502024D4EC09F01EC047
:1004780018F022C019F023C01AF0205000081C24DC
:10048800D4EC09F078D02BBE0BD02E06D8A02F06BE
:10049800020E2826000E292228502A2629502B220F
:1004A8002C4A2D2A020E2626000E272226502A26FE
:1004B80027502B221E502E24186E22C019F023C05C
:1004C8001AF01C502C24D4EC09F01E502E24186E5F
:1004D80022C019F023C01AF02C5000081C24D4ECB8
:1004E80009F02E5000081E24186E22C019F023C0EF
:1004F8001AF01C502C24D4EC09F02E5000081E24AD
:10050800186E22C019F023C01AF02C5000081C24C1
:10051800D4EC09F01E502C24186E22C019F023C008
:100528001AF01C502E24D4EC09F01E502C24186EFE
:1005380022C019F023C01AF02E5000081C24D4EC55
:1005480009F02C5000081E24186E22C019F023C090
:100558001AF01C502E24D4EC09F02C5000081E244C
:10056800186E22C019F023C01AF02E5000081C245F
:10057800D4EC09F000D02E502C5C2D50800A246E4B
:100588002F50800A2458D8A07ED71200F2926B50C0
:10059800D8B4A7D0CE50CFCF01F0026A01C002F084
:1005A800016A0110646E0250656E000ECF6E000E77
:1005B800CE6E97D0000ECF6E000ECE6E9E90900E2F
:1005C800CD6ECD80000E6D6E000E5E6E000E5F6EFD
:1005D800000E606E000E616E010E6B6E6BC084FFC4
:1005E8007ED090D0340E645C210E6558D8A009D016
:1005F8001D0E645C250E6558D8B003D0020E6B6ED4
:1006080027D098EC0AF02AD029D07CD0A00E645CC0
:100618000F0E6558D8A009D0890E645C130E655872
:10062800D8B003D0030E6B6E54D098EC0AF057D0B4
:1006380056D068D0900E645C010E6558D8A00BD0D7
:10064800BD0E645C020E6558D8B005D0040ED7D72D
:100658006BC084FF03D098EC0AF000D0F19C52D014
:10066800900E645C010E6558D8A036D0090E645C03
:10067800070E6558D8B030D0D8905E345E6E5F34BF
:100688005F6E6034606E6134616EE90E645C030E07
:100698006558D8A00CD0010E5E245E6E000E5F2057
:1006A8005F6E000E6020606E000E6120616E6D2826
:1006B8006D6E1F0E6D64B6D75FC06AF0000E6B6E6C
:1006C8006BC084FF000E636E010E626EF29807D055
:1006D800A9D76BC084FF03D098EC0AF000D0F18C46
:1006E80011D06B50000AD8B465D7010AD8B47AD7AC
:1006F800030AD8B48BD7010AD8B49CD7070AD8B450
:10070800AFD700D01200366E800E3660A6D09F0E8E
:100718002E6401D0A2D03450D8A403D0010E346E78
:1007280000D01F0E2F6404D07E0E2F6403D000D09B
:100738003F0E2F6E000E386E040E386401D08DD037
:10074800530E2F6015D0E00E2F24116E126AFF0E83
:100758001222000E146E050E136E01EC0AF03850CA
:100768001126000E1222CF0E1124F66EFD0E14D0A3
:10077800AD0E2F24116E126AFF0E1222000E146E97
:10078800050E136E01EC0AF038501126000E1222E5
:10079800CE0E1124F66EFE0E1220F76E0800F5CF6D
:1007A80035F000D0000E376E060E376401D053D0F6
:1007B80035A023D03404D8A40CD02E503724186E7A
:1007C80030C019F031C01AF036503824D4EC09F092
:1007D8003ED037503402F3502E24236E34C024F018
:1007E80034C025F030C026F031C027F0385034022C
:1007F800F350362458EC09F02AD03050321804E16E
:1008080031503318D8B423D03404D8A40CD02E5087
:100818003724186E32C019F033C01AF03650382415
:10082800D4EC09F014D037503402F3502E24236E40
:1008380034C024F034C025F032C026F033C027F08D
:1008480038503402F350362458EC09F000D0372AD7
:10085800D8903532A9D7382A6FD7120027C02FF081
:1008680028C030F02F1E301E2F4A302A010E2F24A8
:10087800356E000E3020366E000E326E010E316E6F
:1008880027C02FF028C030F0D8902F3630362F1ED2
:10089800301E2F4A302A2FC033F030C034F0000EFB
:1008A800386E000E376E27C039F028C03AF067D08E
:1008B80036BE0BD03906D8A03A06020E3326000EF3
:1008C80034223350352634503622374A382A020E1D
:1008D8003126000E3222315035263250362229A0D8
:1008E80025D0395000082524186E395039242B2476
:1008F8002F6E2F28196E2DC01AF02EC01BF0235012
:10090800372423EC07F0375000082524186E375099
:1009180037242B242F6E2F28196E2DC01AF02EC0C5
:100928001BF02350392423EC07F000D029A227D04C
:10093800395000082524186E395039242B242F6E7D
:100948002F28196E2DC01AF02EC01BF03750000842
:10095800232423EC07F0375000082524186E37505D
:1009680037242B242F6E2F28196E2DC01AF02EC075
:100978001BF039500008232423EC07F000D039502D
:10098800375C3850800A2F6E3A50800A2F58D8A00A
:100998008FD7120001017E6F7EC184F1F3C083F10D
:1009A800F4C011F0F5C012F07DEC09F011C07FF130
:1009B80012C080F1000E0101826F000E816F6BD0B2
:1009C8005350D8B438D00001FA51050D01018451B3
:1009D800396E3A6AF3503926F4503A223ABE2BD08F
:1009E8003A5004E1810E395CD8A025D0000E0101EF
:1009F800846F0001FA51070DF35001018325030F9D
:100A08000101836FA00E0101836504D0A00E0101CE
:100A1800836F00D0010181510001F425D96E0101D5
:100A280082510001F521DA6E200EDE18D8B42FD0DD
:100A380002D02DD000D083C12EF0010181510001D8
:100A4800F425D96E010182510001F521DA6EDF50DB
:100A58002F6EF6C030F0F7C031F0F8C032F0F9C0B0
:100A680033F0FAC034F00101845187EC03F000013F
:100A7800FA51060DF350010184250101846F800E9F
:100A88000101846504D0800E0101846F00D001014A
:100A9800814B822B00D001017F510101815D010151
:100AA800805101018259D8A08BD71200010E7AEC2F
:100AB8000AF0000E186E960E176EE2EC08F0110E92
:100AC8007AEC0AF0010E186EF40E176EE2EC08F0DC
:100AD800B10E7AEC0AF0010E72EC0AF02C0E72ECF0
:100AE8000AF02D0E72EC0AF0B20E7AEC0AF0010E42
:100AF80072EC0AF02C0E72EC0AF02D0E72EC0AF071
:100B0800B30E7AEC0AF0010E72EC0AF02C0E72ECBD
:100B18000AF02D0E72EC0AF0010E72EC0AF02C0E9F
:100B280072EC0AF02D0E72EC0AF0B40E7AEC0AF0B0
:100B3800070E72EC0AF0C00E7AEC0AF0A20E72EC04
:100B48000AF0020E72EC0AF0840E72EC0AF0C10E82
:100B58007AEC0AF0C50E72EC0AF0C20E7AEC0AF0D2
:100B68000A0E72EC0AF0000E72EC0AF0C30E7AEC70
:100B78000AF08A0E72EC0AF02A0E72EC0AF0C40E21
:100B88007AEC0AF08A0E72EC0AF0EE0E72EC0AF0B9
:100B9800C50E7AEC0AF00E0E72EC0AF0200E7AEC12
:100BA8000AF0360E7AEC0AF0C80E72EC0AF03A0E29
:100BB8007AEC0AF0050E72EC0AF01200E00E7AECFC
:100BC8000AF0020E72EC0AF01C0E72EC0AF0070E24
:100BD80072EC0AF0120E72EC0AF0370E72EC0AF0A0
:100BE800320E72EC0AF0290E72EC0AF02D0E72EC3D
:100BF8000AF0290E72EC0AF0250E72EC0AF02B0EA0
:100C080072EC0AF0390E72EC0AF0000E72EC0AF07F
:100C1800010E72EC0AF0030E72EC0AF0100E72EC80
:100C28000AF0E10E7AEC0AF0030E72EC0AF01D0EDF
:100C380072EC0AF0070E72EC0AF0060E72EC0AF07B
:100C48002E0E72EC0AF02C0E72EC0AF0290E72ECE1
:100C58000AF02D0E72EC0AF02E0E72EC0AF02E0E2F
:100C680072EC0AF0370E72EC0AF03F0E72EC0AF0E2
:100C7800000E72EC0AF0000E72EC0AF0020E72EC32
:100C88000AF0100E72EC0AF0130E7AEC0AF0000E5D
:100C9800186E0A0E176EE2EC08F0290E7AEC0AF0CC
:100CA800000E186E640E176EE2EC08F01200236E48
:100CB800800E236069D09F0E186401D065D0FF0EA6
:100CC8001D6EFF0E1E6E195023C01FF0206A1F26CE
:100CD800000E20221D501F261E50202220BE0AD0A2
:100CE800205004E1800E1F5CD8A004D023500008D7
:100CF800800F196EFF0E1D6EFF0E1E6E1A5018C063
:100D08001FF0206A1F26000E20221D501F261E508D
:100D1800202220BE0BD0205004E1A00E1F5CD8A0DA
:100D280005D018500008A00F1A6E00D018C014F093
:100D3800235019241D6E1D04156E18501A241E6E9A
:100D48001E04166E23500BEC09F01C50216E1BC0BC
:100D580022F0838683981AC018F01850D8B413D09C
:100D680001D011D019C023F02350D8B40AD001D033
:100D780008D021504CEC0AF022504CEC0AF0230623
:100D8800F3D71806EAD78388120060EC0AF0ECEC77
:100D980009F0000E256E000E246E25EC0AF0D40E24
:100DA800686E000E696E68C011F069C012F0F60E28
:100DB800136EFF0E146EBBEC09F0020E0001F36F08
:100DC80068C0F4F069C0F5F0FF0E0001F76FF6692E
:100DD800000E0001F96F000EF86F010E0001FA6FA6
:100DE800320ECEEC04F004D0530E546E500E03D0E5
:100DF800460E546E410E556E320E566E350E576EB7
:100E0800320E596E300E5B6E320E5C6E960E00011D
:100E1800F36F540E0001F46F000E0001F56FFF0E22
:100E28000001F76FF669000E0001F96F000EF86F08
:100E3800010E0001FA6F010ECEEC04F01200226ED2
:100E4800800E22603FD09F0E186401D03BD0FF0E69
:100E58001C6EFF0E1D6E195018C01EF01F6A1E264C
:100E6800000E1F221C501E261D501F221FBE0BD015
:100E78001F5004E1A00E1E5CD8A005D01850000831
:100E8800A00F196E00D01B50206E1AC021F018C098
:100E980014F022C015F0185019241C6E1C04166E8C
:100EA80022500BEC09F08386839807D020504CEC35
:100EB8000AF021504CEC0AF000D019061928D8A4E1
:100EC800F5D78388120000EED4F01F0EEE6AE8060C
:100ED800FDE100EE5EF0120EEE6AE806FDE1500E4E
:100EE800F66E0F0EF76E000EF86E01EE00F010EEC3
:100EF8007EF00900F5CFEEFFE550E150FAE1700E03
:100F0800F66E110EF76E000EF86E00EE80F010EE21
:100F180054F00900F5CFEEFFE550E150FAE12A0E52
:100F2800F66E140EF76E000EF86E00EE3EF010EE40
:100F380020F00900F5CFEEFFE550E150FAE1000E90
:100F4800F86E000117EF01F000F800F800F8FF074D
:100F5800FF07E0071F001F001FF800000000000047
:100F68000000000000000000000000000000000079
:100F7800000043482D004348200043482B007C3C98
:100F88003C003E3E7C003E7C7C00202D2000202B37
:100F98002000455120002030200031303000323010
:100FA800300020312000203220002033200020345F
:100FB800200020352000203620002037200020384F
:100FC8002000203920000600EACF06F0E1CF07F024
:100FD800E2CF08F0D9CF09F0DACF0AF0F3CF0BF05F
:100FE800F4CF0CF0F6CF0DF0F7CF0EF0F8CF0FF0EE
:100FF800F5CF10F09EA003D089EC0AF000D0F2A241
:1010080003D0CAEC02F000D010C0F5FF0FC0F8FF03
:101018000EC0F7FF0DC0F6FF0CC0F4FF0BC0F3FFC6
:101028000AC0DAFF09C0D9FF08C0E2FF07C0E1FF24
:1010380006C0EAFF05C0E9FF04C0FBFF03C0FAFFD2
:101048001100136E000EAC6E000EAB6E13A002D032
:10105800AC8800D013A203D0AC8CAB8C00D013A406
:1010680002D0AC8E00D013A602D0AB8802D0AB8AD7
:1010780000D013B8AC849E9813AA02D0AB8600D0D7
:1010880013AC02D09D8A01D09D9A9E9A13AE02D0CD
:101098009D8801D09D9811C0AFFF1250B06EAC8AE8
:1010A800AB8E949C948EACB8ACBE02D0948C00D01D
:1010B8001200000E166E000E156E13501410D8B4E0
:1010C80021D0010E176E05D0D89013361436172A82
:1010D80000D014BE02D0F8D700D0D89015361636F6
:1010E8001350115C14501258D8A006D01350115E3A
:1010F8001450125A158000D0D89014321332172E7B
:10110800ECD700D015C011F016C012F01200000183
:10111800F75100080001F525186ED8800001F73551
:10112800196EF9C01AF0FAC01BF00001F35123EC54
:1011380007F0F3C023F0F4C024F0F5C025F0F6C0A2
:1011480026F0F7C027F0F8C028F0000E2A6E030E2C
:10115800296E000E2C6E000E2B6EF9C02DF0FAC011
:101168002EF032EC04F01200010101060602040020
:101178000000000000000000000000000000000067
:1011880000000000202838383838380000000000F7
:101198000000000000000000000000000000000047
:1011A80038383838383838000000000000000000AF
:1011B80001000001010101010101010117C011F045
:1011C80018C012F0000E146EFA0E136E01EC0AF03D
:1011D80011C01BF012C01CF01BC019F01CC01AF083
:1011E800191E1A1E194A1A2AFF0E19241B6EFF0E01
:1011F8001A201C6EB80EB16E1BC0D6FF1C50D76EDD
:10120800A192B18000D0A1A2FED7B1901200176EB2
:101218002A0E7AEC0AF0000E72EC0AF017506E24CF
:1012280072EC0AF0000E72EC0AF015506E2472ECA3
:101238000AF02B0E7AEC0AF0000E72EC0AF0145049
:101248006F2472EC0AF0000E72EC0AF016506F244C
:1012580072EC0AF02C0E7AEC0AF012001A501B10ED
:10126800D8B41DD0010E1C6E05D0D8901A361B3686
:101278001C2A00D01BBE02D0F8D700D01A50185C28
:101288001B501958D8A005D01A50185E1B50195A6F
:1012980000D0D8901B321A321C2EF0D700D018C0BC
:1012A80018F019C019F012002B6E2BC02CF02D6A03
:1012B8000ED023C018F025C019F026C01AF027C098
:1012C8001BF02C5023EC07F02C4A2D2A00D0245078
:1012D8002BC028F0296A2826000E292228502C5CC9
:1012E8002D50800A2A6E2950800A2A58D8A0E1D7A2
:1012F800120011C015F012C016F003D0154A162AB4
:1013080000D015C0D9FF16C0DAFFDF50D8A4F6D731
:1013180011C013F012C014F0131E141E134A142A1D
:1013280015501324116E16501420126E00D012009E
:101338002A0E7AEC0AF0000E72EC0AF0000E72EC3B
:101348000AF0000E72EC0AF07F0E72EC0AF02B0E17
:101358007AEC0AF0000E72EC0AF0000E72EC0AF059
:10136800000E72EC0AF09F0E72EC0AF0120011C027
:1013780015F012C016F005D0154A162A134A142A79
:1013880000D013C0F6FF14C0F7FF15C0D9FF16C070
:10139800DAFF0800F5CFDFFFDF50D8A4EDD7120041
:1013A8001B6E800E1B6013D09F0E186401D00FD0E7
:1013B80018C014F01B28156E1828166E1B500BEC5D
:1013C80009F01A5072EC0AF0195072EC0AF0120087
:1013D80083888396800EC76E300EC66E5AEC05F071
:1013E8009CEC09F0E2EC05F0360E7AEC0AF0C00E3F
:1013F80072EC0AF0010E6C6E120011501302F3CF5A
:1014080015F0F4CF16F011501402F35016261250AE
:101418001302F350162615C011F016C012F000D0B2
:101428001200A262E22202C2E0A8906898B03018C6
:101438007A10385A424A5201535032342F322F30E0
:101448003100000E186E800E196EA00E1A6E24C0A0
:101458001BF025C01CF0000E5BEC06F01200030E1A
:10146800D56EDB0ED66E0B0ED76EF294D58E00D0ED
:10147800F2A4FED7D59E1200F292F19CF288000EDB
:10148800CF6E000ECE6E9E909D80F28CF28E120072
:10149800126E9E96C9CF11F012C0C9FF00D0C7A026
:1014A800FED71200000E126E190E116E3C0E25ECBE
:1014B80008F0700ED36E1200839A000E186E640E38
:1014C800176EE2EC08F0838A1200F90ECB6E050E57
:1014D800CA6E4A0EBB6E3C0EBA6E1200136E83982B
:1014E800838613504CEC0AF083881200136E83989D
:1014F800839613504CEC0AF083881200116E00D0CA
:10150800ACA2FED711C0ADFF1200000E6B6EF19CAD
:10151800CD909E90120033EC0AF033EC0AF01200E2
:10152800000EBA6E82921200000E6B6ECD90120001
:06153800F288F19C120094
:10FDCE0000000000000000005F00000007000700B8
:10FDDE00147F147F14242A7F2A1223130864623698
:10FDEE00495620500008070300001C224100004124
:10FDFE00221C002A1C7F1C2A08083E08080080705E
:10FE0E003000080808080800006060002010080490
:10FE1E00023E5149453E00427F40007249494946E3
:10FE2E002141494D331814127F1027454545393C61
:10FE3E004A4949314121110907364949493646494E
:10FE4E0049291E0000140000004034000000081470
:10FE5E0022411414141414004122140802015909E9
:10FE6E00063E415D594E7C1211127C7F494949363E
:10FE7E003E414141227F4141413E7F494949417FB7
:10FE8E00090909013E414151737F0808087F00416D
:10FE9E007F41002040413F017F081422417F4040B6
:10FEAE0040407F021C027F7F0408107F3E4141418B
:10FEBE003E7F090909063E4151215E7F09192946F7
:10FECE00264949493203017F01033F4040403F1F0D
:10FEDE002040201F3F4038403F6314081463030442
:10FEEE007804036159494D43007F414141020408A2
:10FEFE001020004141417F04020102044040404075
:10FF0E0040000307080020545478407F28444438AA
:10FF1E003844444428384444287F385454541800F4
:10FF2E00087E090218A4A49C787F08040478004473
:10FF3E007D40002040403D007F1028440000417F5E
:10FF4E0040007C047804787C0804047838444444E7
:10FF5E0038FC1824241818242418FC7C08040408DF
:10FF6E00485454542404043F44243C4040207C1CF8
:10FF7E002040201C3C4030403C44281028444C90EB
:10FF8E0090907C4464544C44000836410000007745
:10FF9E0000000041360800020102040201000A00BE
:10FFAE006400E803102701001000000100104B65EB
:10FFBE0079204C6F636174696F6E203D202564203B
:10FFCE000D0A0A004E45435F427574746F6E203DF4
:10FFDE00202578200D0A003031323334353637384B
:10FFEE0039616263646566004C4142203130200005
:02FFFE00000001
:020000040020DA
:08000000FFFFFFFFFFFFFFFF00
:020000040030CA
:0E000000FF08191EFF8381FF0FC00FE00F40A5
:00000001FF
