:040000000CEF00F011
:10000800FACF03F0FBCF04F0E9CF05F0E2ED08F0FA
:1000180020EF09F01F0E306E000E316E99D1250EBB
:100028003818D8B404D03850DFEC0CF091D1000E59
:10003800376E000E366E000E356E05D035841D4ABB
:100048001E2A01D00BD01DC0F6FF1EC0F7FF080006
:10005800F550300AD8B4F2D701D0F5D71DC0F6FF55
:100068001EC0F7FF0800F5501FEC0CF0D8A03BD0DD
:10007800000E376E000E366E00D036C011F037C055
:1000880012F0000E146E0A0E136E0BEC0CF011C079
:1000980036F012C037F0D00E2B6EFF0E2C6E1DC03E
:1000A800F6FF1EC0F7FF0800F5502D6E2E6A2B5084
:1000B8002D262C502E222D5036262E5037221D4A02
:1000C8001E2A1DC0F6FF1EC0F7FF0800F5501FECE2
:1000D8000CF0D8A008D0D1D706D048D11BD0358E87
:1000E80019D036D117D01DC0F6FF1EC0F7FF1D4A24
:1000F8001E2A0800F5CF38F03850000AD8B436D197
:10010800640AD8B407D00D0AD8B404D0110AD8B4F8
:10011800E6D71ED135BE15D030C0D9FF31C0DAFFC1
:10012800DECF33F0DDCF34F0020E3026000E312260
:1001380034AE4ED0030E3512336C341ED8B0342A88
:1001480047D030C0D9FF31C0DAFFDECF33F0DDCF82
:1001580034F0020E3026000E31223AD0010E386EED
:10016800050E3818D8B43DD001D03BD03850020D18
:10017800620EF324F66EFF0EF420F76E0900F550B8
:10018800335C0900F5503458D8A02BD001D029D0C1
:10019800382AE6D726D0010E386E040E3818D8B49F
:1001A80020D001D01ED03850020D6C0EF324F66E0C
:1001B800FF0EF420F76E0900F550335C0900F55086
:1001C8003458D8A00ED001D00CD0382AE6D709D0A0
:1001D8003550800B000AD8B4C1D7800AD8B4DBD711
:1001E80000D036503710D8B40AD035C02BF0030EE3
:1001F8002B16D8B404D03606D8A0370600D0800E07
:1002080038BE7F0E2B6E3650385C3750800A2B581C
:10021800D8B007D03850365E000E38BEFF0E375AB9
:1002280005D0000E376E000E366E00D035A41AD0F9
:1002380035C02BF0030E2B16D8B404D02D0EDFECEE
:100248000CF000D036503710D8B426D0300EDFEC82
:100258000CF03606D8A0370636503710D8B41CD064
:10026800F5D71AD036503710D8B40CD0200EDFECA2
:100278000CF03606D8A0370636503710D8B402D05E
:10028800F5D700D035C02BF0030E2B16D8B404D008
:100298002D0EDFEC0CF000D038C032F053D045D032
:1002A8003250020D620EF324F66EFF0EF420F76E44
:1002B8000900F5CF13F00A00F5CF14F033C011F0A0
:1002C80034C012F034EC0AF011C018F012C019F062
:1002D800000E1B6E0A0E1A6EDBEC0AF01850300F77
:1002E800386E2CD033C011F034C012F03250020DE9
:1002F8006C0EF324F66EFF0EF420F76E0900F5CFAE
:1003080013F00A00F5CF14F034EC0AF011500F0B7B
:100318002F6E2F50010DE60EF324F66EFF0EF4201B
:10032800F76E0800F5CF38F009D03550800B000A79
:10033800D8B4B6D7800AD8B4D5D700D03850DFECB7
:100348000CF000D032063228D8B402D0EED700D054
:100358001DC0F6FF1EC0F7FF1D4A1E2A0800F5CF74
:1003680038F03850D8B402D05AD600D0120098ECE1
:100378000CF0700ED36EF19E010E936E000E946E0B
:10038800000E956E0F0EC16E000E846E000E966EF6
:10039800000E926EBCEC07F0A00E116E860E126E67
:1003A800010E136E000E146EF7EC0CF040EC0CF01E
:1003B80077EC0CF0000E486E000E496E000E4A6E87
:1003C800000E4B6E00D002EC0AF063506E18D8B4E1
:1003D80047D063C06EF0A7EC0BF01450456E455043
:1003E800116E126A11BE1206000E146E090E136EFB
:1003F8000BEC0CF011C017F012C018F0000E1A6EBA
:10040800050E196E14EC08F01750200F446E9F0E5D
:100418001D6EFF0E1E6E5FC01FF0206A60C021F0C7
:10042800226A63C023F0246A61C025F0266A5DC091
:1004380027F0286A6DC029F02A6A0EEC00F0740EC5
:100448001D6EFF0E1E6E45501F6E206A1FBE2006D1
:100458004450216E226A21BE22060EEC00F000D024
:100468004C044D10D8A4AFD7000E4D6E000E4C6E44
:1004780016EC0DF0D30E1D6EFF0E1E6E54C01FF04D
:10048800206A0EEC00F04768000E466E140E4664B3
:1004980001D011D04650010DD40EF324D96E000EB0
:1004A800F420DA6E5450DE18D8A403D046C047F0C2
:1004B80000D0462AEBD74728D8B485D7BD0E1D6E85
:1004C800FF0E1E6E47C01FF0206A0EEC00F0000EF3
:1004D8003C6E3C0E3B6E000E3E6E500E3D6E000EA6
:1004E800406E140E3F6E4750020D000EF324D96E75
:1004F800010EF420DA6EDECF41F0DDCF42F062EC7F
:100508000AF0000E1D6E3C0E1C6E000E1F6E500E83
:100518001E6E000E216E140E206EFF0E236E2268D2
:10052800EDEC02F04D0E396E4750040D2A0EF324FF
:100538003A6E010EF4203B6EFF0E3D6E3C68000ED5
:100548003F6E000E3E6E010E406E340E50EC06F00B
:100558004750010D950EF324D96E000EF420DA6E83
:10056800DF50436E4750010D800EF324D96E000E04
:10057800F420DA6EDF504310806E4750010DAA0E4A
:10058800F324D96E000EF420DA6EDF50816E4750E6
:10059800010DBF0EF324D96E000EF420DA6EDF5081
:1005A800436E4346434682504318FB0B4318826E02
:1005B800838EC6EC0CF0F2EC0CF006EC0DF0839E8A
:1005C800A20E5418D8A4FFD6CFEC09F0FCD60CEF35
:1005D80000F020C024F021C025F0241E251E244A46
:1005E800252A010E24242A6E000E25202B6E000ECB
:1005F800276E010E266E20C024F021C025F0D89069
:1006080024362536241E251E244A252A24C028F0EF
:1006180025C029F0000E2D6E000E2C6E20C02EF085
:1006280021C02FF01E502024186E22C019F023C0BC
:100638001AF01C50DEEC0BF0205000081E24186E37
:1006480022C019F023C01AF01C50DEEC0BF01EC0BB
:1006580018F022C019F023C01AF01C502024DEEC38
:100668000BF01EC018F022C019F023C01AF0205059
:1006780000081C24DEEC0BF078D02BBE0BD02E0625
:10068800D8A02F06020E2826000E292228502A2636
:1006980029502B222C4A2D2A020E2626000E27220C
:1006A80026502A2627502B221E502E24186E22C090
:1006B80019F023C01AF01C502C24DEEC0BF01E504D
:1006C8002E24186E22C019F023C01AF02C500008EE
:1006D8001C24DEEC0BF02E5000081E24186E22C0DD
:1006E80019F023C01AF01C502C24DEEC0BF02E500D
:1006F80000081E24186E22C019F023C01AF02C50CE
:1007080000081C24DEEC0BF01E502C24186E22C0AE
:1007180019F023C01AF01C502E24DEEC0BF01E50EA
:100728002C24186E22C019F023C01AF02E5000088D
:100738001C24DEEC0BF02C5000081E24186E22C07E
:1007480019F023C01AF01C502E24DEEC0BF02C50AC
:1007580000081E24186E22C019F023C01AF02E506B
:1007680000081C24DEEC0BF000D02E502C5C2D5021
:10077800800A246E2F50800A2458D8A07ED71200F1
:10078800F2925550D8B4A7D0CE50CFCF01F0026A1C
:1007980001C002F0016A01104E6E02504F6E000E49
:1007A800CF6E000ECE6E97D0000ECF6E000ECE6EBE
:1007B8009E90900ECD6ECD80000E5B6E000E486E42
:1007C800000E496E000E4A6E000E4B6E010E556EFD
:1007D80055C084FF7ED090D0340E4E5C210E4F5809
:1007E800D8A009D01D0E4E5C250E4F58D8B003D0A6
:1007F800020E556E27D012EC0DF02AD029D07CD0ED
:10080800A00E4E5C0F0E4F58D8A009D0890E4E5C32
:10081800130E4F58D8B003D0030E556E54D012ECB7
:100828000DF057D056D068D0900E4E5C010E4F5840
:10083800D8A00BD0BD0E4E5C020E4F58D8B005D0D4
:10084800040ED7D755C084FF03D012EC0DF000D0AA
:10085800F19C52D0900E4E5C010E4F58D8A036D065
:10086800090E4E5C070E4F58D8B030D0D890483497
:10087800486E4934496E4A344A6E4B344B6EE90E21
:100888004E5C030E4F58D8A00CD0010E4824486E79
:10089800000E4920496E000E4A204A6E000E4B2079
:1008A8004B6E5B285B6E1F0E5B64B6D749C054F075
:1008B800000E556E55C084FF000E4D6E010E4C6E35
:1008C800F29807D0A9D755C084FF03D012EC0DF0D9
:1008D80000D0F18C11D05550000AD8B465D7010A60
:1008E800D8B47AD7030AD8B48BD7010AD8B49CD71E
:1008F800070AD8B4AFD700D01200366E800E366023
:10090800A6D09F0E2E6401D0A2D03450D8A403D014
:10091800010E346E00D01F0E2F6404D07E0E2F649B
:1009280003D000D03F0E2F6E000E386E040E3864D0
:1009380001D08DD0530E2F6015D0E00E2F24116EEC
:10094800126AFF0E1222000E146E050E136E0BECC7
:100958000CF038501126000E1222870E1124F66E64
:10096800FD0E14D0AD0E2F24116E126AFF0E122246
:10097800000E146E050E136E0BEC0CF03850112699
:10098800000E1222860E1124F66EFE0E1220F76E4D
:100998000800F5CF35F000D0000E376E060E37642C
:1009A80001D053D035A023D03404D8A40CD02E5075
:1009B8003724186E30C019F031C01AF03650382478
:1009C800DEEC0BF03ED037503402F3502E24236E69
:1009D80034C024F034C025F030C026F031C027F0F0
:1009E80038503402F350362401EC0BF02AD0305042
:1009F800321804E131503318D8B423D03404D8A4C1
:100A08000CD02E503724186E32C019F033C01AF0AB
:100A180036503824DEEC0BF014D037503402F35043
:100A28002E24236E34C024F034C025F032C026F0C2
:100A380033C027F038503402F350362401EC0BF061
:100A480000D0372AD8903532A9D7382A6FD7120064
:100A580027C02FF028C030F02F1E301E2F4A302A12
:100A6800010E2F24356E000E3020366E000E326EC9
:100A7800010E316E27C02FF028C030F0D8902F36E5
:100A880030362F1E301E2F4A302A2FC033F030C088
:100A980034F0000E386E000E376E27C039F028C0CB
:100AA8003AF067D036BE0BD03906D8A03A06020E07
:100AB8003326000E34223350352634503622374A36
:100AC800382A020E3126000E322231503526325095
:100AD800362229A025D0395000082524186E39500F
:100AE80039242B242F6E2F28196E2DC01AF02EC0F2
:100AF8001BF0235037245FEC08F0375000082524FA
:100B0800186E375037242B242F6E2F28196E2DC0BE
:100B18001AF02EC01BF0235039245FEC08F000D0E7
:100B280029A227D0395000082524186E39503924B5
:100B38002B242F6E2F28196E2DC01AF02EC01BF0F3
:100B48003750000823245FEC08F0375000082524AC
:100B5800186E375037242B242F6E2F28196E2DC06E
:100B68001AF02EC01BF03950000823245FEC08F05F
:100B780000D03950375C3850800A2F6E3A50800ABE
:100B88002F58D8A08FD71200010ED7EC0CF0000E0A
:100B9800186E960E176E8BEC0AF0110ED7EC0CF04F
:100BA800010E186EF40E176E8BEC0AF0B10ED7EC2E
:100BB8000CF0010ECFEC0CF02C0ECFEC0CF02D0E3F
:100BC800CFEC0CF0B20ED7EC0CF0010ECFEC0CF021
:100BD8002C0ECFEC0CF02D0ECFEC0CF0B30ED7ECA6
:100BE8000CF0010ECFEC0CF02C0ECFEC0CF02D0E0F
:100BF800CFEC0CF0010ECFEC0CF02C0ECFEC0CF07F
:100C08002D0ECFEC0CF0B40ED7EC0CF0070ECFEC99
:100C18000CF0C00ED7EC0CF0A20ECFEC0CF0020ECC
:100C2800CFEC0CF0840ECFEC0CF0C10ED7EC0CF02E
:100C3800C50ECFEC0CF0C20ED7EC0CF00A0ECFECC0
:100C48000CF0000ECFEC0CF0C30ED7EC0CF08A0EB3
:100C5800CFEC0CF02A0ECFEC0CF0C40ED7EC0CF055
:100C68008A0ECFEC0CF0EE0ECFEC0CF0C50ED7ECE4
:100C78000CF00E0ECFEC0CF0200ED7EC0CF0360E6C
:100C8800D7EC0CF0C80ECFEC0CF03A0ED7EC0CF009
:100C9800050ECFEC0CF012000001F36FF3C0F9F071
:100CA80039C0F8F03AC011F03BC012F04AEC0BF032
:100CB80011C0F4F012C0F5F0000E0001F76F000E3D
:100CC800F66F64D06F50D8B434D04050050D000191
:100CD800F951416E426AF3504126F450422242BE15
:100CE80028D0425004E1810E415CD8A022D0000EE9
:100CF8000001F96F4050070DF3500001F825030F6C
:100D08000001F86FA00E0001F86504D0A00E0001E4
:100D1800F86F00D00001F6513A24D96E0001F7515E
:100D28003B20DA6E200EDE18D8B42CD002D02AD0A0
:100D380000D0F8C02EF00001F6513A24D96E000117
:100D4800F7513B20DA6EDF502F6E3CC030F03DC0CB
:100D580031F03EC032F03FC033F040C034F0000103
:100D6800F95181EC04F04050060DF3500001F925CB
:100D78000001F96F800E0001F96504D0800E0001B2
:100D8800F96F00D00001F64BF72B00D00001F451A9
:100D98000001F65D0001F5510001F759D8A092D77E
:100DA8001200E00ED7EC0CF0020ECFEC0CF01C0E8B
:100DB800CFEC0CF0070ECFEC0CF0120ECFEC0CF0D1
:100DC800370ECFEC0CF0320ECFEC0CF0290ECFEC36
:100DD8000CF02D0ECFEC0CF0290ECFEC0CF0250EFC
:100DE800CFEC0CF02B0ECFEC0CF0390ECFEC0CF056
:100DF800000ECFEC0CF0010ECFEC0CF0030ECFEC94
:100E08000CF0100ECFEC0CF0E10ED7EC0CF0030E4A
:100E1800CFEC0CF01D0ECFEC0CF0070ECFEC0CF065
:100E2800060ECFEC0CF02E0ECFEC0CF02C0ECFEC07
:100E38000CF0290ECFEC0CF02D0ECFEC0CF02E0E92
:100E4800CFEC0CF02E0ECFEC0CF0370ECFEC0CF0F4
:100E58003F0ECFEC0CF0000ECFEC0CF0000ECFECF8
:100E68000CF0020ECFEC0CF0100ECFEC0CF0130EC1
:100E7800D7EC0CF0000E186E0A0E176E8BEC0AF009
:100E8800290ED7EC0CF0000E186E640E176E8BEC62
:100E98000AF01200236E800E236069D09F0E18643A
:100EA80001D065D0FF0E1D6EFF0E1E6E195023C0B7
:100EB8001FF0206A1F26000E20221D501F261E50DC
:100EC800202220BE0AD0205004E1800E1F5CD8A04A
:100ED80004D023500008800F196EFF0E1D6EFF0E00
:100EE8001E6E1A5018C01FF0206A1F26000E2022FE
:100EF8001D501F261E50202220BE0BD0205004E17A
:100F0800A00E1F5CD8A005D018500008A00F1A6EBC
:100F180000D018C014F0235019241D6E1D04156E3E
:100F280018501A241E6E1E04166E2350B4EC0AF0D4
:100F38001C50216E1BC022F0838683981AC018F0BB
:100F48001850D8B413D001D011D019C023F02350B1
:100F5800D8B40AD001D008D021508EEC0CF0225021
:100F68008EEC0CF02306F3D71806EAD78388120014
:100F7800A2EC0CF0F6EC0BF0000E256E000E246EC1
:100F88004FEC0CF07E0E526E010E536E52C011F0F3
:100F980053C012F0F70E136EFF0E146EC5EC0BF073
:100FA800020E396E52C03AF053C03BF0FF0E3D6E50
:100FB8003C68000E3F6E000E3E6E010E406E320E13
:100FC80050EC06F005D0530E0001E96F500E04D026
:100FD800460E0001E96F410E0001EA6F320E000172
:100FE800EB6F350E0001EC6F320E0001EE6F300E24
:100FF8000001F06F320E0001F16F960E396EE90EA6
:101008003A6E000E3B6EFF0E3D6E3C68000E3F6E62
:10101800000E3E6E010E406E010E50EC06F01200FE
:10102800000E1C6E1AAE07D0196C1A1ED8B01A2AF8
:10103800010E1C6E00D018AE07D0176C181ED8B061
:10104800182A010E1C1A00D0000E1E6E000E1D6E0E
:1010580019501A10D8B421D0010E1B6E05D0D890A3
:1010680019361A361B2A00D01ABE02D0F8D700D07B
:10107800D8901D361E361950175C1A501858D8A02B
:1010880006D01950175E1A50185A1D8000D0D890F3
:101098001A3219321B2EECD700D01C50D8B405D008
:1010A8001D6C1E1ED8B01E2A00D01DC017F01EC011
:1010B80018F000D01200226E800E22603FD09F0EE2
:1010C800186401D03BD0FF0E1C6EFF0E1D6E195028
:1010D80018C01EF01F6A1E26000E1F221C501E2656
:1010E8001D501F221FBE0BD01F5004E1A00E1E5C16
:1010F800D8A005D018500008A00F196E00D01B50BA
:10110800206E1AC021F018C014F022C015F0185033
:1011180019241C6E1C04166E2250B4EC0AF0838647
:10112800839807D020508EEC0CF021508EEC0CF0F8
:1011380000D019061928D8A4F5D78388120000F81A
:1011480000F800F8FF07FF07E0071F001F001FF85F
:101158000000000000000000000000000000000087
:10116800000000000000000043482D004348200014
:1011780043482B007C3C3C003E3E7C003E7C7C008F
:10118800202D2000202B2000455120002030200059
:101198003130300032303000203120002032200041
:1011A8002033200020342000203520002036200065
:1011B8002037200020382000203920000600EACF00
:1011C80006F0E1CF07F0E2CF08F0D9CF09F0DACF87
:1011D8000AF0F3CF0BF0F4CF0CF0F6CF0DF0F7CF09
:1011E8000EF0F8CF0FF0F5CF10F09EA003D0ECEC86
:1011F8000CF000D0F2A203D0C4EC03F000D010C071
:10120800F5FF0FC0F8FF0EC0F7FF0DC0F6FF0CC0CA
:10121800F4FF0BC0F3FF0AC0DAFF09C0D9FF08C00A
:10122800E2FF07C0E1FF06C0EAFF05C0E9FF04C00E
:10123800FBFF03C0FAFF110001EE7EF01F0EEE6AFD
:10124800E806FDE100EE48F0260EEE6AE806FDE14C
:10125800460EF66E110EF76E000EF86E01EE00F0F7
:1012680010EE7EF00900F5CFEEFFE550E150FAE10F
:10127800BA0EF66E120EF76E000EF86E00EE80F0E3
:1012880010EE73F00900F5CFEEFFE550E150FAE1FA
:10129800320EF66E1A0EF76E000EF86E0900F5CFD4
:1012A8006EF00900F5CF6FF0000EF86E0001BBEF8D
:1012B80001F0010101060602040000000000000020
:1012C80000000000000000000000000000002028CE
:1012D80038383838380000000000000000000000EE
:1012E80000000000000000000000383838383838A6
:1012F80038000000000000000000010000010101AA
:10130800010101010101A262E22202C2E0A8906883
:1013180098B030187A10385A424A52535032342F03
:10132800322F30310000136E000EAC6E000EAB6E23
:1013380013A002D0AC8800D013A203D0AC8CAB8C25
:1013480000D013A402D0AC8E00D013A602D0AB8874
:1013580002D0AB8A00D013B8AC849E9813AA02D0EE
:10136800AB8600D013AC02D09D8A01D09D9A9E9A7C
:1013780013AE02D09D8801D09D9811C0AFFF1250C6
:10138800B06EAC8AAB8E949C948EACB8ACBE02D0D6
:10139800948C00D01200680E136E000E146E000EAE
:1013A800636E300E606E020E5F6E050E5E6E300E5E
:1013B8005D6E100E616E250E6D6EBDEC0CF0135057
:1013C800132488EC0BF0145088EC0BF0635088EC75
:1013D8000BF0605088EC0BF05F5088EC0BF05E501F
:1013E80088EC0BF05D5088EC0BF0615088EC0BF04A
:1013F8006D5088EC0BF0B4EC0CF01200680E156E12
:10140800000E146EBDEC0CF01550152488EC0BF092
:10141800145088EC0BF083EC0CF0D880153488EC71
:101428000BF0010E26EC0BF0636E010E26EC0BF0B0
:10143800606E010E26EC0BF05F6E010E26EC0BF0D1
:101448005E6E010E26EC0BF05D6E010E26EC0BF0C5
:10145800616E000E26EC0BF06D6EB4EC0CF0120011
:10146800000E166E000E156E13501410D8B421D04D
:10147800010E176E05D0D89013361436172A00D0EF
:1014880014BE02D0F8D700D0D890153616361350AF
:10149800115C14501258D8A006D01350115E145085
:1014A800125A158000D0D89014321332172EECD768
:1014B80000D015C011F016C012F012003F500008FD
:1014C8003D24186ED8803F34196E41C01AF042C0CE
:1014D8001BF03B505FEC08F03BC023F03CC024F00D
:1014E8003DC025F03EC026F03FC027F040C028F0A0
:1014F800000E2A6E030E296E000E2C6E000E2B6E47
:1015080041C02DF042C02EF02CEC05F0120017C09F
:1015180011F018C012F0000E146EFA0E136E0BECD8
:101528000CF011C01BF012C01CF01BC019F01CC03D
:101538001AF0191E1A1E194A1A2AFF0E19241B6EB0
:10154800FF0E1A201C6EB80EB16E1BC0D6FF1C50C1
:10155800D76EA192B18000D0A1A2FED7B19012009F
:10156800176E2A0ED7EC0CF0000ECFEC0CF01750CB
:101578005C24CFEC0CF0000ECFEC0CF015505C2482
:10158800CFEC0CF02B0ED7EC0CF0000ECFEC0CF0DF
:1015980014506224CFEC0CF0000ECFEC0CF0165077
:1015A8006224CFEC0CF02C0ED7EC0CF012001A5081
:1015B8001B10D8B41DD0010E1C6E05D0D8901A3659
:1015C8001B361C2A00D01BBE02D0F8D700D01A50F8
:1015D800185C1B501958D8A005D01A50185E1B501B
:1015E800195A00D0D8901B321A321C2EF0D700D0CE
:1015F80018C018F019C019F012002B6E2BC02CF06F
:101608002D6A0ED023C018F025C019F026C01AF094
:1016180027C01BF02C505FEC08F02C4A2D2A00D074
:1016280024502BC028F0296A2826000E2922285089
:101638002C5C2D50800A2A6E2950800A2A58D8A07E
:10164800E1D71200116E0EEC0DF0000E126E070EAF
:10165800126401D00FD0E6EC0CF082A803D0D88039
:10166800133604D013501324136E00D00AEC0DF077
:10167800122AEDD71150D8B403D0ABEC0CF003D03C
:10168800FCEC0CF000D0135000D0120011C015F083
:1016980012C016F003D0154A162A00D015C0D9FF7B
:1016A80016C0DAFFDF50D8A4F6D711C013F012C065
:1016B80014F0131E141E134A142A15501324116E05
:1016C80016501420126E00D012002A0ED7EC0CF01F
:1016D800000ECFEC0CF0000ECFEC0CF0000ECFECAF
:1016E8000CF07F0ECFEC0CF02B0ED7EC0CF0000EAC
:1016F800CFEC0CF0000ECFEC0CF0000ECFEC0CF0A1
:101708009F0ECFEC0CF01200116E000E126E070E39
:10171800126401D011D011AE03D00EEC0DF003D03D
:1017280001EC0DF000D0E6EC0CF00AEC0DF01150D5
:101738001124116E122AEBD70EEC0DF0E6EC0CF02A
:101748000AEC0DF01200480E186EAA0E166EBDECCB
:101758000CF01850182488EC0BF0165088EC0BF09D
:1017680083EC0CF0D880183488EC0BF0000E26ECD3
:101778000BF0176EB4EC0CF017C014F0156A00D01B
:10178800120011C015F012C016F005D0154A162A1D
:10179800134A142A00D013C0F6FF14C0F7FF15C06F
:1017A800D9FF16C0DAFF0800F5CFDFFFDF50D8A455
:1017B800EDD712001B6E800E1B6013D09F0E1864AD
:1017C80001D00FD018C014F01B28156E1828166EFB
:1017D8001B50B4EC0AF01A50CFEC0CF01950CFECB7
:1017E8000CF0120083888396800EC76E300EC66E8A
:1017F800C8EC05F069EC0BF0D5EC06F0360ED7EC2A
:101808000CF0C00ECFEC0CF0010E566E1200115009
:101818001302F3CF15F0F4CF16F011501402F35061
:10182800162612501302F350162615C011F016C0D2
:1018380012F000D01200136E000E126E3A0E1360F2
:1018480006D02F0E136403D0010E126E00D012C002
:1018580011F0113000D01200156EBDEC0CF01550CF
:10186800152488EC0BF0135088EC0BF0145088EC1E
:101878000BF0B4EC0CF01200480E166EAC0E136EA2
:10188800020E146E165030EC0CF0EE0E136E16505D
:101898006AEC0CF01200000E186E800E196EA00E85
:1018A8001A6E24C01BF025C01CF0000E4EEC07F089
:1018B8001200030ED56EDB0ED66E0B0ED76EF294A9
:1018C800D58E00D0F2A4FED7D59E1200146EBDECC2
:1018D8000CF01450142488EC0BF0135088EC0BF027
:1018E800B4EC0CF01200F292F19CF288000ECF6E6C
:1018F800000ECE6E9E909D80F28CF28E12000AEC45
:101908000DF00EEC0DF0E6EC0CF001EC0DF00AEC2D
:101918000DF01200126E9E96C9CF11F012C0C9FFC9
:1019280000D0C7A0FED71200000E126E190E116E5D
:101938003C0E97EC09F0700ED36E1200839A000EDD
:10194800186E640E176E8BEC0AF0838A120001EC95
:101958000DF0E6EC0CF00AEC0DF00EEC0DF01200B8
:101968000AEC0DF001EC0DF0E6EC0CF00EEC0DF0CD
:1019780012000EEC0DF0E6EC0CF001EC0DF00AECA8
:101988000DF01200F90ECB6E050ECA6E4A0EBB6E34
:101998003C0EBA6E1200136E8398838613508EEC39
:1019A8000CF083881200136E8398839613508EEC84
:1019B8000CF083881200116E00D0ACA2FED711C0C3
:1019C800ADFF12009580060EE82EFED700D012005B
:1019D800000E556EF19CCD909E9012005DEC0CF0BF
:1019E8005DEC0CF01200E6EC0CF00EEC0DF01200C1
:1019F800E6EC0CF00AEC0DF012008298949800D0F6
:101A080000D01200000EBA6E829212008390959058
:101A180000D01200948800D000D01200000E556E3D
:0C1A2800CD901200F288F19C1200FF012A
:10FD860000000000000000005F0000000700070000
:10FD9600147F147F14242A7F2A12231308646236E0
:10FDA600495620500008070300001C22410000416C
:10FDB600221C002A1C7F1C2A08083E0808008070A6
:10FDC60030000808080808000060600020100804D9
:10FDD600023E5149453E00427F400072494949462C
:10FDE6002141494D331814127F1027454545393CAA
:10FDF6004A49493141211109073649494936464997
:10FE060049291E00001400000040340000000814B8
:10FE16002241141414141400412214080201590931
:10FE2600063E415D594E7C1211127C7F4949493686
:10FE36003E414141227F4141413E7F494949417FFF
:10FE4600090909013E414151737F0808087F0041B5
:10FE56007F41002040413F017F081422417F4040FE
:10FE660040407F021C027F7F0408107F3E414141D3
:10FE76003E7F090909063E4151215E7F091929463F
:10FE8600264949493203017F01033F4040403F1F55
:10FE96002040201F3F4038403F631408146303048A
:10FEA6007804036159494D43007F414141020408EA
:10FEB6001020004141417F040201020440404040BD
:10FEC60040000307080020545478407F28444438F3
:10FED6003844444428384444287F3854545418003D
:10FEE600087E090218A4A49C787F080404780044BC
:10FEF6007D40002040403D007F1028440000417FA7
:10FF060040007C047804787C08040478384444442F
:10FF160038FC1824241818242418FC7C0804040827
:10FF2600485454542404043F44243C4040207C1C40
:10FF36002040201C3C4030403C44281028444C9033
:10FF460090907C4464544C4400083641000000778D
:10FF560000000041360800020102040201000A0006
:10FF66006400E8031027010010000001001020546F
:10FF7600656D7065726174757265203D202564201B
:10FF86006465677265657343203D2025642064655A
:10FF96006772656573460D0A00253032783A25305A
:10FFA60032783A2530327820253032782F25303293
:10FFB600782F25303278004B6579204C6F63617459
:10FFC600696F6E203D202564200D0A0A004E4543C8
:10FFD6005F427574746F6E203D202578200D0A00EF
:10FFE60030313233343536373839616263646566A9
:0AFFF600004C414220313020000091
:020000040020DA
:08000000FFFFFFFFFFFFFFFF00
:020000040030CA
:0E000000FF08191EFF8381FF0FC00FE00F40A5
:00000001FF
