:040000000CEF00F011
:10000800FACF03F0FBCF04F0E9CF05F04EED1FF077
:10001800C5EF21F0880E00019E6F000E00019F6F52
:100028001EEF06F0250E0001B319D8B406D0000162
:10003800B35163EC27F01EEF06F0000E0001A76F26
:10004800000EA66F000E0001AF6F000EAE6F07D056
:100058000001AE850001864B872B01D00BD086C0EE
:10006800F6FF87C0F7FF0800F550300AD8B4F0D77C
:1000780001D0F5D786C0F6FF87C0F7FF0800F55016
:10008800FFEC25F0D8A04DD0000E0001A76F000EA0
:10009800A66F00D0A6C011F0A7C012F0000E146E13
:1000A8000A0E136E6CEC25F011C0A6F012C0A7F072
:1000B800D00E0001946FFF0E0001956F86C0F6FF09
:1000C80087C0F7FF0800F5500001966F976B000195
:1000D80094510001962700019551000197230001D2
:1000E80096510001A627000197510001A72300019E
:1000F800864B872B86C0F6FF87C0F7FF0800F550B0
:10010800FFEC25F0D8A00DD0C5D70BD02FEF06F007
:100118000001AF8524D00001AE8F21D01EEF06F07C
:100128001ED086C0F6FF87C0F7FF0001864B872BDD
:100138000800F5CFB3F00001B351000AD8B42FEF8F
:1001480006F0640AD8B40BD0020AD8B4E1D70F0A73
:10015800D8B405D0110AD8B4DED71EEF06F0070EC2
:100168000001AF15D8B49AD3000E0001A16F060E96
:10017800A06F9EC0D9FF9FC0DAFFDECFB0F0DECF00
:10018800B1F0DDCFB2F0030E00019E27000E9F23D1
:100198000001B2AF12D0B0C011F0B1C012F0B2C0BD
:1001A80013F0B9EC25F011C0B0F012C0B1F013C0D3
:1001B800B2F0030E0001AE1300D0000E0001A96FCB
:1001C800000EA86F0001B0510001B1110001B21179
:1001D800D8B493D0820E0001946FFF0E0001956F82
:1001E800B0C096F0B1C097F0B2C098F0B3C099F023
:1001F800100E06D00001D890993398339733963370
:10020800E82EF8D700019651000194250001A86F47
:10021800000E000195210001A96F0001A807D8A0D0
:10022800A907A8C011F0A9C012F0000E146E030EA1
:10023800136E6CEC25F011C0A8F012C0A9F0A8C08C
:1002480017F0A9C018F0000E1A6E0A0E196EB8EC55
:100258001EF017C0A8F018C0A9F00001A9AF05D07A
:100268000001A807D8A0A90700D00001A8510008DC
:10027800C4EC09F043C0A2F044C0A3F045C0A4F008
:10028800A2C01FF0A3C020F0A4C021F0B0C022F08B
:10029800B1C023F0B2C024F029EC19F01FC0A2F0BD
:1002A80020C0A3F021C0A4F0A2C011F0A3C012F096
:1002B800A4C013F0000E146E800E156E3F0E166E5D
:1002C80003EC1FF0D8B005D00001A807D8A0A907F3
:1002D80014D0A2C011F0A3C012F0A4C013F0000EF5
:1002E800146E200E156E410E166E03EC1FF0D8A08A
:1002F80004D00001A84BA92B00D00001A1BF08D051
:100308000001A1511EE10D0E0001A05DD8B019D069
:10031800B0C04DF0B1C04EF0B2C04FF00001A051D6
:10032800E0EC0EF043C050F044C051F045C052F02C
:10033800EEEC12F04DC0B0F04EC0B1F04FC0B2F0CC
:1003480000D00001A9BF08D00001A95128E10A0E78
:100358000001A85DD8B023D00001B0510001B1114F
:100368000001B211D8B477D0B0C02EF0B1C02FF0D0
:10037800B2C030F094EC1AF02E502F10301031101B
:10038800D8A469D00001A9BF66D00001A95107E12E
:10039800020E0001A85DD8B002D05DD000D0A2C086
:1003A80011F0A3C012F0A4C013F0700E146E890EE1
:1003B800156E400E166E03EC1FF0D8B003D0000186
:1003C800F70E02D00001F80EA827FF0EA92300D0CF
:1003D8000001A851C4EC09F043C0A2F044C0A3F046
:1003E80045C0A4F017D0B0C011F0B1C012F0B2C02F
:1003F80013F0A2C014F0A3C015F0A4C016F0A4EC2A
:1004080018F011C0AAF012C0ABF013C0ACF014C0C1
:10041800ADF017D0B0C011F0B1C012F0B2C013F0F7
:10042800A2C014F0A3C015F0A4C016F01CEC18F07C
:1004380011C0AAF012C0ABF013C0ACF014C0ADF0FC
:1004480000D0000E0001B06F000E0001B16F000E69
:100458000001B26F34D0B0C02EF0B1C02FF0B2C0DE
:1004680030F094EC1AF02EC0AAF02FC0ABF030C0D8
:10047800ACF031C0ADF0B0C080F0B1C081F0B2C016
:1004880082F0AAC019F0ABC01AF0ACC01BF0ADC026
:100498001CF0F6EC21F019C083F01AC084F01BC0E0
:1004A80085F04FEC23F080C0B0F081C0B1F082C07D
:1004B800B2F0000E0001A96F000EA86F00D0010E67
:1004C8000001B36F0A0E0001B319D8B422D001D0CD
:1004D80020D00001B351040DD40EF324F66EFD0EA6
:1004E800F420F76E0900F5500001AA5D0900F550E7
:1004F8000001AB590900F5500001AC590900F5504D
:100508000001AD59D8A005D001D003D00001B32B0C
:10051800D9D7B3C094F00001956B94BF950700013B
:10052800A051000194270001A15100019523000169
:10053800A851000194270001A95100019523000149
:1005480094510001A65F000195510001A75B0001CD
:10055800A0510001A111D8B405D00001A607D8A068
:10056800A70700D0030E0001AE150001946F000E1E
:100578000001AF150001956F00019451000195111C
:10058800D8B405D00001A607D8A0A70700D000015D
:10059800AEA531D0030E0001AE150001946F000E18
:1005A8000001AF150001956F0001945100019511EC
:1005B800D8B40CD02D0E63EC27F008D0300E63ECC5
:1005C80027F00001A607D8A0A70700D00001A7BF01
:1005D80077D00001A751F2E10001A605D8A070D09C
:1005E800EDD76ED008D0200E63EC27F00001A607E7
:1005F800D8A0A70700D00001A7BF07D00001A751C6
:10060800F2E10001A605D8B0EED7030E0001AE1541
:100618000001946F000E0001AF150001956F0001F5
:10062800945100019511D8B44BD02D0E63EC27F0EE
:1006380047D0AAC011F0ABC012F0ACC013F0ADC0E7
:1006480014F00001B351040DD40EF324F66EFD0E20
:10065800F420F76E0900F5CF15F00900F5CF16F074
:100668000900F5CF17F00A00F5CF18F0DCEC1FF001
:1006780011C0A2F012C0A3F013C0A4F014C0A5F0DA
:10068800A2C01EF0A3C01FF0A4C020F0A5C021F096
:100698000A0E226E000E236E000E246E000E256ECA
:1006A800EBEC20F01EC0A2F01FC0A3F020C0A4F005
:1006B80021C0A5F00001A251300F63EC27F000D053
:1006C8000001B3070001B329D8B40AD0B2D708D0C3
:1006D800300E63EC27F00001A807D8A0A90700D0C6
:1006E8000001A9BF07D00001A951F2E10001A80546
:1006F800D8B0EED70001A1BF0CD00001A15105E18F
:10070800090E0001A05DD8A004D0080E0001B36F47
:1007180003D0A0C0B3F000D00001B3510001A05F26
:10072800000E0001B3BFFF0E0001A15B0001B35131
:100738000001D8B404D02E0E63EC27F000D00001DD
:10074800B351C4EC09F043C09AF044C09BF045C0D3
:100758009CF0B0C022F0B1C023F0B2C024F09AC01F
:100768001FF09BC020F09CC021F029EC19F01FC09D
:100778002EF020C02FF021C030F094EC1AF02EC0DB
:10078800AAF02FC0ABF030C0ACF031C0ADF06ED0E5
:10079800AAC011F0ABC012F0ACC013F0ADC014F099
:1007A8000001B351040DD40EF324F66EFD0EF420AF
:1007B800F76E0900F5CF15F00900F5CF16F009001E
:1007C800F5CF17F00A00F5CF18F0DCEC1FF011C0D8
:1007D800A2F012C0A3F013C0A4F014C0A5F0A2C0E8
:1007E8001EF0A3C01FF0A4C020F0A5C021F00A0E7F
:1007F800226E000E236E000E246E000E256EEBECAA
:1008080020F01EC0A2F01FC0A3F020C0A4F021C099
:10081800A5F00001A251300F63EC27F0AAC01EF02A
:10082800ABC01FF0ACC020F0ADC021F00001B35147
:10083800040DD40EF324F66EFD0EF420F76E0900B5
:10084800F5CF22F00900F5CF23F00900F5CF24F009
:100858000A00F5CF25F0EBEC20F01EC0AAF01FC06F
:10086800ABF020C0ACF021C0ADF000D00001B30760
:100878000001B329D8B40AD08BD708D0300E63EC66
:1008880027F00001A007D8A0A10700D00001A051BF
:100898000001A111D8B4CED1F1D7CCD10001AEBF9F
:1008A80023D09EC0D9FF9FC0DAFFDECFAAF0DDCFEC
:1008B800ABF00001000EABBFFF0EAC6FAD6F020EC8
:1008C80000019E27000E9F230001ADAF78D0030ED4
:1008D8000001AE130001AD1FAC1FAB1FAA6D000EC7
:1008E800AB23AC23AD236BD09EC0D9FF9FC0DAFFEA
:1008F800DECF94F0DDCF95F094C0AAF095C0ABF0B0
:100908000001AC6BAD6B020E00019E27000E9F2309
:1009180056D0010E0001B36F0A0E0001B319D8B406
:1009280058D001D056D00001B351040DD40EF32491
:10093800F66EFD0EF420F76E0900F5500001AA5D71
:100948000900F5500001AB590900F5500001AC59F8
:100958000900F5500001AD59D8A03BD001D039D0DD
:100968000001B32BD9D735D0010E0001B36F080EA3
:100978000001B319D8B42DD001D02BD00001B35148
:10098800040D4A0EF324F66EFE0EF420F76E0900ED
:10099800F5500001AA5D0900F5500001AB590900A6
:1009A800F5500001AC590900F5500001AD59D8A027
:1009B80010D001D00ED00001B32BD9D70AD0000136
:1009C800AE51800B000AD8B4A4D7800AD8B4CCD7CB
:1009D80000D00001A6510001A711D8B415D0030E0C
:1009E8000001AE150001946F000E0001AF15000163
:1009F800956F0001945100019511D8B405D00001FC
:100A0800A607D8A0A70700D0800E0001B3BF7F0EAD
:100A18000001946F0001A6510001B35D0001A751C8
:100A2800800A00019459D8B00BD00001B3510001DD
:100A3800A65F000E0001B3BFFF0E0001A75B06D042
:100A4800000E0001A76F000EA66F00D00001AEA532
:100A580029D0030E0001AE150001946F000E0001AD
:100A6800AF150001956F0001945100019511D8B49C
:100A780004D02D0E63EC27F000D00001A651000130
:100A8800A711D8B438D0300E63EC27F00001A607C0
:100A9800D8A0A7070001A6510001A711D8B42BD0F0
:100AA800F2D729D00001A6510001A711D8B40FD060
:100AB800200E63EC27F00001A607D8A0A7070001C5
:100AC800A6510001A711D8B402D0F2D700D0030E66
:100AD8000001AE150001946F000E0001AF15000172
:100AE800956F0001945100019511D8B404D02D0ED2
:100AF80063EC27F000D00001B3510001A06FA16B97
:100B0800A0BFA1078AD07AD0A0C094F0A1C095F068
:100B18000001D890943795370001D89094379537CD
:100B2800D40E00019425F66EFD0E9521F76E09008E
:100B3800F5CF15F00900F5CF16F00900F5CF17F03D
:100B48000A00F5CF18F0AAC011F0ABC012F0ACC083
:100B580013F0ADC014F0DCEC1FF011C01EF012C091
:100B68001FF013C020F014C021F00A0E226E000EF0
:100B7800236E000E246E000E256EEBEC20F01E5046
:100B8800300F0001B36F44D0AAC011F0ABC012F00F
:100B9800ACC013F0ADC014F0A0C094F0A1C095F0A3
:100BA8000001D890943795370001D890943795373D
:100BB8004A0E00019425F66EFE0E9521F76E090087
:100BC800F5CF15F00900F5CF16F00900F5CF17F0AD
:100BD8000A00F5CF18F0DCEC1FF011500F0B0001E4
:100BE8009D6F00019D51010D500EF324F66EFF0E0E
:100BF800F420F76E0800F5CFB3F00AD00001AE512B
:100C0800800B000AD8B480D7800AD8B4BDD700D0EA
:100C18000001B35163EC27F000D00001A007D8A071
:100C2800A1070001A029EAE10001A129D8B402D056
:100C3800E5D700D086C0F6FF87C0F7FF0001864BD6
:100C4800872B0800F5CFB3F00001B351D8B403D017
:100C580016EF00F000D012000001CB05D8A48FD306
:100C680069C04AF04B6A4ABE4B064AAE29D02D0EDF
:100C78000001F86F69C04AF04B6A4ABE4B064A1E2B
:100C88004B1E4A4A4B2A4AC04CF04BC04DF07F0ECF
:100C98004C14176E186A000E1A6E0A0E196EB8EC0C
:100CA8001EF01750300F0001F96F7F0E4C143D6E87
:100CB8003E6A000E406E0A0E3F6EAAEC20F01DD070
:100CC8002B0E0001F86F6950176E186A17BE1806C8
:100CD800000E1A6E0A0E196EB8EC1EF01750300F7F
:100CE8000001F96F69503D6E3E6A3DBE3E06000E3A
:100CF800406E0A0E3F6EAAEC20F03D50300F000106
:100D0800FA6F00D06AAE41D02D0E0001DF6F6AC0C5
:100D18004AF04B6A4ABE4B064A1E4B1E4A4A4B2AA9
:100D28004AC04EF04BC04FF04EC017F04FC018F0FD
:100D3800000E1A6E640E196EB8EC1EF01750300FC4
:100D48000001E06F000E1A6E0A0E196E4EC017F001
:100D58004FC018F0B8EC1EF017C03DF018C03EF0B8
:100D6800000E406E0A0E3F6EAAEC20F03D50300F88
:100D78000001E16F4EC03DF04FC03EF0000E406EE6
:100D88000A0E3F6EAAEC20F036D02B0E0001DF6F62
:100D98006A50176E186A17BE1806000E1A6E640E8F
:100DA800196EB8EC1EF01750300F0001E06F000EFE
:100DB8001A6E0A0E196E6A50176E186A17BE180650
:100DC800B8EC1EF017C03DF018C03EF0000E406EA3
:100DD8000A0E3F6EAAEC20F03D50300F0001E16F83
:100DE8006A503D6E3E6A3DBE3E06000E406E0A0EDB
:100DF8003F6EAAEC20F03D50300F0001E26F00D0AA
:100E080064380F0B300F01016E6F64500F0B300FF9
:100E180001016F6F65380F0B300F0101716F65505D
:100E28000F0B300F0101726F67380F0B300F010184
:100E3800746F67500F0B300F0101756F66380F0B19
:100E4800300F0101536F66500F0B300F0101546FC3
:100E580061380F0B300F0101566F61500F0B300FC7
:100E68000101576F6B380F0B300F0101596F6B5031
:100E78000F0B300F01015A6F5E50D8A40BD0F00E43
:100E8800116E000E126EB40E136EFF0E146EA2ECED
:100E980024F02CD05E04D8A40BD0F00E116E000EF6
:100EA800126EE60E136EFF0E146EA2EC24F01ED026
:100EB800020E5E18D8A40BD0F00E116E000E126E42
:100EC800EA0E136EFF0E146EA2EC24F00FD0030E80
:100ED8005E18D8A40BD0F00E116E000E126EEE0E36
:100EE800136EFF0E146EA2EC24F000D05FC017F052
:100EF800186A000E1A6E640E196EB8EC1EF01750C0
:100F0800300F0001F46F000E1A6E0A0E196E5FC0E2
:100F180017F0186AB8EC1EF017C03DF018C03EF084
:100F2800000E406E0A0E3F6EAAEC20F03D50300FC6
:100F38000001F56F5FC03DF03E6A000E406E0A0E7C
:100F48003F6EAAEC20F03D50300F0001F66FDCC078
:100F580017F0186A000E1A6E640E196EB8EC1EF0BF
:100F68001750300F0001EC6F000E1A6E0A0E196E42
:100F7800DCC017F0186AB8EC1EF017C03DF018C0B6
:100F88003EF0000E406E0A0E3F6EAAEC20F03D5077
:100F9800300F0001ED6FDCC03DF03E6A000E406E80
:100FA8000A0E3F6EAAEC20F03D50300F0001EE6FA4
:100FB8000001C405D8A40BD07D0E116E010E126E6F
:100FC800CE0E136EFF0E146EA2EC24F00BD07D0E25
:100FD800116E010E126ED30E136EFF0E146EA2EC7C
:100FE80024F000D00001C305D8A40BD0E80E116E80
:100FF800000E126EE20E136EFF0E146EA2EC24F0B9
:101008000BD0E80E116E000E126EB40E136EFF0EAA
:10101800146EA2EC24F000D062C017F0186A000E1B
:101028001A6E640E196EB8EC1EF01750300F0001DE
:10103800E46F000E1A6E0A0E196E62C017F0186A75
:10104800B8EC1EF017C03DF018C03EF0000E406E20
:101058000A0E3F6EAAEC20F03D50300F0001E56FFC
:1010680062C03DF03E6A000E406E0A0E3F6EAAEC6A
:1010780020F03D50300F0001E66FB8C02EF0B9C027
:101088002FF0BAC030F094EC1AF02E50300F010156
:10109800776F000E226E200E236E410E246EB8C0AC
:1010A8001FF0B9C020F0BAC021F029EC19F01FC018
:1010B8002EF020C02FF021C030F094EC1AF02EC092
:1010C8003DF02FC03EF0000E406E0A0E3F6EAAECB7
:1010D80020F03D50300F0101796F000E226EC80ECE
:1010E800236E420E246EB8C01FF0B9C020F0BAC0FB
:1010F80021F029EC19F01FC02EF020C02FF021C0DC
:1011080030F094EC1AF02EC03DF02FC03EF0000EE7
:10111800406E0A0E3F6EAAEC20F03D50300F0101E0
:101128007A6F5AC017F05BC018F0030E1A6EE80EFB
:10113800196EB8EC1EF01750300F0101826F000EC7
:101148001A6E640E196E5AC017F05BC018F0B8EC2E
:101158001EF017C03DF018C03EF0000E406E0A0E9B
:101168003F6EAAEC20F03D50300F0101836F000E56
:101178001A6E0A0E196E5AC017F05BC018F0B8EC58
:101188001EF017C03DF018C03EF0000E406E0A0E6B
:101198003F6EAAEC20F03D50300F0101846F5AC019
:1011A8003DF05BC03EF0000E406E0A0E3F6EAAECAA
:1011B80020F03D50300F0101856F170E396EF80E83
:1011C8003A6E000E3B6EFF0E3D6EE00E3C6E000E5A
:1011D8003F6E000E3E6E020E406E010E07EC1BF0D5
:1011E800170E396EDF0E3A6E000E3B6EFF0E3D6E27
:1011F800E00E3C6E000E3F6E000E3E6E020E406E1C
:101208003C0E07EC1BF0340E396E6E0E3A6E010E72
:101218003B6E070E3D6E3C68000E3F6E000E3E6E44
:10122800020E406E0F0E07EC1BF0520E396E530E75
:101238003A6E010E3B6E070E3D6EE00E3C6E000EE0
:101248003F6E000E3E6E020E406E0F0E07EC1BF056
:101258006E0E396EF00E3A6E000E3B6E070E3D6E46
:101268003C68000E3F6E000E3E6E010E406E190E79
:1012780007EC1BF06E0E396EF40E3A6E000E3B6EE4
:10128800070E3D6E3C68000E3F6E000E3E6E010E6E
:10129800406E5A0E07EC1BF0820E396EEC0E3A6E59
:1012A800000E3B6EF80E3D6E000E3C6E000E3F6E5B
:1012B800000E3E6E010E406E230E07EC1BF0820EF0
:1012C800396E7D0E3A6E010E3B6EF80E3D6E000EC5
:1012D8003C6E000E3F6E000E3E6E010E406E4B0ED1
:1012E80007EC1BF0820E396EE80E3A6E000E3B6E6C
:1012F800F80E3D6E000E3C6E000E3F6E000E3E6E08
:10130800010E406E690E07EC1BF0960E396EE40E66
:101318003A6E000E3B6E070E3D6EE00E3C6E000E00
:101328003F6E000E3E6E010E406E0A0E07EC1BF07B
:10133800960E396E770E3A6E010E3B6E070E3D6EB5
:10134800E00E3C6E000E3F6E000E3E6E010E406ECB
:10135800320E07EC1BF0960E396E820E3A6E010EB5
:101368003B6E070E3D6EE00E3C6E000E3F6E000EAB
:101378003E6E010E406E5D0E07EC1BF000D01200B1
:10138800496E49AEEFD0496C4950800A120FD8A077
:101398008DD0000E146E030E136E000E1A6E0A0E18
:1013A800196E000E406E640E3F6E49503D6E3E6AE7
:1013B8003DBE3E06AAEC20F03DC017F03EC018F036
:1013C800B8EC1EF0090E1724116E000E1820126ECC
:1013D8006CEC25F0FC0E1124F66EFD0E1220F76E53
:1013E8000900F5CF22F00900F5CF23F00A00F5CF68
:1013F80024F0000E1A6E640E196E4950176E186AA2
:1014080017BE1806B8EC1EF0120E1724116E000E47
:101418001820126E000E146E030E136E6CEC25F07D
:10142800FC0E1124F66EFD0E1220F76E0900F5CFA2
:101438001FF00900F5CF20F00A00F5CF21F029ECC4
:1014480019F01FC046F020C047F021C048F046C040
:101458001FF047C020F048C021F0000E146E030EA4
:10146800136E000E406E0A0E3F6E49503D6E3E6A86
:101478003DBE3E06AAEC20F03DC011F03EC012F081
:101488006CEC25F0FC0E1124F66EFD0E1220F76EA2
:101498000900F5CF22F00900F5CF23F00A00F5CFB7
:1014A80024F029EC19F041D15AD154D04950800A7E
:1014B800750FD8A04FD0000E1A6E0A0E196E49503B
:1014C800176E186A17BE1806B8EC1EF0090E172416
:1014D800116E000E1820126E000E146E030E136E9D
:1014E8006CEC25F0FC0E1124F66EFD0E1220F76E42
:1014F8000900F5CF1FF00900F5CF20F00A00F5CF5D
:1015080021F0000E146E030E136E000E406E0A0ECC
:101518003F6E49503D6E3E6A3DBE3E06AAEC20F045
:101528003DC011F03EC012F06CEC25F0FC0E112409
:10153800F66EFD0E1220F76E0900F5CF22F00900B5
:10154800F5CF23F00A00F5CF24F029EC19F0EDD0FF
:1015580006D100D04950030DFC0EF324F66EFD0EA3
:10156800F2D0FDD04950800A120FD8A08DD0000EBD
:10157800146E030E136E000E1A6E0A0E196E000E0C
:10158800406E640E3F6E49503D6E3E6A3DBE3E065B
:10159800AAEC20F03DC017F03EC018F0B8EC1EF0E1
:1015A800090E1724116E000E1820126E6CEC25F02F
:1015B800230E1124F66EFE0E1220F76E0900F5CFE9
:1015C80022F00900F5CF23F00A00F5CF24F0000E31
:1015D8001A6E640E196E4950176E186A17BE1806EF
:1015E800B8EC1EF0120E1724116E000E1820126EA1
:1015F800000E146E030E136E6CEC25F0230E1124EE
:10160800F66EFE0E1220F76E0900F5CF1FF00900E6
:10161800F5CF20F00A00F5CF21F029EC19F01FC012
:1016280046F020C047F021C048F046C01FF047C030
:1016380020F048C021F0000E146E030E136E000E49
:10164800406E0A0E3F6E49503D6E3E6A3DBE3E06F4
:10165800AAEC20F03DC011F03EC012F06CEC25F071
:10166800230E1124F66EFE0E1220F76E0900F5CF38
:1016780022F00900F5CF23F00A00F5CF24F029EC79
:1016880019F053D06CD059D04950800A750FD8A0A2
:1016980054D0000E1A6E0A0E196E4950176E186A49
:1016A80017BE1806B8EC1EF0090E1724116E000EAE
:1016B8001820126E000E146E030E136E6CEC25F0DB
:1016C800230E1124F66EFE0E1220F76E0900F5CFD8
:1016D8001FF00900F5CF20F00A00F5CF21F0000E29
:1016E800146E030E136E000E406E0A0E3F6E4950C4
:1016F8003D6E3E6A3DBE3E06AAEC20F03DC011F0AC
:101708003EC012F06CEC25F0230E1124F66EFE0E8E
:101718001220F76E0900F5CF22F00900F5CF23F06B
:101728000A00F5CF24F029EC19F01FC043F020C0BF
:1017380044F021C045F013D000D04950030D230ECA
:10174800F324F66EFE0EF420F76E0900F5CF43F091
:101758000900F5CF44F00A00F5CF45F000D012009B
:1017680004EC27F0EBEC24F0000E256E000E246E3E
:101778004FEC26F005D0530E0101486F500E04D0EF
:10178800460E0101486F410E0101496F320E0101F9
:101798004A6F350E01014B6F320E01014D6F300E4D
:1017A80001014F6F320E0101506F0001CB05D8A423
:1017B80089D1010E396E3C0E3A6E010E3B6EFF0E5A
:1017C8003D6E3C68000E3F6E000E3E6E010E406E90
:1017D800010E07EC1BF05CC011F05DC012F0700E3A
:1017E800136EFF0E146EA2EC24F00B0E396E5CC063
:1017F8003AF05DC03BF0F80E3D6E1F0E3C6E000ED9
:101808003F6E000E3E6E010E406E180E07EC1BF088
:101818005CC011F05DC012F0F60E136EFF0E146E70
:10182800A2EC24F0170E396E5CC03AF05DC03BF0B4
:10183800FF0E3D6EE00E3C6E000E3F6E000E3E6EDB
:10184800020E406E260E07EC1BF05CC011F05DC066
:1018580012F0130E136EFF0E146EA2EC24F0170E86
:10186800396E5CC03AF05DC03BF0FF0E3D6EE00E95
:101878003C6E000E3F6E000E3E6E020E406E6E0E07
:1018880007EC1BF05CC011F05DC012F0C90E136EBE
:10189800FF0E146EA2EC24F0280E396E5CC03AF0EC
:1018A8005DC03BF0000E3D6E1F0E3C6E000E3F6E9D
:1018B800000E3E6E010E406E320E07EC1BF05CC04F
:1018C80011F05DC012F0D80E136EFF0E146EA2EC6C
:1018D80024F0470E396E5CC03AF05DC03BF0F80E5C
:1018E8003D6E000E3C6E000E3F6E000E3E6E010E09
:1018F800406E320E07EC1BF05CC011F05DC012F0B8
:10190800B80E136EFF0E146EA2EC24F0640E396E3E
:101918005CC03AF05DC03BF0FF0E3D6EE00E3C6EE1
:10192800000E3F6E000E3E6E010E406E010E07EC7B
:101938001BF05CC011F05DC012F0C30E136EFF0EF9
:10194800146EA2EC24F0640E396E5CC03AF05DC0EF
:101958003BF0FF0E3D6EE00E3C6E000E3F6E000E3B
:101968003E6E010E406E410E07EC1BF05CC011F09C
:101978005DC012F0950E136EFF0E146EA2EC24F0EB
:10198800780E396E5CC03AF05DC03BF0000E3D6EDB
:101998001F0E3C6E000E3F6E000E3E6E010E406E36
:1019A800060E07EC1BF05CC011F05DC012F0BE0E15
:1019B800136EFF0E146EA2EC24F0780E396E5CC024
:1019C8003AF05DC03BF0000E3D6E1F0E3C6E000EFF
:1019D8003F6E000E3E6E010E406E4B0E07EC1BF084
:1019E8005CC011F05DC012F0FC0E136EFF0E146E99
:1019F800A2EC24F0780E396E5CC03AF05DC03BF082
:101A0800000E3D6E1F0E3C6E000E3F6E000E3E6EC9
:101A1800010E406E690E07EC1BF05CC011F05DC052
:101A280012F0F90E136EFF0E146EA2EC24F08C0E59
:101A3800396E5CC03AF05DC03BF0FF0E3D6E3C680D
:101A4800000E3F6E000E3E6E010E406E0C0E07EC4F
:101A58001BF05CC011F05DC012F0DD0E136EFF0EBE
:101A6800146EA2EC24F08C0E396E5CC03AF05DC0A6
:101A78003BF0FF0E3D6E3C68000E3F6E000E3E6E62
:101A8800010E406E320E07EC1BF05CC011F05DC019
:101A980012F0F20E136EFF0E146EA2EC24F08C0EF0
:101AA800396E5CC03AF05DC03BF0FF0E3D6E3C689D
:101AB800000E3F6E000E3E6E010E406E5F0E07EC8C
:101AC8001BF01ED05CC011F05DC012F0AD0E136E9D
:101AD800FF0E146EA2EC24F0500E396E5CC03AF082
:101AE8005DC03BF0F80E3D6E1F0E3C6E000E3F6E63
:101AF800000E3E6E020E406E050E07EC1BF000D085
:101B0800120026EC22F0B4EC0BF0000EB26E030EBD
:101B1800B16E0001DD6900D092EC21F06750000140
:101B2800DD19D8B4A8D067C0DDF008EC24F01FC0D8
:101B38005AF020C05BF0000E5BEC21F03DC0B8F01D
:101B48003EC0B9F03FC0BAF0000E116E400E126EE2
:101B5800400E136EB8C014F0B9C015F0BAC016F034
:101B680003EC1FF0D8B004D0010E0001D26F00D0F2
:101B7800E6EC23F01450696E6950116E126A11BEBA
:101B88001206000E146E090E136E6CEC25F011C0CF
:101B980017F012C018F0000E1A6E050E196EB8EC88
:101BA8001EF01750200F6A6E625027EC23F05AC0BF
:101BB8001FF05BC020F077EC23F05E50FFEC22F0C2
:101BC8006A0E0001866FFE0E0001876F64C088F000
:101BD8000001896B65C08AF000018B6B67C08CF0CF
:101BE80000018D6B66C08EF000018F6B61C090F0B4
:101BF8000001916B6BC092F00001936B0EEC00F04A
:101C0800EC0E0001866FFE0E0001876F695000011F
:101C1800886F896B88BF89076A5000018A6F8B6B50
:101C28008ABF8B070EEC00F0150E0001866FFF0EC1
:101C38000001876FB8C088F0B9C089F0BAC08AF0CF
:101C48000EEC00F0880E0001866FFE0E0001876F13
:101C58005AC088F05BC089F062C08AF000018B6BC3
:101C6800D2C08CF000018D6B0EEC00F0D6EC22F0A7
:101C780030EC06F000D0CBEC1DF0E806D8A463D019
:101C88000001CB05D8A45FD0A10E0001866FFF0E1E
:101C98000001876F63C088F00001896B0EEC00F0CB
:101CA800000E0001BC6F000EBB6F32D06BEC26F04B
:101CB80002EC10F048D06BEC26F01BEC11F043D08E
:101CC8006BEC26F057EC25F03ED06BEC26F042EC9E
:101CD80025F039D06BEC26F0B0EC26F034D06BEC64
:101CE80026F093EC25F02FD06BEC26F0BBEC24F01B
:101CF8002AD06BEC26F00001C405D8A402D0000E4F
:101D080001D0010E0001C46F1ED079EC26F01BD063
:101D18006350000AD8B4CAD7020AD8B4CCD7010A8B
:101D2800D8B4CED7070AD8B4D0D7010AD8B4D2D7F6
:101D3800030AD8B4D4D7010AD8B4D6D70F0AD8B46E
:101D4800D8D7E3D700D00001C605D8B404D0000125
:101D5800D205D8A4E1D6000E0001C66F000E00011E
:101D6800D26F0001CB05D8A417D0A50E0001866F4D
:101D7800FE0E0001876F0EEC00F0000E0001CB6F25
:101D8800000E0001C36F83928394000E5E6E000EF6
:101D98005F6EB4EC0BF0C0D6BE0E0001866FFE0E6F
:101DA8000001876F0EEC00F0010E0001CB6FB4EC60
:101DB8000BF0B2D60CEF00F04C6E6D0E4C649BD05D
:101DC800000E146E030E136E000E1A6E0A0E196EB4
:101DD800000E406E640E3F6E4CC03DF03E6AAAECA9
:101DE80020F03DC017F03EC018F0B8EC1EF0090E08
:101DF8001724116E000E1820126E6CEC25F0FC0EE4
:101E08001124F66EFD0E1220F76E0900F5CF22F0B0
:101E18000900F5CF23F00A00F5CF24F0000E1A6E62
:101E2800640E196E4CC017F0186AB8EC1EF0120E4A
:101E38001724116E000E1820126E000E146E030E79
:101E4800136E6CEC25F0FC0E1124F66EFD0E1220BC
:101E5800F76E0900F5CF1FF00900F5CF20F00A0052
:101E6800F5CF21F029EC19F01FC049F020C04AF045
:101E780021C04BF0000E146E030E136E000E406E60
:101E88000A0E3F6E4CC03DF03E6AAAEC20F03DC001
:101E980011F03EC012F06CEC25F0FC0E1124F66E29
:101EA800FD0E1220F76E0900F5CF22F00900F5CFDC
:101EB80023F00A00F5CF24F049C01FF04AC020F0F3
:101EC8004BC021F029EC19F01FC046F020C047F0A4
:101ED80021C048F046C01FF047C020F048C021F09C
:101EE800000E226E000E236E3F0E246E29EC19F0B0
:101EF8007DD083D062D00A0E4C645FD0000E146E81
:101F0800030E136E000E406E0A0E3F6E4CC03DF07D
:101F18003E6AAAEC20F03DC011F03EC012F06CEC15
:101F280025F0FC0E1124F66EFD0E1220F76E090046
:101F3800F5CF22F00900F5CF23F00A00F5CF24F001
:101F4800000E1A6E0A0E196E4CC017F0186AB8EC1B
:101F58001EF0090E1724116E000E1820126E000EC6
:101F6800146E030E136E6CEC25F0FC0E1124F66E45
:101F7800FD0E1220F76E0900F5CF1FF00900F5CF0E
:101F880020F00A00F5CF21F029EC19F01FC049F024
:101F980020C04AF021C04BF049C01FF04AC020F0D1
:101FA8004BC021F0000E226E000E236E3F0E246EF1
:101FB80029EC19F01BD021D000D04C50030DFC0E99
:101FC800F324F66EFD0EF420F76E0900F5CF1FF02E
:101FD8000900F5CF20F00A00F5CF21F0000E226E9F
:101FE800000E236E3F0E246E29EC19F01FC043F03B
:101FF80020C044F021C045F000D01200000E0001BE
:10200800CD6F92EC21F067502DEC25F00001D86FD0
:1020180065502DEC25F00001D66F64502DEC25F0AD
:102028000001D56F61502DEC25F00001D46F66508A
:102038002DEC25F00001D76F6B502DEC25F0000139
:10204800D96FF4EC16F087EC15F0010E0001C96F9A
:10205800E9D092EC21F067500001DD19D8B4A6D080
:1020680067C0DDF008EC24F01FC05AF020C05BF018
:10207800000E5BEC21F03DC0B8F03EC0B9F03FC0A7
:10208800BAF0000E116E400E126E400E136EB8C0FC
:1020980014F0B9C015F0BAC016F003EC1FF0D8B0B0
:1020A80004D0010E0001D26F00D0E6EC23F01450EA
:1020B800696E6950116E126A11BE1206000E146E16
:1020C800090E136E6CEC25F011C017F012C018F051
:1020D800000E1A6E050E196EB8EC1EF01750200F80
:1020E8006A6E625027EC23F05AC01FF05BC020F0E4
:1020F80077EC23F05E50FFEC22F06A0E0001866F49
:10210800FE0E0001876F64C088F00001896B65C00E
:102118008AF000018B6B67C08CF000018D6B66C084
:102128008EF000018F6B61C090F00001916B6BC065
:1021380092F00001936B0EEC00F0EC0E0001866F3C
:10214800FE0E0001876F69500001886F896B88BF98
:1021580089076A5000018A6F8B6B8ABF8B070EEC68
:1021680000F0150E0001866FFF0E0001876FB8C0E2
:1021780088F0B9C089F0BAC08AF00EEC00F0880E79
:102188000001866FFE0E0001876F5AC088F05BC0A1
:1021980089F062C08AF000018B6BD2C08CF000011C
:1021A8008D6B0EEC00F0D6EC22F000D0CBEC1DF0DD
:1021B800E806D8A437D0020E636431D0090E6360F4
:1021C8002ED06BEC26F0030E6318D8A403D010ECC5
:1021D80026F000D0040E6318D8A403D020EC26F013
:1021E80000D0050E6318D8A403D0E6EC26F000D082
:1021F800080E6318D8A403D04BEC27F000D0060EC5
:102208006318D8A403D015EC1DF000D0070E63188E
:10221800D8A403D0BAEC1CF000D0636803D079ECE2
:1022280026F000D00001C905D8B413D71200010E5A
:102238000001C86FDCC068F01EEC1AF06DEC1EF0EF
:10224800DED092EC21F067500001DD19D8B4A4D09B
:1022580067C0DDF008EC24F01FC05AF020C05BF026
:10226800000E5BEC21F03DC0B8F03EC0B9F03FC0B5
:10227800BAF0000E116E400E126E400E136EB8C00A
:1022880014F0B9C015F0BAC016F003EC1FF0D8B0BE
:1022980004D0010E0001D26F00D0E6EC23F01450F8
:1022A800696E6950116E126A11BE1206000E146E24
:1022B800090E136E6CEC25F011C017F012C018F05F
:1022C800000E1A6E050E196EB8EC1EF01750200F8E
:1022D8006A6E625027EC23F05AC01FF05BC020F0F2
:1022E80077EC23F05F50FFEC22F06A0E0001866F56
:1022F800FE0E0001876F64C088F00001896B65C01D
:102308008AF000018B6B67C08CF000018D6B66C092
:102318008EF000018F6B61C090F00001916B6BC073
:1023280092F00001936B0EEC00F0010E0001866F35
:10233800FF0E0001876F69500001886F896B88BFA5
:1023480089076A5000018A6F8B6B8ABF8B070EEC76
:1023580000F0150E0001866FFF0E0001876FB8C0F0
:1023680088F0B9C089F0BAC08AF00EEC00F0880E87
:102378000001866FFE0E0001876F5AC088F05BC0AF
:1023880089F062C08AF000018B6BD2C08CF000012A
:102398008D6B0EEC00F000D0CBEC1DF0E806D8A455
:1023A8002ED0000E0001BC6F000EBB6F040E6364DC
:1023B80023D0090E636020D06BEC26F0050E63185D
:1023C800D8A403D0DCEC26F000D0080E6318D8A4FB
:1023D80003D043EC27F000D0070E6318D8A403D02D
:1023E800BBEC26F000D0060E6318D8A403D0C6ECC8
:1023F80026F000D0636803D079EC26F000D0000105
:10240800C805D8B41ED71200F2926050D8B4D0D004
:10241800CE50CFCF01F0026A01C002F0016A01106C
:102428000001BD6F02500001BE6F000ECF6E000E9E
:10243800CE6EBED0000ECF6E000ECE6E9E90900E69
:10244800CD6ECD80000E0001CF6F000E0001B46F7D
:10245800000EB56F000EB66F000EB76F010E606EFE
:1024680060C084FFA3D0B5D0340E0001BD5D210E3D
:102478000001BE59D8A00BD01D0E0001BD5D250E70
:102488000001BE59D8B003D0020E606E2DD098EC72
:1024980027F030D02FD09DD0A00E0001BD5D0F0ECB
:1024A8000001BE59D8A082D0890E0001BD5D130E6F
:1024B8000001BE59D8B07AD0030E606E60C084FFA8
:1024C80075D074D0900E0001BD5D010E0001BE599B
:1024D800D8A00DD0BD0E0001BD5D020E0001BE5991
:1024E800D8B005D0040ED1D760C084FF03D098ECD3
:1024F80027F000D0F19C6DD0900E0001BD5D010E5B
:102508000001BE59D8A04FD0090E0001BD5D070ECD
:102518000001BE59D8B047D0D8900001B4350001A9
:10252800B46F0001B5350001B56F0001B635000183
:10253800B66F0001B7350001B76FE90E0001BD5D48
:10254800030E0001BE59D8A014D0010E0001B42515
:102558000001B46F000E0001B5210001B56F000E37
:102568000001B6210001B66F000E0001B72100017D
:10257800B76F0001CF290001CF6F1F0E0001CF6593
:102588000DD0B5C0CAF0000E606E60C084FF000EAA
:102598000001BC6F010EBB6FF29808D0030E606E8D
:1025A80060C084FF03D098EC27F000D0F18C11D0E4
:1025B8006050000AD8B43ED7010AD8B455D7030AE8
:1025C800D8B46AD7010AD8B47DD7070AD8B494D743
:1025D80000D012004FC053F0546A556A4E34533637
:1025E80001E354805350586E52C053F0546A556AF0
:1025F8005134533601E354805350576E5850D8B471
:102608000BD05750585CD8B00ED0585000085724FB
:10261800536E180E536407D050C04DF051C04EF0A1
:1026280052C04FF0B8D05750D8B40BD05850575C60
:10263800D8B00ED0575000085824536E180E536463
:1026480007D04DC04DF04EC04EF04FC04FF0A3D054
:10265800060E566E4FAE02D0568E00D052BE568C25
:102668004E8EFF0E4D16FF0E4E16000E4F16518E53
:10267800FF0E5016FF0E5116000E52165750585C9A
:10268800D8B01ED0D89050365136523657065850CA
:102698005718D8B40FD0560656C053F0070E531625
:1026A800D8B408D0EFD706D0D8904F324E324D323A
:1026B800582A00D057505818D8B424D0F5D722D06B
:1026C8005850575CD8B01ED0D8904D364E364F363D
:1026D800580658505718D8B40FD0560656C053F05D
:1026E800070E5316D8B408D0EFD706D0D890523278
:1026F80051325032572A00D057505818D8B402D007
:10270800F5D700D056AE0CD0FF0E4D1AFF0E4E1A5C
:10271800FF0E4F1A010E4D26000E4E22000E4F22BC
:1027280056AC0DD0FF0E501AFF0E511AFF0E521A5A
:10273800010E5026000E5122000E522200D0000E2B
:10274800566E4D5050264E5051224F50522252AE86
:102758000FD0FF0E501AFF0E511AFF0E521A010E1B
:102768005026000E5122000E5222010E566E00D045
:1027780050C011F051C012F052C013F058C014F0FC
:1027880056C015F057EC1CF011C04DF012C04EF0B9
:1027980013C04FF000D012002E6E240E306E1E0EA5
:1027A8002F6EC2D02F50440F236E190E246E020EC6
:1027B800256E000E276E000E266E3050020DF35067
:1027C8000E0F9DEC23F0440E236E190E246E020E9C
:1027D800256E000E276E000E266E3050020DF35047
:1027E8000E0F9DEC23F0440E236E190E246E020E7C
:1027F800256E070E276E26680E0E9DEC23F0A8D0D6
:10280800440E236E190E246E020E256E000E276EDE
:10281800000E266E0E0E9DEC23F0440E236E190E4C
:10282800246E020E256E070E276E266830500E0F96
:102838009DEC23F08DD0440E236E190E246E020EEB
:10284800256E000E276E000E266E30500E0F9DEC82
:1028580023F0440E236E190E246E020E256E070E09
:10286800276E26683050020DF3500E0F9DEC23F0B2
:102878006FD0440E236E190E246E020E256E000EC4
:10288800276E000E266E3050020DF3500E0F9DEC91
:1028980023F02F50440F236E190E246E020E256E5E
:1028A800070E276E26680E0E9DEC23F051D02F5090
:1028B800440F236E190E246E020E256E000E276E2D
:1028C800000E266E0E0E9DEC23F02F50440F236E43
:1028D800190E246E020E256E070E276E26683050DC
:1028E8000E0F9DEC23F034D02F50440F236E190E99
:1028F800246E020E256E000E276E000E266E3050D6
:102908000E0F9DEC23F02F50440F236E190E246EEA
:10291800020E256E070E276E26683050020DF35002
:102928000E0F9DEC23F014D02E50000AD8B43AD7DD
:10293800010AD8B465D7030AD8B47DD7010AD8B438
:1029480098D7070AD8B4B3D7010AD8B4CDD700D0DE
:1029580012002E6E240E306E1E0E2F6EBFD0440E47
:10296800236E190E246E020E256E000E276E000EC1
:10297800266E30500E0F9DEC23F0440E236E190E78
:10298800246E020E256E070E276E26680E0E9DEC2D
:1029980023F0B8D0440E236E190E246E020E256E55
:1029A800000E276E000E266E3050020DF3500E0FEB
:1029B8009DEC23F0440E236E190E246E020E256E34
:1029C800070E276E266830500E0F9DEC23F09AD024
:1029D800440E236E190E246E020E256E000E276E0D
:1029E800000E266E0E0E9DEC23F02F50440F236E22
:1029F800190E246E020E256E000E276E000E266E2E
:102A08000E0E9DEC23F0440E236E190E246E020E5A
:102A1800256E070E276E26683050020DF3500E0FF4
:102A28009DEC23F06FD02F50440F236E190E246EA7
:102A3800020E256E000E276E000E266E30500E0F09
:102A48009DEC23F02F50440F236E190E246E020EB6
:102A5800256E070E276E26680E0E9DEC23F052D0C9
:102A68002F50440F236E190E246E020E256E000E91
:102A7800276E000E266E3050020DF3500E0F9DEC9F
:102A880023F02F50440F236E190E246E020E256E6C
:102A9800070E276E266830500E0F9DEC23F032D0BB
:102AA800440E236E190E246E020E256E000E276E3C
:102AB800000E266E0E0E9DEC23F02F50440F236E51
:102AC800190E246E020E256E070E276E26683050EA
:102AD800020DF3500E0F9DEC23F014D02E50000A77
:102AE800D8B43DD7010AD8B455D7030AD8B470D79B
:102AF800010AD8B498D7070AD8B4B2D7010AD8B40B
:102B0800CFD700D01200D5C017F0186A000E1A6E81
:102B18000A0E196EB8EC1EF01750300F0101656FE0
:102B2800D5C03DF03E6A000E406E0A0E3F6EAAEC1C
:102B380020F03D50300F0101666FD6C017F0186ABB
:102B4800000E1A6E0A0E196EB8EC1EF01750300FF0
:102B58000101686FD6C03DF03E6A000E406E0A0E55
:102B68003F6EAAEC20F03D50300F0101696FD8C0CC
:102B780017F0186A000E1A6E0A0E196EB8EC1EF0DD
:102B88001750300F01016B6FD8C03DF03E6A000E40
:102B9800406E0A0E3F6EAAEC20F03D50300F010146
:102BA8006C6FD7C017F0186A000E1A6E0A0E196EED
:102BB800B8EC1EF01750300F01015C6FD7C03DF024
:102BC8003E6A000E406E0A0E3F6EAAEC20F03D50A1
:102BD800300F01015D6FD4C017F0186A000E1A6E2D
:102BE8000A0E196EB8EC1EF01750300F01015F6F16
:102BF800D4C03DF03E6A000E406E0A0E3F6EAAEC4D
:102C080020F03D50300F0101606FD9C017F0186AED
:102C1800000E1A6E0A0E196EB8EC1EF01750300F1F
:102C28000101626FD9C03DF03E6A000E406E0A0E87
:102C38003F6EAAEC20F03D50300F0101636F340E57
:102C4800396E650E3A6E010E3B6E070E3D6E3C689E
:102C5800000E3F6E000E3E6E020E406E0F0E07EC29
:102C68001BF0520E396E5C0E3A6E010E3B6E070E6B
:102C78003D6EE00E3C6E000E3F6E000E3E6E020E84
:102C8800406E0F0E07EC1BF01200366E800E366099
:102C9800A6D09F0E2E6401D0A2D03450D8A403D061
:102CA800010E346E00D01F0E2F6404D07E0E2F64E8
:102CB80003D000D03F0E2F6E000E386E040E38641D
:102CC80001D08DD0530E2F6015D0E00E2F24116E39
:102CD800126AFF0E1222000E146E050E136E6CECB3
:102CE80025F038501126000E1222F90E1124F66E26
:102CF800FB0E14D0AD0E2F24116E126AFF0E122295
:102D0800000E146E050E136E6CEC25F0385011266B
:102D1800000E1222F80E1124F66EFC0E1220F76E29
:102D28000800F5CF35F000D0000E376E060E376478
:102D380001D053D035A023D03404D8A40CD02E50C1
:102D48003724186E30C019F031C01AF036503824C4
:102D5800D3EC24F03ED037503402F3502E24236EA7
:102D680034C024F034C025F030C026F031C027F03C
:102D780038503402F35036249DEC23F02AD03050DA
:102D8800321804E131503318D8B423D03404D8A40D
:102D98000CD02E503724186E32C019F033C01AF0F8
:102DA80036503824D3EC24F014D037503402F35082
:102DB8002E24236E34C024F034C025F032C026F00F
:102DC80033C027F038503402F35036249DEC23F0FA
:102DD80000D0372AD8903532A9D7382A6FD71200B1
:102DE80004EC27F0EBEC24F0000E256E000E246EA8
:102DF8004FEC26F005D0530E0101486F500E04D059
:102E0800460E0101486F410E0101496F320E010162
:102E18004A6F350E01014B6F320E01014D6F300EB6
:102E280001014F6F320E0101506F0001CB05D8A48C
:102E380076D0010E396E3C0E3A6E010E3B6EFF0ED7
:102E48003D6E3C68000E3F6E000E3E6E010E406EF9
:102E5800010E07EC1BF05CC011F05DC012F07D0E96
:102E6800136EFF0E146EA2EC24F0100E396E5CC0C7
:102E78003AF05DC03BF0F80E3D6E1F0E3C6E000E42
:102E88003F6E000E3E6E020E406E040E07EC1BF005
:102E98005CC011F05DC012F0C90E136EFF0E146E07
:102EA800A2EC24F0280E396E5CC03AF05DC03BF00D
:102EB800000E3D6E1F0E3C6E000E3F6E000E3E6E05
:102EC800010E406E320E07EC1BF0440E236E190EF5
:102ED800246E020E256E070E276E26680E0E9DECD8
:102EE80023F05CC011F05DC012F0D80E136EFF0E17
:102EF800146EA2EC24F0470E396E5CC03AF05DC047
:102F08003BF0F80E3D6E000E3C6E000E3F6E000E5C
:102F18003E6E010E406E320E07EC1BF000D0120020
:102F2800010E5BEC27F0000E186E960E176E80EC03
:102F380022F0110E5BEC27F0010E186EF40E176EDE
:102F480080EC22F0B10E5BEC27F0010E53EC27F079
:102F58002C0E53EC27F02D0E53EC27F0B20E5BEC41
:102F680027F0010E53EC27F02C0E53EC27F02D0E12
:102F780053EC27F0B30E5BEC27F0010E53EC27F06F
:102F88002C0E53EC27F02D0E53EC27F0010E53ECCA
:102F980027F02C0E53EC27F02D0E53EC27F0B40E2F
:102FA8005BEC27F0070E53EC27F0C00E5BEC27F024
:102FB800A20E53EC27F0020E53EC27F0840E53ECCC
:102FC80027F0C10E5BEC27F0C50E53EC27F0C20EBC
:102FD8005BEC27F00A0E53EC27F0000E53EC27F0B9
:102FE800C30E5BEC27F08A0E53EC27F02A0E53EC45
:102FF80027F0C40E5BEC27F08A0E53EC27F0EE0E98
:1030080053EC27F0C50E5BEC27F00E0E53EC27F0BF
:10301800200E5BEC27F0360E5BEC27F0C80E53EC65
:1030280027F03A0E5BEC27F0050E53EC27F0120060
:1030380013C017F0186A196A1234173601E318809A
:1030480017501F6E1F50D8A402D05DD078D016C07C
:1030580017F0186A196A1534173601E318801750E3
:103068001E6E1E50D8A402D04ED069D0128EFF0E0C
:103078001116FF0E1216000E1316158EFF0E1416DB
:10308800FF0E1516000E1616000E1A6E000E1B6E99
:10309800000E1C6E000E1D6E7F0E1F5E1E50980FD8
:1030A8001F5E180E1E6ED8901A361B361C361D363B
:1030B8001450115C1550125816501358D8A007D048
:1030C8001450115E1550125A1650135A1A80D8907F
:1030D8001136123613361E2EE6D700D01FAE10D08A
:1030E8001F50800A970FD8B003D00DD028D000D039
:1030F800D8901D321C321B321A321F3EF9D717D016
:10310800170E1F6411D0000E116E000E126E000E05
:10311800136E000E146E13D007D0D8901A361B36D3
:103128001C361D361F0600D01F50D8A4F6D71AC06B
:1031380011F01BC012F01CC013F01DC014F01200D7
:10314800133414341C6E1C50D8A402D061D07CD027
:10315800163417341B6E1B50D8A402D059D074D023
:10316800138EFF0E1116FF0E1216FF0E1316000E09
:103178001416168EFF0E1416FF0E1516FF0E1616D1
:10318800000E1716000E176E000E186E000E196E40
:10319800000E1A6E7F0E1C5E1B50A00F1C5E200EC8
:1031A8001B6E00D0D8901736183619361A361450B8
:1031B800115C155012581650135817501458D8A0AF
:1031C8000AD01450115E1550125A1650135A17503F
:1031D800145A178000D0D890113612361336143688
:1031E8001B2EE0D700D01CAE10D01C50800A9F0FB9
:1031F800D8B003D00DD028D000D0D8901A321932C8
:10320800183217321C3EF9D717D01F0E1C6411D084
:10321800000E116E000E126E000E136E000E146E6C
:1032280013D007D0D8901736183619361A361C0618
:1032380000D01C50D8A4F6D717C011F018C012F04F
:1032480019C013F01AC014F0120021C025F0266A24
:10325800276A2034253601E326802550286E285019
:10326800D8A402D00ED06CD024C025F0266A276AD4
:103278002334253601E3268025502D6E2D50D8A401
:1032880007D0000E1F6E000E206E000E216E58D063
:103298002D507B0F282621C02DF024502D1A800E8A
:1032A8002D16208E238EFF0E2216FF0E2316000EDB
:1032B8002416000E296E000E2A6E000E2B6E070EC5
:1032C8002C6E00D01FA007D02250292623502A2276
:1032D80024502B2200D0D890213220321F32D8908F
:1032E8002236233624362C2EEDD700D0090E2C6E2C
:1032F80000D01FA007D02250292623502A2224506C
:103308002B2200D0D890213220321F32D8902B3275
:103318002A3229322C2EEDD700D029C011F02AC02C
:1033280012F02BC013F028C014F02DC015F057EC84
:103338001CF011C01FF012C020F013C021F000D003
:103348001200E00E5BEC27F0020E53EC27F01C0E87
:1033580053EC27F0070E53EC27F0120E53EC27F02E
:10336800370E53EC27F0320E53EC27F0290E53ECAE
:1033780027F02D0E53EC27F0290E53EC27F0250EDD
:1033880053EC27F02B0E53EC27F0390E53EC27F0B3
:10339800000E53EC27F0010E53EC27F0030E53EC0C
:1033A80027F0100E53EC27F0E10E5BEC27F0030E2C
:1033B80053EC27F01D0E53EC27F0070E53EC27F0C3
:1033C800060E53EC27F02E0E53EC27F02C0E53EC80
:1033D80027F0290E53EC27F02D0E53EC27F02E0E74
:1033E80053EC27F02E0E53EC27F0370E53EC27F052
:1033F8003F0E53EC27F0000E53EC27F0000E53EC71
:1034080027F0020E53EC27F0100E53EC27F0130EA2
:103418005BEC27F0000E186E0A0E176E80EC22F097
:10342800290E5BEC27F0000E186E640E176E80EC08
:1034380022F0120004EC27F0EBEC24F0000E256ECD
:10344800000E246E4FEC26F005D0530E0101486F94
:10345800500E04D0460E0101486F410E0101496F1C
:10346800320E01014A6F350E01014B6F320E010118
:103478004D6F300E01014F6F320E0101506F000188
:10348800CB05D8A44CD0010E396E3C0E3A6E010E15
:103498003B6EFF0E3D6E3C68000E3F6E000E3E6EAA
:1034A800010E406E010E07EC1BF05CC011F05DC010
:1034B80012F0890E136EFF0E146EA2EC24F01A0E91
:1034C800396E5CC03AF05DC03BF0FF0E3D6EE00E19
:1034D8003C6E000E3F6E000E3E6E020E406E010EF8
:1034E80007EC1BF05CC011F05DC012F0610E136EAA
:1034F800FF0E146EA2EC24F03C0E396E5CC03AF05C
:103508005DC03BF0070E3D6E3C68000E3F6E000E3E
:103518003E6E010E406E0F0E07EC1BF000D012003D
:1035280030C032F0336A346A2F34323601E33380E4
:1035380032503C6E3C50D8A402D039D063D0170E1C
:10354800326E2EC033F02FC034F030C035F0322840
:10355800366E04D0D890353234323332362EFAD71C
:103568003350376E2F8EFF0E2E16FF0E2F16000EBD
:1035780030162E50386E2F50396E30503A6E3B6AE6
:103588008E0E3C5E3CAE10D03C50800A8F0FD8B0F7
:1035980003D00DD037D000D0D8903B323A323932F0
:1035A80038323C3EF9D719D0170E3C6411D0000EC2
:1035B8002E6E000E2F6E000E306E000E316E22D071
:1035C80007D0D890383639363A363B363C0600D0E4
:1035D8003C50D8B402D0F5D700D03750D8B409D071
:1035E8003B1E3A1E391E386C000E39223A223B2205
:1035F80000D038C02EF039C02FF03AC030F03BC0B0
:1036080031F000D01200436E43C049F039C048F091
:103618003AC011F03BC012F046EC24F011C044F05F
:1036280012C045F0000E476E000E466E56D00001DF
:10363800DE510001D8B42CD04050050D4950416EE0
:10364800426AF3504126F450422242BE21D04250F1
:1036580004E1810E415CD8A01BD0000E496E405099
:10366800070DF3504824030F486EA00E486403D09A
:10367800A00E486E00D046503A24D96E47503B20E1
:10368800DA6E200EDE18D8B425D002D023D000D0B0
:1036980048C02EF046503A24D96E47503B20DA6E87
:1036A800DF502F6E3CC030F03DC031F03EC032F0EC
:1036B8003FC033F040C034F0495049EC16F0405058
:1036C800060DF3504924496E800E496403D0800EDC
:1036D800496E00D0464A472A00D04450465C4550BF
:1036E8004758D8A0A4D7120030C034F0356A366ADB
:1036F8002F34343601E3358034503B6E3B50D8A428
:1037080002D00ED061D033C034F0356A366A323414
:10371800343601E3358034503C6E3C50D8A407D091
:10372800000E2E6E000E2F6E000E306E4DD0000E65
:10373800386E000E396E000E3A6E3C50890F3B5EB3
:1037480030C03CF033503C1A800E3C162F8EFF0ED2
:103758002E16FF0E2F16000E3016328EFF0E311663
:10376800FF0E3216000E3316180E376E00D0D890A2
:10377800383639363A3631502E5C32502F5833505D
:103788003058D8A007D031502E5E32502F5A3350BF
:10379800305A3880D8902E362F363036372EE7D725
:1037A80000D038C011F039C012F03AC013F03BC055
:1037B80014F03CC015F057EC1CF011C02EF012C0EC
:1037C8002FF013C030F000D01200236E800E23605B
:1037D80069D09F0E186401D065D0FF0E1D6EFF0ED4
:1037E8001E6E195023C01FF0206A1F26000E2022CB
:1037F8001D501F261E50202220BE0AD0205004E152
:10380800800E1F5CD8A004D023500008800F196ECA
:10381800FF0E1D6EFF0E1E6E1A5018C01FF0206A94
:103828001F26000E20221D501F261E50202220BEBB
:103838000BD0205004E1A00E1F5CD8A005D0185072
:103848000008A00F1A6E00D018C014F023501924D5
:103858001D6E1D04156E18501A241E6E1E04166E59
:103868002350ABEC22F01C50216E1BC022F0838643
:1038780083981AC018F01850D8B413D001D011D0BA
:1038880019C023F02350D8B40AD001D008D0215051
:10389800F0EC26F02250F0EC26F02306F3D71806B9
:1038A800EAD7838812001450D8B405D011501210EA
:1038B8001310D8A40ED0000E116E000E126E000E5A
:1038C800136E53D006D0142AD89013321232113204
:1038D80000D0000E1114166E000E1214176EFE0E94
:1038E8001314186E165017101810D8B40ED0EBD742
:1038F8000CD0142A010E1126000E1222000E1322DB
:10390800D89013321232113200D0000E1114166EF4
:10391800000E1214176EFF0E1314186E165017109F
:103928001810D8B408D0E5D706D01406D8901136A8
:103938001236133600D012BE04D0020E1460F5D72A
:1039480000D014B002D0129E00D0D8901432145077
:1039580013121550D8B402D0138E00D011C011F034
:1039680012C012F013C013F000D0120042D00001B0
:10397800D52B180E0001D519D8A450D0000E00017F
:10398800D56F4CD00001D62B3C0E0001D619D8A417
:1039980045D0000E0001D66F41D00001D82B3C0E57
:1039A8000001D819D8A43AD0000E0001D86F36D03B
:1039B8000001D72B0D0E0001D719D8A42FD0010E66
:1039C8000001D76F2BD00001D42B200E0001D41991
:1039D800D8A424D0010E0001D46F20D00001D92B27
:1039E800640E0001D919D8A419D0000E0001D96FAE
:1039F80015D00001CD51000AD8B4B9D7010AD8B4FE
:103A0800C1D7030AD8B4C9D7010AD8B4D1D7070A8D
:103A1800D8B4D9D7010AD8B4E1D700D087EC15F0CB
:103A2800120042D00001D551D8A404D0170E0001CD
:103A3800D56F4FD00001D5074CD00001D651D8A47E
:103A480004D03B0E0001D66F44D00001D60741D008
:103A58000001D851D8A404D03B0E0001D86F39D04A
:103A68000001D80736D00001D705D8A404D00C0E21
:103A78000001D76F2ED00001D7072BD00001D40545
:103A8800D8A404D01F0E0001D46F23D00001D4079E
:103A980020D00001D951D8A404D0630E0001D96FF9
:103AA80018D00001D40715D00001CD51000AD8B4B0
:103AB800B9D7010AD8B4C1D7030AD8B4C9D7010AFB
:103AC800D8B4D1D7070AD8B4D9D7010AD8B4E1D71E
:103AD80000D087EC15F01200436E040ECB6E070E73
:103AE800CA6E000E226E800E236E400E246E435066
:103AF800A6EC25F019C01FF01AC020F01BC021F059
:103B080029EC19F01FC02EF020C02FF021C030F092
:103B1800000E316EA00E326E410E336E78EC1BF043
:103B28002EC040F02FC041F030C042F040C02EF00F
:103B380041C02FF042C030F094EC1AF02EC044F08F
:103B48002FC045F043503D6E3E6A44503D5C3E50A8
:103B5800800A3F6E4550800A3F58D8B003D0444A87
:103B6800452A00D044C03DF0030E3D163D38F00B09
:103B78000C09BD6E44C03DF045C03EF03E343E32B7
:103B88003D323E343E323D323D50BE6E120021EE93
:103B980023F011EE8CF0140EDBCFE3FFE806FCE215
:103BA8000001BB050001BC11D8A443D0000E0001E0
:103BB800BC6F000EBB6F9CEC27F06368000E010120
:103BC800A26F000EA16F0101A2BF0AD00101A2518C
:103BD80021E1150E0101A15DD8B01CD001D01AD089
:103BE8008C0E0101A125D96E010E0101A221DA6E08
:103BF8000001CA51DE18D8A408D0A1C163F0000E94
:103C08000101A26F150EA16F00D00101A14BA22BDB
:103C1800DAD700D06328D8A40AD0D60E0001866F60
:103C2800FE0E0001876F0EEC00F003D004D0010EE9
:103C380002D0000E00D01200680E4A6E000E4B6EC5
:103C48000001D85154EC22F04350676E0001D65160
:103C580054EC22F04350656E0001D55154EC22F02B
:103C68004350646E010E0001D16F0001D45154EC31
:103C780022F04350616E0001D75154EC22F04350BA
:103C8800666E0001D95154EC22F043506B6E1FEC64
:103C980027F04A504A2465EC24F04B5065EC24F098
:103CA800675065EC24F0655065EC24F0645065ECD1
:103CB80024F00001D15165EC24F0615065EC24F04A
:103CC800665065EC24F06B5065EC24F016EC27F098
:103CD800120068C017F0186A000E1A6E640E196E8A
:103CE800B8EC1EF017504A6E000E1A6E0A0E196EC6
:103CF80068C017F0186AB8EC1EF017C03DF018C07D
:103D08003EF0000E406E0A0E3F6EAAEC20F03D50C9
:103D18004B6E68C03DF03E6A000E406E0A0E3F6E64
:103D2800AAEC20F03D504C6E4A50300F0101876FCD
:103D38004B50300F0101886F4C50300F0101896FD3
:103D48004A0E396E870E3A6E010E3B6EF80E3D6EC6
:103D5800000E3C6E000E3F6E000E3E6E020E406E70
:103D6800280E07EC1BF01200000E1C6E1AAE07D0CE
:103D7800196C1A1ED8B01A2A010E1C6E00D018AE83
:103D880007D0176C181ED8B0182A010E1C1A00D0BC
:103D9800000E1E6E000E1D6E19501A10D8B421D0D8
:103DA800010E1B6E05D0D89019361A361B2A00D082
:103DB8001ABE02D0F8D700D0D8901D361E3619503A
:103DC800175C1A501858D8A006D01950175E1A5008
:103DD800185A1D8000D0D8901A3219321B2EECD7F1
:103DE80000D01C50D8B405D01D6C1E1ED8B01E2A99
:103DF80000D01DC017F01EC018F000D0120013AE7E
:103E080017D011C017F012C018F013C019F0171E00
:103E1800181E191E172A000E18221922000E172420
:103E2800116E000E1820126E800E1920136E00D02D
:103E380016AE17D014C017F015C018F016C019F038
:103E4800171E181E191E172A000E18221922000EF6
:103E58001724146E000E1820156E800E1920166E89
:103E680000D0000E111A000E121A800E131A000E3E
:103E7800141A000E151A800E161A1450115C1550DB
:103E8800125816501358D8B002D0D89002D0D88003
:103E980000D012000600EACF06F0E1CF07F0E2CF2B
:103EA80008F0D9CF09F0DACF0AF0F3CF0BF0F4CF4E
:103EB8000CF0F6CF0DF0F7CF0EF0F8CF0FF0F5CFEE
:103EC80010F09EA003D077EC27F000D0F2A203D028
:103ED80008EC12F000D0F0A003D017EC25F000D0C9
:103EE800F0A203D001EC25F000D010C0F5FF0FC000
:103EF800F8FF0EC0F7FF0DC0F6FF0CC0F4FF0BC0B3
:103F0800F3FF0AC0DAFF09C0D9FF08C0E2FF07C003
:103F1800E1FF06C0EAFF05C0E9FF04C0FBFF03C0DC
:103F2800FAFF1100202020202020202020202020FF
:103F38002020202020202020200000000000000059
:103F480000000000000000A262E22202C2E0A89085
:103F58006898B030187A10385A424A5200050A1444
:103F6800454345333330314C2046696E466132351E
:103F78002F3F2F3F3F000030302F30302F303000A0
:103F880030312F30312F30300030303A30303A3045
:103F9800300030303A30303A303000302E30305641
:103FA800004D414E55003030303000303737460034
:103FB800000E196E000E1A6E000E1B6E000E1C6E9F
:103FC8001550161017101810D8B42FD0010E1D6EEA
:103FD80007D0D89015361636173618361D2A00D051
:103FE80018BE02D0F6D700D0D89019361A361B362C
:103FF8001C361550115C165012581750135818508B
:104008001458D8A00AD01550115E1650125A1750DD
:10401800135A1850145A198000D0D89018321732F1
:10402800163215321D2EE0D700D019C011F01AC073
:1040380012F01BC013F01CC014F012001950175CCA
:104048001850800A1B6E1A50800A1B58D8B005D029
:10405800000E1E6E000E1D6E00D01750195C1A500F
:10406800800A1B6E1850800A1B58D8B025D019C07A
:104078001BF01AC01CF01B1E1C1E1B4A1C2A1750C2
:104088001B24116E18501C20126E000E146E030EA5
:10409800136E6CEC25F011C01DF012C01EF01EBE90
:1040A8000BD01E5004E1650E1D5CD8A005D0000E93
:1040B8001E6E640E1D6E00D01DC017F01EC018F0D5
:1040C80000D01200226E800E22603FD09F0E18642E
:1040D80001D03BD0FF0E1C6EFF0E1D6E195018C08C
:1040E8001EF01F6A1E26000E1F221C501E261D5081
:1040F8001F221FBE0BD01F5004E1A00E1E5CD8A0CB
:1041080005D018500008A00F196E00D01B50206E63
:104118001AC021F018C014F022C015F01850192444
:104128001C6E1C04166E2250ABEC22F0838683981A
:1041380007D02050F0EC26F02150F0EC26F000D00B
:1041480019061928D8A4F5D783881200000E426EE4
:104158003EAE07D03D6C3E1ED8B03E2A010E426EE0
:1041680000D040AE05D03F6C401ED8B0402A00D0E9
:104178003F504010D8B41DD0010E416E05D0D890E4
:104188003F364036412A00D040BE02D0F8D700D092
:104198003F503D5C40503E58D8A005D03F503D5E52
:1041A80040503E5A00D0D89040323F32412EF0D78E
:1041B80000D04250D8B405D03D6C3E1ED8B03E2A3F
:1041C80000D03DC03DF03EC03EF000D0120022506D
:1041D800231024102510D8B429D0010E266E07D03C
:1041E800D8902236233624362536262A00D025BEF6
:1041F80002D0F6D700D022501E5C23501F582450FE
:10420800205825502158D8A009D022501E5E23508E
:104218001F5A2450205A2550215A00D0D8902532B0
:10422800243223322232262EE6D700D01EC01EF0BA
:104238001FC01FF020C020F021C021F01200136E13
:10424800000EAC6E000EAB6E13A002D0AC8800D08E
:1042580013A203D0AC8CAB8C00D013A402D0AC8ECC
:1042680000D013A602D0AB8802D0AB8A00D013B816
:10427800AC849E9813AA02D0AB8600D013AC02D0AF
:104288009D8A01D09D9A9E9A13AE02D09D8801D036
:104298009D9811C0AFFF1250B06EAC8AAB8E949C43
:1042A800948EACB8ACBE02D0948C00D01200436E91
:1042B8004350040DF328C26E80EC25F011C044F081
:1042C80012C045F044C011F045C012F0000E146E43
:1042D800050E136E6CEC25F011C019F012C01AF01F
:1042E80084EC24F019C02EF01AC02FF01BC030F057
:1042F800000E316E800E326E440E336E78EC1BF079
:104308002EC040F02FC041F030C042F040C03DF018
:1043180041C03EF042C03FF000D01200680E156E5A
:10432800000E146E1FEC27F01550152465EC24F0D0
:10433800145065EC24F0D1EC26F0D880153465ECE7
:1043480024F0010EC2EC23F0676E010EC2EC23F0DC
:10435800656E010EC2EC23F0646E010EC2EC23F010
:104368000001D16F010EC2EC23F0616E010EC2ECA8
:1043780023F0666E000EC2EC23F06B6E16EC27F08D
:10438800120000EEB4F0260EEE6AE806FDE100EE3B
:104398005AF0120EEE6AE806FDE12C0EF66E3F0E9C
:1043A800F76E000EF86E01EE00F010EE8CF00900CA
:1043B800F5CFEEFFE550E150FAE1BA0EF66E4B0E7E
:1043C800F76E000EF86E00EEDAF010EE22F009003B
:1043D800F5CFEEFFE550E150FAE1000EF86E00016E
:1043E80085EF0DF08E0E216E07D0D8901C321B324F
:1043F8001A321932212A00D0000E19141D6E000E2F
:104408001A141E6E000E1B141F6EFF0E1C14206E55
:104418001D501E101F102010D8A4E7D719C011F086
:104428001AC012F01BC013F021C014F0000E156E54
:1044380057EC1CF011C019F012C01AF013C01BF091
:1044480000D01200FAEC26F06AEC27F0700ED36E5A
:104458000E0EC16E010E926E070E936E010E946ED3
:10446800000E956E000E966E000E846E000E000112
:10447800C36FF19EA00E116E860E126E010E136EA2
:10448800000E146E82EC27F040EC26F0CBEC25F001
:10449800320E626E5DEC26F04D0E0001DC6F1200EC
:1044A800496E49C017F0186A000E1A6E0A0E196E86
:1044B800B8EC1EF017C045F018C046F0453A463A29
:1044C800F00E461645500F0B4612F00E451649C021
:1044D8003DF03E6A000E406E0A0E3F6EAAEC20F0D8
:1044E8003D504524476E3E504620486E47C043F035
:1044F80048C044F000D0120017C011F018C012F0E4
:10450800000E146EFA0E136E6CEC25F011C01BF041
:1045180012C01CF01BC019F01CC01AF0191E1A1E7C
:10452800194A1A2AFF0E19241B6EFF0E1A201C6E38
:10453800B80EB16E1BC0D6FF1C50D76EA192B180C9
:1045480000D0A1A2FED7B190030EB16E1200176E73
:104558002A0E5BEC27F0000E53EC27F017500001F1
:10456800D02553EC27F0000E53EC27F0155000012E
:10457800D02553EC27F02B0E5BEC27F0000E53EC04
:1045880027F014500001D32553EC27F0000E53EC0C
:1045980027F016500001D32553EC27F02C0E5BECC6
:1045A80027F012000001C405D8A410D06A50176E75
:1045B800186A17BE1806DCC019F01A6A22EC20F037
:1045C8001750626E625070EC1DF000D05E50D8B487
:1045D80011D05F50D8B40ED00001C305D8A40AD0BA
:1045E8005F045F6E5F50D8A405D0000E5E6E5DEC70
:1045F80026F000D01200146E1450D8A404D0000E77
:10460800136E000E16D01404D8A404D0000E136E36
:10461800010E0FD0020E1418D8A404D0000E136E89
:10462800020E07D0030E1418D8A405D0000E136E7E
:10463800030E126E00D0D8901234116E8050F90B10
:104648001110806E1200206E20C017F0186A000E3C
:104658001A6E0A0E196EB8EC1EF017C021F018C0B9
:1046680022F022BE0BD0225004E1080E215CD8A013
:1046780005D0000E226E070E216E00D021C01FF05B
:10468800D8901F36D8901F36D8901F368050070B09
:104698001F10806E12000001835100018411000177
:1046A8008511D8B40AD0000E0001831B000E00014A
:1046B800841B800E0001851B00D080C04DF081C096
:1046C8004EF082C04FF083C050F084C051F085C0D6
:1046D80052F0EEEC12F04DC080F04EC081F04FC0A9
:1046E80082F000D012001FC017F020C018F0010E91
:1046F8001A6EF40E196EB8EC1EF01728226E1F50B1
:104708002010D8A403D0000E226E00D0070E226419
:1047180003D0070E226E00D022C021F0D890213697
:10472800D8902136D89021368150070B2110816E00
:1047380012002B6E2BC02CF02D6A0ED023C018F05F
:1047480025C019F026C01AF027C01BF02C5066ECC3
:1047580020F02C4A2D2A00D024502BC028F0296A9A
:104768002826000E292228502C5C2D50800A2A6EFB
:104778002950800A2A58D8A0E1D71200116E90EC6F
:1047880027F0000E126E070E126401D00FD071ECE4
:1047980027F082A803D0D880133604D013501324EE
:1047A800136E00D08CEC27F0122AEDD71150D8B434
:1047B80003D00DEC27F003D07DEC27F000D0135088
:1047C80000D01200480E1A6EAA0E196E1FEC27F0C0
:1047D8001A501A2465EC24F0195065EC24F0D1EC39
:1047E80026F0D8801A3465EC24F0000EC2EC23F0D1
:1047F800166E1650176E186A16EC27F017C014F0CC
:1048080018C015F000D01200B2CF17F0186A000EC9
:104818001A6E020E196EB8EC1EF017C021F018C0FF
:1048280022F0000EB26E21C011F022C012F0000E6C
:10483800146E3C0E136E6CEC25F011C01FF012C004
:1048480020F000D012002A0E5BEC27F0000E53EC8B
:1048580027F0000E53EC27F0000E53EC27F07F0EE4
:1048680053EC27F02B0E5BEC27F0000E53EC27F0EF
:10487800000E53EC27F0000E53EC27F09F0E53EC7C
:1048880027F0120011C015F012C016F003D0154A17
:10489800162A00D015C0D9FF16C0DAFFDF50D8A4F9
:1048A800F6D711C013F012C014F0131E141E134AC9
:1048B800142A15501324116E16501420126E00D0AD
:1048C8001200116E000E126E070E126401D011D084
:1048D80011AE03D090EC27F003D087EC27F000D07E
:1048E80071EC27F08CEC27F011501124116E122A6C
:1048F800EBD790EC27F071EC27F08CEC27F0120046
:10490800000E1C6E1AAE07D0196C1A1ED8B01A2ADF
:10491800010E1C6E00D019C011F01AC012F0136AF3
:104928008E0E146E1CC015F057EC1CF011C019F057
:1049380012C01AF013C01BF000D0120011C015F0FD
:1049480012C016F005D0154A162A134A142A00D0A8
:1049580013C0F6FF14C0F7FF15C0D9FF16C0DAFF61
:104968000800F5CFDFFFDF50D8A4EDD71200000113
:10497800C451D8A413D0640E6218D8A408D087EC08
:1049880026F087EC26F0625070EC1DF007D06250DC
:10499800050F626E625070EC1DF000D012001B6EA5
:1049A800800E1B6013D09F0E186401D00FD018C062
:1049B80014F01B28156E1828166E1B50ABEC22F04D
:1049C8001A5053EC27F0195053EC27F01200838843
:1049D8008396800EC76E300EC66E94EC17F027ECE7
:1049E80024F0A5EC19F0360E5BEC27F0C00E53EC62
:1049F80027F0010E0001CE6F1200000E026E000EAD
:104A0800016E02BE08D0200E015C4E0E0258D8B0CE
:104A180005D001D003D0014A022AF3D7F050010E85
:104A28000001C76F1200000E026E000E016E02BE7A
:104A380008D0200E015C4E0E0258D8B005D001D027
:104A480003D0014A022AF3D7F090010E0001C66F85
:104A58001200156E15C011F00F0E111615C012F0C8
:104A6800123A0F0E121612500A0D1150F324136E3B
:104A7800000EF420146E135000D01200030E5E6076
:104A88000ED05E2A5E50010D380EF324D96E010E49
:104A9800F420DA6EDF505F6E6BEC26F003D079EC11
:104AA80026F000D012005E50D8A403D079EC26F08E
:104AB8000ED05E065E50010D380EF324D96E010E3D
:104AC800F420DA6EDF505F6E6BEC26F000D0120037
:104AD80011501302F3CF15F0F4CF16F01150140251
:104AE800F350162612501302F350162615C011F073
:104AF80016C012F000D01200C28200D0C2B2FED797
:104B0800C450146E136AC3501324156E000E14207B
:104B1800166E15C011F016C012F000D012006250C7
:104B2800D8A408D087EC26F087EC26F0625070EC09
:104B38001DF007D06250FB0F626E625070EC1DF0E2
:104B480000D012001C6E1C50116E126A136A8E0E71
:104B5800146E000E156E57EC1CF011C019F012C03F
:104B68001AF013C01BF000D01200115012101310CD
:104B7800D8B406D0000E111A000E121A800E131A9D
:104B880011C011F012C012F013C013F01200F2920B
:104B9800F090F092F288F086F088F19CF19AF19802
:104BA800000ECF6E000ECE6E9E909D80F28CF28E1F
:104BB8001200300010FF012B303737003030300042
:104BC8004F464600373746004F46460030303000E3
:104BD8002B3235003D0E0001866FFF0E0001876FF6
:104BE8000EEC00F0010E0001C36F838283846250D3
:104BF80070EC1DF01200136E000E126E3A0E136068
:104C080006D02F0E136403D0010E126E00D012C00E
:104C180011F0113000D012000001CD51D8A404D0F9
:104C2800050E0001CD6F03D00001CD0700D00001B3
:104C3800CD51ADEC14F012000001CD2B060E000191
:104C4800CD19D8A404D0000E0001CD6F00D000010A
:104C5800CD51D0EC13F01200156E1FEC27F0155053
:104C6800152465EC24F0135065EC24F0145065EC21
:104C780024F016EC27F01200480E166EAC0E136ED8
:104C8800020E146E165030EC26F0EE0E136E16500F
:104C9800A3EC26F01200000E186E800E196EA00EFE
:104CA8001A6E24C01BF025C01CF0000EE9EC1BF0A6
:104CB8001200290E0001866FFF0E0001876F0EECAF
:104CC80000F0000E0001C36F839283941200838E5C
:104CD80028EC27F095EC26F0839E94EC27F095ECD1
:104CE80026F0625070EC1DF01200838E31EC27F034
:104CF80095EC26F0839E94EC27F095EC26F0625014
:104D080070EC1DF01200838E3AEC27F095EC26F03B
:104D1800839E94EC27F095EC26F0625070EC1DF021
:104D28001200000E126E000E116E800E125CD8B0CA
:104D380005D001D003D0114A122AF7D71200146EF9
:104D48001FEC27F01450142465EC24F0135065EC84
:104D580024F016EC27F012000001C351D8A403D0A8
:104D6800EEEC25F003D05DEC26F000D012006828A8
:104D7800686E6E0E686403D06E0E686E00D06DECBF
:104D88001EF012006804686E320E686003D0320E9E
:104D9800686E00D06DEC1EF012008CEC27F090ECE1
:104DA80027F071EC27F087EC27F08CEC27F0120045
:104DB80068C0DCF092EC21F0B4EC0BF0000E0001BE
:104DC800C86F120020EC1EF092EC21F0B4EC0BF04E
:104DD800000E0001C96F1200126E9E96C9CF11F025
:104DE80012C0C9FF00D0C7A0FED71200000E126E75
:104DF800190E116E3C0E23EC21F0700ED36E1200CA
:104E0800839A000E186E640E176E80EC22F0838A67
:104E1800120087EC27F071EC27F08CEC27F090EC6F
:104E280027F012008CEC27F087EC27F071EC27F0C4
:104E380090EC27F0120090EC27F071EC27F087EC4B
:104E480027F08CEC27F01200F90ECB6E050ECA6E17
:104E58007C0EBB6E3C0EBA6E1200F90ECB6E070EBE
:104E6800CA6E7C0EBB6E3C0EBA6E1200F90ECB6E8B
:104E7800050ECA6E4A0EBB6E3C0EBA6E120092EC5C
:104E880021F0B4EC0BF0000E0001C86F120092EC98
:104E980021F0B4EC0BF0000E0001C96F1200136E84
:104EA800839883861350F0EC26F083881200136EE3
:104EB800839883961350F0EC26F083881200116EC5
:104EC80000D0ACA2FED711C0ADFF1200010EC26E19
:104ED8000E0EC16EA90EC06E12009580060EE82E49
:104EE800FED700D01200000E606EF19ACD909E9011
:104EF800120071EC27F08CEC27F0120071EC27F00F
:104F080090EC27F012008298949800D000D01200FC
:104F18008390959000D01200948800D000D01200A1
:104F2800000EBA6E82921200000E606ECD901200D2
:064F3800F288F19C12005A
:10FBF80000000000000000005F0000000700070090
:10FC0800147F147F14242A7F2A122313086462366F
:10FC1800495620500008070300001C2241000041FB
:10FC2800221C002A1C7F1C2A08083E080800807035
:10FC38003000080808080800006060002010080468
:10FC4800023E5149453E00427F40007249494946BB
:10FC58002141494D331814127F1027454545393C39
:10FC68004A49493141211109073649494936464926
:10FC780049291E0000140000004034000000081448
:10FC880022411414141414004122140802015909C1
:10FC9800063E415D594E7C1211127C7F4949493616
:10FCA8003E414141227F4141413E7F494949417F8F
:10FCB800090909013E414151737F0808087F004145
:10FCC8007F41002040413F017F081422417F40408E
:10FCD80040407F021C027F7F0408107F3E41414163
:10FCE8003E7F090909063E4151215E7F09192946CF
:10FCF800264949493203017F01033F4040403F1FE5
:10FD08002040201F3F4038403F6314081463030419
:10FD18007804036159494D43007F41414102040879
:10FD28001020004141417F0402010204404040404C
:10FD380040000307080020545478407F2844443882
:10FD48003844444428384444287F385454541800CC
:10FD5800087E090218A4A49C787F0804047800444B
:10FD68007D40002040403D007F1028440000417F36
:10FD780040007C047804787C0804047838444444BF
:10FD880038FC1824241818242418FC7C08040408B7
:10FD9800485454542404043F44243C4040207C1CD0
:10FDA8002040201C3C4030403C44281028444C90C3
:10FDB80090907C4464544C4400083641000000771D
:10FDC80000000041360800020102040201000000A0
:10FDD8000A00000064000000E8030000102700008B
:10FDE800A086010040420F008096980000E1F505CA
:10FDF80000CA9A3B00803FCDCC3DD7233C12833AC2
:10FE0800B7D138C62737388635C0D633CC2B3270B1
:10FE18008930E7DB2EE53C1E42A20D00803F002022
:10FE28004100C842007A44401C4650C347247449E4
:10FE380097184BBCBE4C6B6E4E03155079AD60F3F2
:10FE480049710100000010000000000100000010CE
:10FE58000000000001000000100000000001000088
:10FE68000010253032783A253032783A2530327809
:10FE780020253032782F253032782F2530327800FF
:10FE88002052504D203D20256420206463203D20D1
:10FE98002564206C73203D2025640D0A0053797376
:10FEA80074656D206973206E6F77207475726E208B
:10FEB8004F46460D0A0053797374656D20697320A7
:10FEC8006E6F77207475726E204F4E0D0A00436175
:10FED8006E6E6F742066696E6420627574746F6EDE
:10FEE800200D0A002054656D70203D2025642043B4
:10FEF800203D202564204620002054656D70203D5B
:10FF08002025642043203D2025642046004C696755
:10FF180068742053656E736F72203D2025662056E5
:10FF28000046616E206973207475726E6564206F77
:10FF380066660D0A0046616E206973207475726EDC
:10FF48006564206F6E0D0A00303132333435363730
:10FF58003839616263646566002020536574204601
:10FF6800616E2054656D700054656D7065726174C2
:10FF78007572653A0054696D652053657475700033
:10FF8800002046616E205365747570000046414E2E
:10FF98002053657454656D7000627574746F6E20BB
:10FFA80025640D0A0053595354454D204F464600C9
:10FFB80054696D6572204D6F64650054696D657292
:10FFC8002054696D65004155544F004D414E550010
:10FFD8004461746500566F6C74004F4E2000544D98
:10FFE8003100544D3200544D330052504D00432FD0
:08FFF8000044430053570000D0
:020000040020DA
:08000000FFFFFFFFFFFFFFFF00
:020000040030CA
:0E000000FF08191EFF8381FF0FC00FE00F40A5
:00000001FF
