:040000004EEF7FF050
:10FE2600000EBA6E82921200FF79243019120278FF
:10FE36000010010EC26E0E0EC16EA90EC06E12002B
:10FE4600F90ECB6E050ECA6E4A0EBB6E3C0EBA6E2E
:10FE56001200000E0C6E190E0B6E3C0E7DEC7FF040
:10FE6600700ED36E1200838E23EC7FF041EC7FF090
:10FE7600839E13EC7FF041EC7FF01200030ED56EEB
:10FE8600010ED66E0A0ED76EF294D58E00D0F2A46D
:10FE9600FED7D59E12002E0EF66EFE0EF76E000EE3
:10FEA600F86E00EE01F010EE0AF00900F5CFEEFF55
:10FEB600E550E150FAE1000161EF7FF01F0E926E0E
:10FEC600000E936E000E946E000E956E000E966EEA
:10FED6001CEC7FF02CEC7FF000D0080E0B6E000EB1
:10FEE600B5EC7FF0060E0B6E010EB5EC7FF0F5D784
:10FEF60000EF00F00D6E000EAC6E000EAB6E0DA0A6
:10FF060002D0AC8800D00DA203D0AC8CAB8C00D054
:10FF16000DA402D0AC8E00D00DA602D0AB8802D0C4
:10FF2600AB8A00D00DB8AC849E980DAA02D0AB86E1
:10FF360000D00DAC02D09D8A01D09D9A9E9A0DAE3E
:10FF460002D09D8801D09D980BC0AFFF0C50B06EBB
:10FF5600AC8AAB8E949C948EACB8ACBE02D0948C1A
:10FF660000D012000C6E816883680C50D8A422D091
:10FF76000B040D6E83680DC00EF00F6A0FBE16D00F
:10FF86000F5005E10E04D8A011D001D00FD0010EFC
:10FF96000E24D96E000E0F20DA6EDF50816E36EC1D
:10FFA6007FF00E06D8A00F06E9D7F1D7816836ECA8
:10FFB6007FF022D00B040D6E81680DC00EF00F6A23
:10FFC6000FBE16D00F5005E10E04D8A011D001D0F7
:10FFD6000FD0010E0E24D96E000E0F20DA6EDF5000
:10FFE600836E36EC7FF00E06D8A00F06E9D7F1D760
:0AFFF600836836EC7FF000D01200A3
:020000040020DA
:08000000FFFFFFFFFFFFFFFF00
:020000040030CA
:0E000000FF08191EFF8381FF0FC00FE00F40A5
:00000001FF
