:040000000CEF00F011
:10000800FACF01F0FBCF02F0E9CF03F0E7ED0FF0F4
:100018000DEF11F04DEC14F099EC13F0000E236E77
:10002800000E226EFAEC13F0AA0E446E000E456E16
:1000380044C00FF045C010F0E40E116EFF0E126EB2
:1000480068EC13F0020E376E44C038F045C039F042
:10005800FF0E3B6E3A68000E3D6E000E3C6E010EC0
:100068003E6E020E23EC0AF0020E376E640E386EF6
:10007800000E396EFF0E3B6E3A68000E3D6E000EA4
:100088003C6E010E3E6E230E23EC0AF044C00FF0C6
:1000980045C010F0EA0E116EFF0E126E68EC13F0F8
:1000A800020E376E44C038F045C039F0FF0E3B6E83
:1000B8003A68000E3D6E000E3C6E010E3E6E320E2A
:1000C80023EC0AF0020E376E960E386E000E396E6B
:1000D800FF0E3B6E3A68000E3D6E000E3C6E010E40
:1000E8003E6E4B0E23EC0AF044C00FF045C010F0F2
:1000F800F70E116EFF0E126E68EC13F0020E376EDB
:10010800610E386E000E396EFF0E3B6E3A68000EB7
:100118003D6E000E3C6E010E3E6E640E23EC0AF03E
:1001280044C00FF045C010F0FC0E116EFF0E126EA9
:1001380068EC13F0020E376E44C038F045C039F051
:10014800FF0E3B6E3A68000E3D6E000E3C6E010ECF
:100158003E6E780E23EC0AF044C00FF045C010F054
:10016800AA0E116EFF0E126E68EC13F00B0E376EAE
:1001780044C038F045C039F0FF0E3B6E3A68000EB7
:100188003D6E000E3C6E010E3E6E010E23EC0AF031
:10019800140E376E6C0E386E000E396EFF0E3B6E05
:1001A8003A68000E3D6E000E3C6E010E3E6E080E63
:1001B80023EC0AF0140E376E6A0E386E000E396E94
:1001C800FF0E3B6E3A68000E3D6E000E3C6E010E4F
:1001D8003E6E230E23EC0AF0140E376E700E386E46
:1001E800000E396EFF0E3B6E3A68000E3D6E000E33
:1001F8003C6E010E3E6E3C0E23EC0AF0140E376E78
:100208006E0E386E000E396EFF0E3B6E3A68000EA9
:100218003D6E000E3C6E010E3E6E550E23EC0AF04C
:10022800140E376E660E386E000E396EFF0E3B6E7A
:100238003A68000E3D6E000E3C6E010E3E6E6C0E6E
:1002480023EC0AF0140E376E680E386E000E396E05
:10025800FF0E3B6E3A68000E3D6E000E3C6E010EBE
:100268003E6E770E23EC0AF044C00FF045C010F044
:10027800CC0E116EFF0E126E68EC13F01E0E376E68
:1002880044C038F045C039F0070E3B6E3A68000E9E
:100298003D6E000E3C6E010E3E6E1E0E23EC0AF003
:1002A800000E226E1E0E216E000E246E260E236E88
:1002B800000E266E3C0E256E000E286E120E276E5E
:1002C800070E2A6E2968DAEC10F0000E3A6E280E36
:1002D800396E000E3C6E2E0E3B6E000E3E6E070E03
:1002E8003D6EF80E406E000E3F6E91EC11F0000E60
:1002F8001B6E3C0E1A6E000E1D6E2E0E1C6E000E2E
:100308001F6E070E1E6EFF0E216EE00E206EB8ECFB
:1003180006F0000E1B6E500E1A6E000E1D6E2E0E8D
:100328001C6E000E1F6E070E1E6E070E216EE00E6D
:10033800206EB8EC06F0280E376E5E0E386E000E92
:10034800396E070E3B6E3A68000E3D6E000E3C6E2D
:10035800020E3E6E640E23EC0AF044C00FF045C056
:1003680010F0DD0E116EFF0E126E68EC13F03C0EED
:10037800376E44C038F045C039F0FF0E3B6E3A681E
:10038800000E3D6E000E3C6E010E3E6E1E0E23ECFE
:100398000AF0000E226E1E0E216E000E246E440E10
:1003A800236E000E266E3C0E256E000E286E120E71
:1003B800276EFF0E2A6E2968DAEC10F0000E3A6EEE
:1003C800280E396E000E3C6E4C0E3B6E000E3E6ED3
:1003D800070E3D6EF80E406E000E3F6E91EC11F068
:1003E800000E1B6E3C0E1A6E000E1D6E4C0E1C6E1F
:1003F800000E1F6E070E1E6EFF0E216EE00E206EA1
:10040800B8EC06F0000E1B6E500E1A6E000E1D6E34
:100418004C0E1C6E000E1F6E070E1E6E070E216E10
:10042800E00E206EB8EC06F0460E376E5B0E386EA6
:10043800000E396EFF0E3B6E3A68000E3D6E000EE0
:100448003C6E020E3E6E640E23EC0AF044C00FF0C0
:1004580045C010F0C00E116EFF0E126E68EC13F05E
:100468005A0E376E44C038F045C039F0000E3B6E66
:100478001F0E3A6E000E3D6E000E3C6E010E3E6E73
:100488001E0E23EC0AF0000E226E1E0E216E000EC8
:10049800246E620E236E000E266E3C0E256E000E34
:1004A800286E120E276E000E2A6E1F0E296EDAECC9
:1004B80010F0000E1B6E280E1A6E000E1D6E6A0ECE
:1004C8001C6E000E1F6E070E1E6EF80E216E000EBB
:1004D800206EB8EC06F0000E1B6E3C0E1A6E000E75
:1004E8001D6E6A0E1C6E000E1F6E070E1E6EFF0E2E
:1004F800216EE00E206EB8EC06F0000E3A6E500E3B
:10050800396E000E3C6E6A0E3B6E000E3E6E070E94
:100518003D6E070E406EE00E3F6E91EC11F0640EDA
:10052800376E9E0E386E000E396E000E3B6E1F0E33
:100538003A6E000E3D6E000E3C6E020E3E6E640E6C
:1005480023EC0AF044C00FF045C010F0D60E116E2F
:10055800FF0E126E68EC13F0780E376E44C038F058
:1005680045C039F0F80E3B6E1F0E3A6E000E3D6E18
:10057800000E3C6E010E3E6E1E0E23EC0AF0000EBD
:10058800226E1E0E216E000E246E800E236E000E4B
:10059800266E3C0E256E000E286E120E276EF80E83
:1005A8002A6E1F0E296EDAEC10F0000E3A6E280E35
:1005B800396E000E3C6E880E3B6E000E3E6E070EC6
:1005C8003D6EF80E406E000E3F6E91EC11F0000E7D
:1005D8001B6E3C0E1A6E000E1D6E880E1C6E000EF1
:1005E8001F6E070E1E6EFF0E216EE00E206EB8EC19
:1005F80006F0000E1B6E500E1A6E000E1D6E880E51
:100608001C6E000E1F6E070E1E6E070E216EE00E8A
:10061800206EB8EC06F0820E376E9B0E386E000E18
:10062800396EF80E3B6E1F0E3A6E000E3D6E000ED0
:100638003C6E020E3E6E640E23EC0AF0280E376EF6
:10064800A10E386E000E396E070E3B6E3A68000E2A
:100658003D6E000E3C6E020E3E6E020E23EC0AF05A
:1006680044C00FF045C010F0F30E116EFF0E126E6D
:1006780068EC13F01E0E376E44C038F045C039F0F0
:10068800070E3B6E3A68000E3D6E000E3C6E010E82
:100698003E6E030E23EC0AF044C00FF045C010F084
:1006A800EF0E116EFF0E126E68EC13F05A0E376ED5
:1006B80044C038F045C039F0000E3B6E1F0E3A6E4C
:1006C800000E3D6E000E3C6E010E3E6E030E23ECD6
:1006D8000AF0640E376EA40E386E000E396E000EE6
:1006E8003B6E1F0E3A6E000E3D6E000E3C6E020E03
:1006F8003E6E020E23EC0AF005D0530E0001806F07
:10070800500E04D0460E0001806F410E0001816F2B
:10071800320E0001826F350E0001836F320E000128
:10072800856F300E0001876F320E0001886F380E1A
:1007380000018A6F360E00018B6F370E00018C6F37
:10074800370E00018D6F350E00018E6F360E0001D9
:100758008F6F360E0001916F350E0001926F370EC4
:100768000001936F350E0001946F960E376E800E60
:10077800386E000E396EFF0E3B6E3A68000E3D6E05
:10078800000E3C6E010E3E6E010E23EC0AF01200C4
:100798000001C96F0001C9511E0DF3502E0F000151
:1007A800CA6F4150D8A467D0000E3A6E280E396E31
:1007B800CAC03BF03C6A000E3E6E070E3D6E000E4E
:1007C800406E000E3F6E91EC11F0000E3A6E3C0E3A
:1007D800396ECAC03BF03C6A000E3E6E070E3D6E95
:1007E800000E406E000E3F6E91EC11F0000E3A6E56
:1007F800500E396ECAC03BF03C6A000E3E6E070EC2
:100808003D6E000E406E000E3F6E91EC11F0000E32
:100818001B6E280E1A6ECAC01CF01D6A000E1F6ED1
:10082800070E1E6EF80E216E000E206EB8EC06F054
:10083800000E1B6E3C0E1A6ECAC01CF01D6A000E1C
:100848001F6E070E1E6EFF0E216EE00E206EB8ECB6
:1008580006F0000E1B6E500E1A6ECAC01CF01D6A00
:10086800000E1F6E070E1E6E070E216EE00E206E24
:10087800B8EC06F03CD14104D8A467D0000E3A6E1B
:10088800280E396ECAC03BF03C6A000E3E6E070E59
:100898003D6EF80E406E000E3F6E91EC11F0000EAA
:1008A8003A6E3C0E396ECAC03BF03C6A000E3E6E92
:1008B800070E3D6E000E406E000E3F6E91EC11F07B
:1008C800000E3A6E500E396ECAC03BF03C6A000EFC
:1008D8003E6E070E3D6E000E406E000E3F6E91ECB0
:1008E80011F0000E1B6E280E1A6ECAC01CF01D6A8D
:1008F800000E1F6E070E1E6EF80E216E000E206E83
:10090800B8EC06F0000E1B6E3C0E1A6ECAC01CF046
:100918001D6A000E1F6E070E1E6EFF0E216EE00E82
:10092800206EB8EC06F0000E1B6E500E1A6ECAC090
:100938001CF01D6A000E1F6E070E1E6E070E216E3C
:10094800E00E206EB8EC06F0D2D0030E4118D8A401
:1009580067D0000E3A6E280E396ECAC03BF03C6A6A
:10096800000E3E6E070E3D6E000E406E000E3F6E8E
:1009780091EC11F0000E3A6E3C0E396ECAC03BF095
:100988003C6A000E3E6E070E3D6EFF0E406EE00E96
:100998003F6E91EC11F0000E3A6E500E396ECAC0DF
:1009A8003BF03C6A000E3E6E070E3D6E000E406E38
:1009B800000E3F6E91EC11F0000E1B6E280E1A6EA1
:1009C800CAC01CF01D6A000E1F6E070E1E6EF80EC0
:1009D800216E000E206EB8EC06F0000E1B6E3C0E69
:1009E8001A6ECAC01CF01D6A000E1F6E070E1E6E1E
:1009F800FF0E216EE00E206EB8EC06F0000E1B6EA6
:100A0800500E1A6ECAC01CF01D6A000E1F6E070E2B
:100A18001E6E070E216EE00E206EB8EC06F067D051
:100A2800000E3A6E280E396ECAC03BF03C6A000EC2
:100A38003E6E070E3D6E000E406E000E3F6E91EC4E
:100A480011F0000E3A6E3C0E396ECAC03BF03C6A9B
:100A5800000E3E6E070E3D6E000E406E000E3F6E9D
:100A680091EC11F0000E3A6E500E396ECAC03BF090
:100A78003C6A000E3E6E070E3D6E070E406EE00E9D
:100A88003F6E91EC11F0000E1B6E280E1A6ECAC054
:100A98001CF01D6A000E1F6E070E1E6EF80E216EEA
:100AA800000E206EB8EC06F0000E1B6E3C0E1A6E9F
:100AB800CAC01CF01D6A000E1F6E070E1E6EFF0EC8
:100AC800216EE00E206EB8EC06F0000E1B6E500E84
:100AD8001A6ECAC01CF01D6A000E1F6E070E1E6E2D
:100AE800070E216EE00E206EB8EC06F000D0120062
:100AF800D6EC13F00FC0D0F010C0D1F0000EA3EC6C
:100B080010F02AC0D2F02BC0D3F02CC0D4F0D2C041
:100B18000FF0D3C010F0D4C011F0000E126E200EEA
:100B2800136E400E146E14EC0FF0D8B002D0010E04
:100B380001D0000E4D6ED2C026F0D3C027F0D4C02D
:100B480028F09DEC0BF02650300F0001966F000E38
:100B58001A6E200E1B6E410E1C6ED2C017F0D3C049
:100B680018F0D4C019F0A8EC0AF017C026F018C085
:100B780027F019C028F09DEC0BF026C035F027C0EF
:100B880036F0000E386E0A0E376E2AEC10F035502B
:100B9800300F0001986F4D50D8A402D04E0E01D0EE
:100BA800440E626E4E50D8A402D04E0E01D0440EB0
:100BB800646E4850D8A402D0300E01D0310E666E53
:100BC8004950D8A402D0300E01D0310E686E00D042
:100BD80047C052F0000E80B8010E516E4FC054F05D
:100BE800000E80B2010E536E5250D8A402D0300EBF
:100BF80001D0310E6C6E5150D8A402D0300E01D005
:100C0800310E6A6E5450D8A402D0300E01D0310E85
:100C1800706E5350D8A402D0300E01D0310E6E6ED3
:100C280000D0020E376E640E386E000E396EFF0E5D
:100C38003B6E3A68000E3D6E000E3C6E010E3E6E35
:100C4800230E23EC0AF0020E376E960E386E000E55
:100C5800396EFF0E3B6E3A68000E3D6E000E3C6E1C
:100C6800010E3E6E4B0E23EC0AF0020E376E610E3B
:100C7800386E000E396EFF0E3B6E3A68000E3D6E00
:100C8800000E3C6E010E3E6E640E23EC0AF0140E4C
:100C9800376E6C0E386E000E396EFF0E3B6E3A687A
:100CA800000E3D6E000E3C6E010E3E6E080E23ECEB
:100CB8000AF0140E376E6A0E386E000E396EFF0E8B
:100CC8003B6E3A68000E3D6E000E3C6E010E3E6EA5
:100CD800230E23EC0AF0140E376E700E386E000ED9
:100CE800396EFF0E3B6E3A68000E3D6E000E3C6E8C
:100CF800010E3E6E3C0E23EC0AF0140E376E6E0E9B
:100D0800386E000E396EFF0E3B6E3A68000E3D6E6F
:100D1800000E3C6E010E3E6E550E23EC0AF0140ECA
:100D2800376E660E386E000E396EFF0E3B6E3A68EF
:100D3800000E3D6E000E3C6E010E3E6E6C0E23ECF6
:100D48000AF0140E376E680E386E000E396EFF0EFC
:100D58003B6E3A68000E3D6E000E3C6E010E3E6E14
:100D6800770E23EC0AF012001EC022F01FC023F0F9
:100D7800221E231E224A232A010E2224286E000E38
:100D88002320296E000E256E010E246E1EC022F04F
:100D98001FC023F0D89022362336221E231E224A53
:100DA800232A22C026F023C027F0000E2B6E000E47
:100DB8002A6E1EC02CF01FC02DF01C501E24166E6B
:100DC80020C017F021C018F01A5081EC13F01E5003
:100DD80000081C24166E20C017F021C018F01A5005
:100DE80081EC13F01CC016F020C017F021C018F0D9
:100DF8001A501E2481EC13F01CC016F020C017F006
:100E080021C018F01E5000081A2481EC13F078D085
:100E180029BE0BD02C06D8A02D06020E2626000EC1
:100E2800272226502826275029222A4A2B2A020E12
:100E38002426000E252224502826255029221C501D
:100E48002C24166E20C017F021C018F01A502A243E
:100E580081EC13F01C502C24166E20C017F021C012
:100E680018F02A5000081A2481EC13F02C500008BE
:100E78001C24166E20C017F021C018F01A502A241E
:100E880081EC13F02C5000081C24166E20C017F0BB
:100E980021C018F02A5000081A2481EC13F01C50C5
:100EA8002A24166E20C017F021C018F01A502C24DE
:100EB80081EC13F01C502A24166E20C017F021C0B4
:100EC80018F02C5000081A2481EC13F02A5000085E
:100ED8001C24166E20C017F021C018F01A502C24BC
:100EE80081EC13F02A5000081C24166E20C017F05D
:100EF80021C018F02C5000081A2481EC13F000D0FF
:100F08002C502A5C2B50800A226E2D50800A2258C1
:100F1800D8A07ED712000001D06FB2D041C00FF028
:100F2800106A000E126E0A0E116EC9EC0EF00F5008
:100F3800300F5E6E41C035F0366A000E386E0A0E0C
:100F4800376E2AEC10F03550300F5F6E280E376E72
:100F58005E0E386E000E396E070E3B6E3A68000E54
:100F68003D6E000E3C6E020E3E6E640E23EC0AF0DF
:100F780096D041C00FF0106A000E126E0A0E116E64
:100F8800C9EC0EF00F50300F5B6E41C035F0366A79
:100F9800000E386E0A0E376E2AEC10F03550300FFE
:100FA8005C6E460E376E5B0E386E000E396EFF0EA5
:100FB8003B6E3A68000E3D6E000E3C6E020E3E6EB1
:100FC800640E23EC0AF06BD041C00FF0106A000EDB
:100FD800126E0A0E116EC9EC0EF00F50300F0001A0
:100FE8009E6F41C035F0366A000E386E0A0E376EB5
:100FF8002AEC10F03550300F00019F6F640E376EE9
:101008009E0E386E000E396E000E3B6E1F0E3A6E45
:10101800000E3D6E000E3C6E020E3E6E640E23EC1A
:101028000AF03DD041C00FF0106A000E126E0A0E91
:10103800116EC9EC0EF00F50300F00019B6F41C0CC
:1010480035F0366A000E386E0A0E376E2AEC10F04C
:101058003550300F00019C6F820E376E9B0E386E34
:10106800000E396EF80E3B6E1F0E3A6E000E3D6E86
:10107800000E3C6E020E3E6E640E23EC0AF00FD09A
:101088000001D051000AD8B449D7010AD8B471D7A1
:10109800030AD8B499D7010AD8B4C4D700D012002B
:1010A800346E800E3460A6D09F0E2C6401D0A2D07E
:1010B8003250D8A403D0010E326E00D01F0E2D641A
:1010C80004D07E0E2D6403D000D03F0E2D6E000E8E
:1010D800366E040E366401D08DD0530E2D6015D0B7
:1010E800E00E2D240F6E106AFF0E1022000E126EF5
:1010F800050E116EAEEC13F036500F26000E1022BE
:10110800CF0E0F24F66EFD0E14D0AD0E2D240F6EEB
:10111800106AFF0E1022000E126E050E116EAEEC54
:1011280013F036500F26000E1022CE0E0F24F66E46
:10113800FE0E1020F76E0800F5CF33F000D0000E39
:10114800356E060E356401D053D033A023D0320457
:10115800D8A40CD02C503524166E2EC017F02FC0F2
:1011680018F03450362481EC13F03ED0355032025A
:10117800F3502C24216E32C022F032C023F02EC04E
:1011880024F02FC025F036503202F3503424E1EC1D
:1011980011F02AD02E50301804E12F503118D8B44D
:1011A80023D03204D8A40CD02C503524166E30C06D
:1011B80017F031C018F03450362481EC13F014D0F5
:1011C80035503202F3502C24216E32C022F032C046
:1011D80023F030C024F031C025F036503202F350ED
:1011E8003424E1EC11F000D0352AD8903332A9D755
:1011F800362A6FD7120025C02DF026C02EF02D1EDE
:101208002E1E2D4A2E2A010E2D24336E000E2E205E
:10121800346E000E306E010E2F6E25C02DF026C0E4
:101228002EF0D8902D362E362D1E2E1E2D4A2E2A03
:101238002DC031F02EC032F0000E366E000E356E25
:1012480025C037F026C038F067D034BE0BD037063B
:10125800D8A03806020E3126000E3222315033262D
:1012680032503422354A362A020E2F26000E3022FA
:101278002F5033263050342227A025D0375000086D
:101288002324166E3750372429242D6E2D28176EE7
:101298002BC018F02CC019F021503524A3EC0FF006
:1012A800355000082324166E3550352429242D6E18
:1012B8002D28176E2BC018F02CC019F02150372498
:1012C800A3EC0FF000D027A227D037500008232422
:1012D800166E3750372429242D6E2D28176E2BC0F3
:1012E80018F02CC019F0355000082124A3EC0FF099
:1012F800355000082324166E3550352429242D6EC8
:101308002D28176E2BC018F02CC019F03750000884
:101318002124A3EC0FF000D03750355C3650800AFA
:101328002D6E3850800A2D58D8A08FD71200010E84
:1013380067EC14F0000E166E960E156E68EC11F040
:10134800110E67EC14F0010E166EF40E156E68ECB3
:1013580011F0B10E67EC14F0010E5FEC14F02C0ED6
:101368005FEC14F02D0E5FEC14F0B20E67EC14F085
:10137800010E5FEC14F02C0E5FEC14F02D0E5FECF8
:1013880014F0B30E67EC14F0010E5FEC14F02C0EA1
:101398005FEC14F02D0E5FEC14F0010E5FEC14F00E
:1013A8002C0E5FEC14F02D0E5FEC14F0B40E67EC0D
:1013B80014F0070E5FEC14F0C00E67EC14F0A20EE8
:1013C8005FEC14F0020E5FEC14F0840E5FEC14F086
:1013D800C10E67EC14F0C50E5FEC14F0C20E67EC9A
:1013E80014F00A0E5FEC14F0000E5FEC14F0C30E5C
:1013F80067EC14F08A0E5FEC14F02A0E5FEC14F020
:10140800C40E67EC14F08A0E5FEC14F0EE0E5FEC7D
:1014180014F0C50E67EC14F00E0E5FEC14F0200EFD
:1014280067EC14F0360E67EC14F0C80E5FEC14F09D
:101438003A0E67EC14F0050E5FEC14F01200000190
:10144800C96FC9C0CFF037C0CEF038C00FF039C06F
:1014580010F0D6EC12F00FC0CAF010C0CBF0000E9E
:101468000001CD6F000ECC6F64D05A50D8B434D080
:101478003E50050D0001CF513F6E406AF3503F26A4
:10148800F450402240BE28D0405004E1810E3F5C19
:10149800D8A022D0000E0001CF6F3E50070DF350A8
:1014A8000001CE25030F0001CE6FA00E0001CE650E
:1014B80004D0A00E0001CE6F00D00001CC5138241A
:1014C800D96E0001CD513920DA6E200EDE18D8B45D
:1014D8002CD002D02AD000D0CEC02CF00001CC51A4
:1014E8003824D96E0001CD513920DA6EDF502D6EC7
:1014F8003AC02EF03BC02FF03CC030F03DC031F078
:101508003EC032F00001CF5154EC08F03E50060DB9
:10151800F3500001CF250001CF6F800E0001CF6589
:1015280004D0800E0001CF6F00D00001CC4BCD2B32
:1015380000D00001CA510001CC5D0001CB5100016F
:10154800CD59D8A092D7120019C01DF01E6A1F6A83
:1015580018341D3601E31E801D50206E2050D8A47B
:1015680002D00ED06CD01CC01DF01E6A1F6A1B343E
:101578001D3601E31E801D50256E2550D8A407D0C6
:10158800000E176E000E186E000E196E58D02550FA
:101598007B0F202619C025F01C50251A800E251611
:1015A800188E1B8EFF0E1A16FF0E1B16000E1C1629
:1015B800000E216E000E226E000E236E070E246EA2
:1015C80000D017A007D01A5021261B5022221C50E9
:1015D800232200D0D890193218321732D8901A36F0
:1015E8001B361C36242EEDD700D0090E246E00D0F1
:1015F80017A007D01A5021261B5022221C50232244
:1016080000D0D890193218321732D89023322232AB
:101618002132242EEDD700D021C00FF022C010F0C7
:1016280023C011F020C012F025C013F0C9EC0DF052
:101638000FC017F010C018F011C019F000D0120038
:10164800E00E67EC14F0020E5FEC14F01C0E5FEC79
:1016580014F0070E5FEC14F0120E5FEC14F0370E66
:101668005FEC14F0320E5FEC14F0290E5FEC14F00E
:101678002D0E5FEC14F0290E5FEC14F0250E5FECD4
:1016880014F02B0E5FEC14F0390E5FEC14F0000E22
:101698005FEC14F0010E5FEC14F0030E5FEC14F035
:1016A800100E5FEC14F0E10E67EC14F0030E5FEC23
:1016B80014F01D0E5FEC14F0070E5FEC14F0060E2C
:1016C8005FEC14F02E0E5FEC14F02C0E5FEC14F0AF
:1016D800290E5FEC14F02D0E5FEC14F02E0E5FEC6B
:1016E80014F02E0E5FEC14F0370E5FEC14F03F0E82
:1016F8005FEC14F0000E5FEC14F0000E5FEC14F0D9
:10170800020E5FEC14F0100E5FEC14F0130E67EC91
:1017180014F0000E166E0A0E156E68EC11F0290E04
:1017280067EC14F0000E166E640E156E68EC11F07E
:10173800120028C02AF02B6A2C6A27342A3601E3C3
:101748002B802A50346E3450D8A402D039D063D0BC
:10175800170E2A6E26C02BF027C02CF028C02DF0BB
:101768002A282E6E04D0D8902D322C322B322E2ED1
:10177800FAD72B502F6E278EFF0E2616FF0E271630
:10178800000E28162650306E2750316E2850326EC3
:10179800336A8E0E345E34AE10D03450800A8F0F08
:1017A800D8B003D00DD037D000D0D89033323232F1
:1017B80031323032343EF9D719D0170E346411D093
:1017C800000E266E000E276E000E286E000E296E83
:1017D80022D007D0D89030363136323633363406F8
:1017E80000D03450D8B402D0F5D700D02F50D8B498
:1017F80009D0331E321E311E306C000E31223222C7
:10180800332200D030C026F031C027F032C028F093
:1018180033C029F000D012000001D06F65D041C05C
:101828000FF0106A000E126E0A0E116EC9EC0EF05F
:101838000F50300F0001A16F41C035F0366A000E1D
:10184800386E0A0E376E2AEC10F03550300F000152
:10185800A26F8350380B4110836E8392280E376E27
:10186800A10E386E000E396E070E3B6E3A68000EF8
:101878003D6E000E3C6E020E3E6E020E23EC0AF028
:101888003CD041C00FF0106A000E126E0A0E116EA5
:10189800C9EC0EF00F50300F0001A46F41C035F0B5
:1018A800366A000E386E0A0E376E2AEC10F0355084
:1018B800300F0001A56F8350380B4110836E83925F
:1018C800640E376EA40E386E000E396E000E3B6E35
:1018D8001F0E3A6E000E3D6E000E3C6E020E3E6EFE
:1018E800020E23EC0AF009D00001D051000AD8B446
:1018F80096D7010AD8B4C5D700D012001DC021F070
:10190800226A236A1C34213601E322802150286E82
:101918002850D8A402D00ED061D020C021F0226A6D
:10192800236A1F34213601E322802150296E295071
:10193800D8A407D0000E1B6E000E1C6E000E1D6E84
:101948004DD0000E256E000E266E000E276E295013
:10195800890F285E1DC029F02050291A800E2916EB
:101968001C8EFF0E1B16FF0E1C16000E1D161F8E5A
:10197800FF0E1E16FF0E1F16000E2016180E246EE0
:1019880000D0D8902536263627361E501B5C1F50AF
:101998001C5820501D58D8A007D01E501B5E1F5041
:1019A8001C5A20501D5A2580D8901B361C361D36CF
:1019B800242EE7D700D025C00FF026C010F027C08E
:1019C80011F028C012F029C013F0C9EC0DF00FC0B7
:1019D8001BF010C01CF011C01DF000D01200216EC9
:1019E800800E216069D09F0E166401D065D0FF0E6D
:1019F8001B6EFF0E1C6E175021C01DF01E6A1D269F
:101A0800000E1E221B501D261C501E221EBE0AD070
:101A18001E5004E1800E1D5CD8A004D0215000089F
:101A2800800F176EFF0E1B6EFF0E1C6E185016C02F
:101A38001DF01E6A1D26000E1E221B501D261C505E
:101A48001E221EBE0BD01E5004E1A00E1D5CD8A0A5
:101A580005D016500008A00F186E00D016C012F05E
:101A6800215017241B6E1B04136E165018241C6E6D
:101A78001C04146E2150BAEC11F01A501F6E19C0D4
:101A880020F08386839818C016F01650D8B413D067
:101A980001D011D017C021F02150D8B40AD001D0FC
:101AA80008D01F5043EC14F0205043EC14F02106EA
:101AB800F3D71606EAD7838812008484010E2AEC2D
:101AC80012F0010E06EC12F0010E4EEC12F0020EAE
:101AD80072EC12F04704D8A409D0080E0001D56FA3
:101AE800000E96EC12F0000E476E00D0060E4DEC7C
:101AF80013F0030E72EC12F0020E4DEC13F0010E0F
:101B080072EC12F080A210D0020E06EC12F0070E52
:101B18004DEC13F0030E06EC12F0020E4DEC13F030
:101B2800010E06EC12F000D0020E2AEC12F04F045F
:101B3800D8A409D0070E0001D56F010E96EC12F05B
:101B4800000E4F6E00D0020E2AEC12F0050E4DEC7E
:101B580013F0030E2AEC12F0020E4DEC13F0010EF6
:101B68002AEC12F080A810D0020E4EEC12F0060EED
:101B78004DEC13F0030E4EEC12F0020E4DEC13F088
:101B8800010E4EEC12F000D012001250D8B405D05D
:101B98000F5010101110D8A40ED0000E0F6E000EAA
:101BA800106E000E116E53D006D0122AD890113242
:101BB80010320F3200D0000E0F14146E000E1014E5
:101BC800156EFE0E1114166E145015101610D8B49A
:101BD8000ED0EBD70CD0122A010E0F26000E1022C1
:101BE800000E1122D890113210320F3200D0000EA0
:101BF8000F14146E000E1014156EFF0E1114166ECD
:101C0800145015101610D8B408D0E5D706D012060F
:101C1800D8900F361036113600D010BE04D0020E00
:101C28001260F5D700D012B002D0109E00D0D89024
:101C38001232125011121350D8B402D0118E00D0A3
:101C48000FC00FF010C010F011C011F000D012003A
:101C5800000E4F6E000E476E8494010E2AEC12F0AF
:101C6800010E06EC12F0010E4EEC12F0020E72ECB0
:101C780012F0060E4DEC13F0030E72EC12F0020E89
:101C88004DEC13F0010E72EC12F080A210D0020E8F
:101C980006EC12F0050E4DEC13F0030E06EC12F0F4
:101CA800020E4DEC13F0010E06EC12F000D0020EFD
:101CB8002AEC12F0070E4DEC13F0030E2AEC12F08A
:101CC800020E4DEC13F0010E2AEC12F080A810D091
:101CD800020E4EEC12F0050E4DEC13F0030E4EEC16
:101CE80012F0020E4DEC13F0010E4EEC12F000D083
:101CF8001200700ED36E1F0E926E070E936E000EBA
:101D0800946E000E956E000E966E7FEC14F039EC12
:101D180014F00EEC00F0F19E2EEC14F0000EA3EC83
:101D280010F02AC0A7F02BC0A8F02CC0A9F0A7C0BB
:101D38000FF0A8C010F0A9C011F0000E126E200E0E
:101D4800136E400E146E14EC0FF0D8B002D0010ED2
:101D580001D0000E4D6E00D04D04D8A405D0010E60
:101D68004E6E61EC0DF005D0000E4E6E2CEC0EF0B0
:101D780000D04804D8A4F0D7000E486E010E496E72
:101D88003EEC11F0E9D70CEF00F0000E146E12AE25
:101D980007D0116C121ED8B0122A010E146E00D092
:101DA80010AE07D00F6C101ED8B0102A010E141AEE
:101DB80000D0000E166E000E156E11501210D8B419
:101DC80021D0010E136E05D0D89011361236132A81
:101DD80000D012BE02D0F8D700D0D89015361636EB
:101DE80011500F5C12501058D8A006D011500F5E39
:101DF8001250105A158000D0D89012321132132E7A
:101E0800ECD700D01450D8B405D0156C161ED8B035
:101E1800162A00D015C00FF016C010F000D012001E
:101E280011AE17D00FC015F010C016F011C017F082
:101E3800151E161E171E152A000E16221722000E32
:101E480015240F6E000E1620106E800E1720116ECE
:101E580000D014AE17D012C015F013C016F014C07D
:101E680017F0151E161E171E152A000E1622172209
:101E7800000E1524126E000E1620136E800E172009
:101E8800146E00D0000E0F1A000E101A800E111AD0
:101E9800000E121A000E131A800E141A12500F5C3C
:101EA8001350105814501158D8B002D0D89002D0FE
:101EB800D88000D01200206E800E20603FD09F0E88
:101EC800166401D03BD0FF0E1A6EFF0E1B6E175022
:101ED80020C01CF01D6A1C26000E1D221A501C264C
:101EE8001B501D221DBE0BD01D5004E1800E1C5C32
:101EF800D8A005D020500008800F176E00D01950C8
:101F08001E6E18C01FF016C012F0205017241A6E4B
:101F18001A04136E16C014F02050BAEC11F0838620
:101F2800839807D01E5043EC14F01F5043EC14F074
:101F380000D017061728D8A4F5D783881200206E7A
:101F4800800E20603FD09F0E166401D03BD0FF0E5C
:101F58001A6EFF0E1B6E175016C01CF01D6A1C2649
:101F6800000E1D221A501C261B501D221DBE0BD010
:101F78001D5004E1A00E1C5CD8A005D01650000826
:101F8800A00F176E00D019501E6E18C01FF016C093
:101F980012F020C013F0165017241A6E1A04146E8B
:101FA8002050BAEC11F08386839807D01E5043EC7A
:101FB80014F01F5043EC14F000D017061728D8A4CB
:101FC800F5D7838812000600EACF04F0E1CF05F0C8
:101FD800E2CF06F0D9CF07F0DACF08F0F3CF09F057
:101FE800F4CF0AF0F6CF0BF0F7CF0CF0F8CF0DF0E6
:101FF800F5CF0EF0F2A203D077EC14F000D0F0A0E9
:1020080003D06FEC14F000D0F0A203D08AEC14F0E7
:1020180000D00EC0F5FF0DC0F8FF0CC0F7FF0BC0D5
:10202800F6FF0AC0F4FF09C0F3FF08C0DAFF07C0D3
:10203800D9FF06C0E2FF05C0E1FF04C0EAFF03C004
:10204800E9FF02C0FBFF01C0FAFF1100000E3A6E63
:1020580036AE07D0356C361ED8B0362A010E3A6E29
:1020680000D038AE05D0376C381ED8B0382A00D02A
:1020780037503810D8B41DD0010E396E05D0D8901D
:1020880037363836392A00D038BE02D0F8D700D0D3
:102098003750355C38503658D8A005D03750355EA3
:1020A8003850365A00D0D89038323732392EF0D7D7
:1020B80000D03A50D8B405D0356C361ED8B0362A80
:1020C80000D035C035F036C036F000D01200116EA1
:1020D800000EAC6E000EAB6E11A002D0AC8800D022
:1020E80011A203D0AC8CAB8C00D011A402D0AC8E62
:1020F80000D011A602D0AB8802D0AB8A00D011B8AC
:10210800AC849E9811AA02D0AB8600D011AC02D044
:102118009D8A01D09D9A9E9A11AE02D09D8801D0C9
:102128009D980FC0AFFF1050B06EAC8AAB8E949CD8
:10213800948EACB8ACBE02D0948C00D01200306E35
:102148003050040DF328C26ED6EC13F00FC031F0F6
:1021580010C032F031C00FF032C010F0000E126E15
:10216800050E116EAEEC13F00FC017F010C018F08A
:10217800F5EC12F017C01BF018C01CF019C01DF0C8
:10218800000E1E6E800E1F6E440E206E82EC0CF048
:102198001BC02DF01CC02EF01DC02FF02DC02AF042
:1021A8002EC02BF02FC02CF000D0120023C016F048
:1021B80025C017F029C018F02AC019F021505FEC8B
:1021C8000FF0235027242B6E2B04166E25C017F012
:1021D80029C018F02AC019F021505FEC0FF023C075
:1021E80016F027C017F029C018F02AC019F021509E
:1021F800A3EC0FF023C016F027C017F029C018F081
:102208002AC019F0215025242B6E2B04A3EC0FF0C3
:10221800120000EEA7F0220EEE6AE806FDE100EEDD
:1022280042F0180EEE6AE806FDE1840EF66E270EFF
:10223800F76E000EF86E00EE80F010EE27F0090041
:10224800F5CFEEFFE550E150FAE1440EF66E280EA8
:10225800F76E000EF86E00EE5AF010EE18F0090056
:10226800F5CFEEFFE550E150FAE1000EF86E0001FF
:102278007DEF0EF025D04850D8A41DD0010E72EC89
:1022880012F0010E4EEC12F0010E2AEC12F0010EC3
:1022980006EC12F008EC14F0000E72EC12F0000ECE
:1022A8004EEC12F0000E2AEC12F0000E06EC12F0C2
:1022B80008EC14F005D0000E486E000E496E00D0F0
:1022C8004904D8B4D8D7120015C00FF016C010F0C2
:1022D800000E126EFA0E116EAEEC13F00FC019F06C
:1022E80010C01AF019C017F01AC018F0171E181EDF
:1022F800174A182AFF0E1724196EFF0E18201A6E97
:10230800B80EB16E19C0B2FF1A50B36EA192B18067
:1023180000D0A1A2FED7B19012003D5000083B2486
:10232800166ED8803D34176E3FC018F040C019F0C3
:102338003950A3EC0FF039C021F03AC022F03BC06D
:1023480023F03CC024F03DC025F03EC026F0000E2E
:10235800286E030E276E000E2A6E000E296E3FC0EF
:102368002BF040C02CF0FFEC08F01200156E2A0E7E
:1023780067EC14F0000E5FEC14F0155056245FEC77
:1023880014F0000E5FEC14F0135056245FEC14F0B8
:102398002B0E67EC14F0000E5FEC14F01250592469
:1023A8005FEC14F0000E5FEC14F0145059245FEC4D
:1023B80014F02C0E67EC14F01200296E29C02AF0D4
:1023C8002B6A0ED021C016F023C017F024C018F0D5
:1023D80025C019F02A50A3EC0FF02A4A2B2A00D066
:1023E800225029C026F0276A2626000E27222650CA
:1023F8002A5C2B50800A286E2750800A2858D8A0BB
:10240800E1D712000001CB6F030E586ECBC041F02C
:102418005850CCEC03F00AD0849001D08480849288
:1024280014D0849001D0848084820FD00001CB51D5
:10243800000AD8B4F1D7010AD8B4F0D7030AD8B43F
:10244800F0D7010AD8B4EFD700D012000001CB6F43
:10245800020E586ECBC041F05850CCEC03F00AD0B5
:10246800829001D08280829414D0829001D08280A0
:1024780082840FD00001CB51000AD8B4F1D7010AE9
:10248800D8B4F0D7030AD8B4F0D7010AD8B4EFD734
:1024980000D012000001CB6F010E586ECBC041F086
:1024A8005850CCEC03F00AD0819801D08188819AE9
:1024B80014D0819801D08188818A0FD00001CB5136
:1024C800000AD8B4F1D7010AD8B4F0D7030AD8B4AF
:1024D800F0D7010AD8B4EFD700D012000001CB6FB3
:1024E800000E586ECBC041F05850CCEC03F00AD027
:1024F800809A01D0808A819614D0809A01D0808AEF
:1025080081860FD00001CB51000AD8B4F1D7010A57
:10251800D8B4F0D7030AD8B4F0D7010AD8B4EFD7A3
:1025280000D012000001D66F0001D5050001D76F59
:102538000001D7510001D8B40DD001D00BD0D7C0BD
:1025480041F00001D65110EC0CF0E9EC13F0000159
:10255800D707EED7000E416E0001D65110EC0CF0F3
:10256800E9EC13F012002A0E67EC14F0000E5FEC91
:1025780014F0000E5FEC14F0000E5FEC14F07F0E08
:102588005FEC14F02B0E67EC14F0000E5FEC14F007
:10259800000E5FEC14F0000E5FEC14F09F0E5FEC81
:1025A80014F012000FC013F010C014F003D0134A37
:1025B800142A00D013C0D9FF14C0DAFFDF50D8A402
:1025C800F6D70FC011F010C012F0111E121E114ADA
:1025D800122A135011240F6E14501220106E00D0BE
:1025E8001200000E1A6E18AE07D0176C181ED8B05D
:1025F800182A010E1A6E00D017C00FF018C010F07C
:10260800116A8E0E126E1AC013F0C9EC0DF00FC0CD
:1026180017F010C018F011C019F000D0120044C013
:102628000FF045C010F0FA0E116EFF0E126E68EC36
:1026380013F0020E376E44C038F045C039F0FF0E73
:102648003B6E3A68000E3D6E000E3C6E010E3E6E0B
:10265800780E23EC0AF0120044C00FF045C010F0C9
:10266800FC0E116EFF0E126E68EC13F0020E376E40
:1026780044C038F045C039F0FF0E3B6E3A68000E92
:102688003D6E000E3C6E010E3E6E780E23EC0AF095
:1026980012000001D56FD5C0D6F00001D651000157
:1026A800D8B40CD001D00AD0D6C041F058508FEC25
:1026B80007F008EC14F00001D607EFD7000E416EC2
:1026C80058508FEC07F012000FC013F010C014F030
:1026D80005D0134A142A114A122A00D011C0F6FF55
:1026E80012C0F7FF13C0D9FF14C0DAFF0800F5CFF6
:1026F800DFFFDF50D8A4EDD71200196E800E1960E5
:1027080013D09F0E166401D00FD016C012F01928EE
:10271800136E1628146E1950BAEC11F018505FECAD
:1027280014F017505FEC14F0120083888396800E23
:10273800C76E300EC66E9BEC09F0B7EC12F024ECB5
:102748000BF0360E67EC14F0C00E5FEC14F0010EBF
:10275800556E12000F501102F3CF13F0F4CF14F09E
:102768000F501202F350142610501102F350142681
:1027780013C00FF014C010F000D0120053503234C0
:102788002F312F3031203030303030302030303061
:102798003000322E355600303000303000303000F6
:1027A80030300000C28200D0C2B2FED7C450126ED0
:1027B800116AC3501124136E000E1220146E13C038
:1027C8000FF014C010F000D01200838E30EC13F01C
:1027D80056EC14F015EC14F0839E13EC13F086EC11
:1027E80014F015EC14F07CEC05F01200000E166ED7
:1027F800800E176EA00E186E22C019F023C01AF0B2
:10280800000EF3EC0CF01200838E30EC13F015EC94
:1028180014F0839E13EC13F015EC14F07CEC05F027
:102828001200030ED56EDB0ED66E0B0ED76EF29429
:10283800D58E00D0F2A4FED7D59E1200013030000C
:102848003030002D440044003000300030003000AB
:1028580030003000F292F090F092F19CF19AF198E9
:10286800F288F086F088F28E1200000E106E190EB3
:102878000F6E3C0E6BEC10F0700ED36E1200106EE3
:102888009E96C9CF0FF010C0C9FF00D0C7A0FED7D1
:102898001200839A000E166E640E156E68EC11F025
:1028A800838A1200F90ECB6E050ECA6E4A0EBB6EF5
:1028B8003C0EBA6E1200116E83988386115043EC59
:1028C80014F083881200116E83988396115043EC9C
:1028D80014F083881200F0904E04D8A403D0010E9F
:1028E8004F6E00D01200F2924E04D8A403D0010E0D
:1028F800476E00D01200010EC26E0E0EC16EA90EF8
:10290800C06E1200000EBA6E82921200F092010E92
:04291800486E1200F3
:10FDCE0000000000000000005F00000007000700B8
:10FDDE00147F147F14242A7F2A1223130864623698
:10FDEE00495620500008070300001C224100004124
:10FDFE00221C002A1C7F1C2A08083E08080080705E
:10FE0E003000080808080800006060002010080490
:10FE1E00023E5149453E00427F40007249494946E3
:10FE2E002141494D331814127F1027454545393C61
:10FE3E004A4949314121110907364949493646494E
:10FE4E0049291E0000140000004034000000081470
:10FE5E0022411414141414004122140802015909E9
:10FE6E00063E415D594E7C1211127C7F494949363E
:10FE7E003E414141227F4141413E7F494949417FB7
:10FE8E00090909013E414151737F0808087F00416D
:10FE9E007F41002040413F017F081422417F4040B6
:10FEAE0040407F021C027F7F0408107F3E4141418B
:10FEBE003E7F090909063E4151215E7F09192946F7
:10FECE00264949493203017F01033F4040403F1F0D
:10FEDE002040201F3F4038403F6314081463030442
:10FEEE007804036159494D43007F414141020408A2
:10FEFE001020004141417F04020102044040404075
:10FF0E0040000307080020545478407F28444438AA
:10FF1E003844444428384444287F385454541800F4
:10FF2E00087E090218A4A49C787F08040478004473
:10FF3E007D40002040403D007F1028440000417F5E
:10FF4E0040007C047804787C0804047838444444E7
:10FF5E0038FC1824241818242418FC7C08040408DF
:10FF6E00485454542404043F44243C4040207C1CF8
:10FF7E002040201C3C4030403C44281028444C90EB
:10FF8E0090907C4464544C44000836410000007745
:10FF9E0000000041360800020102040245575020BD
:10FFAE0045574C54204E5350204E534C5420522003
:10FFBE0053004E4F5254482F534F5554480045410D
:10FFCE0053542F57455354004E2F53204C54004535
:10FFDE002F57204C54004D6F64653A004C53563ADF
:10FFEE0000504E5300504557002D440020002A006B
:02FFFE00000001
:020000040020DA
:08000000FFFFFFFFFFFFFFFF00
:020000040030CA
:0E000000FF08191EFF8381FF0FC00FE00F40A5
:00000001FF
