:040000000CEF00F011
:10000800FACF03F0FBCF04F0E9CF05F058ED0BF081
:1000180096EF0BF01F0E306E000E316E99D1250E43
:100028003818D8B404D038500BEC10F091D1000E29
:10003800376E000E366E000E356E05D035841D4ABB
:100048001E2A01D00BD01DC0F6FF1EC0F7FF080006
:10005800F550300AD8B4F2D701D0F5D71DC0F6FF55
:100068001EC0F7FF0800F5501FEC0FF0D8A03BD0DA
:10007800000E376E000E366E00D036C011F037C055
:1000880012F0000E146E0A0E136EE6EC0EF011C09C
:1000980036F012C037F0D00E2B6EFF0E2C6E1DC03E
:1000A800F6FF1EC0F7FF0800F5502D6E2E6A2B5084
:1000B8002D262C502E222D5036262E5037221D4A02
:1000C8001E2A1DC0F6FF1EC0F7FF0800F5501FECE2
:1000D8000FF0D8A008D0D1D706D048D11BD0358E84
:1000E80019D036D117D01DC0F6FF1EC0F7FF1D4A24
:1000F8001E2A0800F5CF38F03850000AD8B436D197
:10010800640AD8B407D00D0AD8B404D0110AD8B4F8
:10011800E6D71ED135BE15D030C0D9FF31C0DAFFC1
:10012800DECF33F0DDCF34F0020E3026000E312260
:1001380034AE4ED0030E3512336C341ED8B0342A88
:1001480047D030C0D9FF31C0DAFFDECF33F0DDCF82
:1001580034F0020E3026000E31223AD0010E386EED
:10016800050E3818D8B43DD001D03BD03850020D18
:100178004E0EF324F66EFF0EF420F76E0900F550CC
:10018800335C0900F5503458D8A02BD001D029D0C1
:10019800382AE6D726D0010E386E040E3818D8B49F
:1001A80020D001D01ED03850020D580EF324F66E20
:1001B800FF0EF420F76E0900F550335C0900F55086
:1001C8003458D8A00ED001D00CD0382AE6D709D0A0
:1001D8003550800B000AD8B4C1D7800AD8B4DBD711
:1001E80000D036503710D8B40AD035C02BF0030EE3
:1001F8002B16D8B404D03606D8A0370600D0800E07
:1002080038BE7F0E2B6E3650385C3750800A2B581C
:10021800D8B007D03850365E000E38BEFF0E375AB9
:1002280005D0000E376E000E366E00D035A41AD0F9
:1002380035C02BF0030E2B16D8B404D02D0E0BECC2
:1002480010F000D036503710D8B426D0300E0BEC52
:1002580010F03606D8A0370636503710D8B41CD060
:10026800F5D71AD036503710D8B40CD0200E0BEC76
:1002780010F03606D8A0370636503710D8B402D05A
:10028800F5D700D035C02BF0030E2B16D8B404D008
:100298002D0E0BEC10F000D038C032F053D045D002
:1002A8003250020D4E0EF324F66EFF0EF420F76E58
:1002B8000900F5CF13F00A00F5CF14F033C011F0A0
:1002C80034C012F0AAEC0CF011C018F012C019F0EA
:1002D800000E1B6E0A0E1A6E51EC0DF01850300FFE
:1002E800386E2CD033C011F034C012F03250020DE9
:1002F800580EF324F66EFF0EF420F76E0900F5CFC2
:1003080013F00A00F5CF14F0AAEC0CF011500F0B03
:100318002F6E2F50010DE50EF324F66EFF0EF4201C
:10032800F76E0800F5CF38F009D03550800B000A79
:10033800D8B4B6D7800AD8B4D5D700D038500BEC8B
:1003480010F000D032063228D8B402D0EED700D050
:100358001DC0F6FF1EC0F7FF1D4A1E2A0800F5CF74
:1003680038F03850D8B402D05AD600D01200B3ECC6
:100378000FF0700ED36EF19E000E806E000E816E2F
:10038800000E826E000E836E000E846E000E926E5A
:10039800010E936E010E946E000E956E000E966E11
:1003A8000F0EC16E32EC0AF0030EB16EA00E116E84
:1003B800860E126E010E136E000E146E23EC10F0F2
:1003C80051EC0FF088EC0FF0000E456E000E466EF3
:1003D800000E476E000E486E83828384320E5D6E77
:1003E8005D50D7EC09F000D078EC0CF062506D1835
:1003F800D8B46AD062C06DF082EC0EF014500001DF
:10040800FD6F0001FD51116E126A11BE1206000E39
:10041800146E090E136EE6EC0EF011C017F012C040
:1004280018F0000E1A6E050E196E8AEC0AF01750B5
:10043800200F0001FA6F06EC0EF01FC0FBF020C081
:10044800FCF05DC01FF0206AE6EC0DF0FBC01FF069
:10045800FCC020F077EC0DF08B0E1D6EFF0E1E6EAB
:100468005EC01FF0206A5FC021F0226A62C023F0DC
:10047800246A60C025F0266A5BC027F0286A6CC031
:1004880029F02A6A0EEC00F0600E1D6EFF0E1E6E3B
:100498000001FD511F6E206A1FBE20060001FA519F
:1004A800216E226A21BE22060EEC00F0D20E1D6ECD
:1004B800FF0E1E6EFBC01FF0FCC020F05DC021F0D7
:1004C800226A0EEC00F000D049044A10D8A48CD758
:1004D800000E4A6E000E496E47EC10F0BF0E1D6EFE
:1004E800FF0E1E6E52C01FF0206A0EEC00F00001D5
:1004F800FF69000E0001FE6F140E0001FE6501D0B9
:1005080013D00001FE51010DD40EF324D96E000E54
:10051800F420DA6E5250DE18D8A403D0FEC0FFF0E3
:1005280000D00001FE2BE8D70001FF29D8B45CD722
:10053800A90E1D6EFF0E1E6EFFC01FF0206A0EEC86
:1005480000F0000E3C6E3C0E3B6E000E3E6E500EF0
:100558003D6E000E406E140E3F6E0001FF51020DFD
:10056800000EF324D96E010EF420DA6EDECF41F0CE
:10057800DDCF42F0D8EC0CF0000E1D6E3C0E1C6E68
:10058800000E1F6E500E1E6E000E216E140E206E91
:10059800FF0E236E226845EC03F04D0E396E000104
:1005A800FF51040D2A0EF3243A6E010EF4203B6E1F
:1005B800FF0E3D6E3C68000E3F6E000E3E6E010E53
:1005C800406E340EA8EC06F00001FF51010D950EA7
:1005D800F324D96E000EF420DA6EDF50446E000169
:1005E800FF51010D800EF324D96E000EF420DA6E4F
:1005F800DF504410806E0001FF51010DAA0EF32454
:10060800D96E000EF420DA6EDF50816E0001FF51C2
:10061800010DBF0EF324D96E000EF420DA6EDF5000
:10062800446E4446444682504418FB0B4418826E7C
:10063800838ECFEC0FF028EC10F037EC10F05D5003
:10064800D7EC09F0839EA20E5218D8A403D045EC2B
:100658000CF000D0C20E5218D8A403D09FEC0FF0B3
:1006680000D0E00E5218D8A403D030EC0FF000D020
:10067800A80E5218D8A4B8D60DEC0FF0B5D60CEFCA
:1006880000F020C024F021C025F0241E251E244A95
:10069800252A010E24242A6E000E25202B6E000E1A
:1006A800276E010E266E20C024F021C025F0D890B8
:1006B80024362536241E251E244A252A24C028F03F
:1006C80025C029F0000E2D6E000E2C6E20C02EF0D5
:1006D80021C02FF01E502024186E22C019F023C00C
:1006E8001AF01C50B9EC0EF0205000081E24186EA9
:1006F80022C019F023C01AF01C50B9EC0EF01EC02D
:1007080018F022C019F023C01AF01C502024B9ECAC
:100718000EF01EC018F022C019F023C01AF02050A5
:1007280000081C24B9EC0EF078D02BBE0BD02E0696
:10073800D8A02F06020E2826000E292228502A2685
:1007480029502B222C4A2D2A020E2626000E27225B
:1007580026502A2627502B221E502E24186E22C0DF
:1007680019F023C01AF01C502C24B9EC0EF01E50BE
:100778002E24186E22C019F023C01AF02C5000083D
:100788001C24B9EC0EF02E5000081E24186E22C04E
:1007980019F023C01AF01C502C24B9EC0EF02E507E
:1007A80000081E24186E22C019F023C01AF02C501D
:1007B80000081C24B9EC0EF01E502C24186E22C020
:1007C80019F023C01AF01C502E24B9EC0EF01E505C
:1007D8002C24186E22C019F023C01AF02E500008DD
:1007E8001C24B9EC0EF02C5000081E24186E22C0F0
:1007F80019F023C01AF01C502E24B9EC0EF02C501E
:1008080000081E24186E22C019F023C01AF02E50BA
:1008180000081C24B9EC0EF000D02E502C5C2D5092
:10082800800A246E2F50800A2458D8A07ED7120040
:10083800F2925350D8B4A7D0CE50CFCF01F0026A6D
:1008480001C002F0016A01104B6E02504C6E000E9E
:10085800CF6E000ECE6E97D0000ECF6E000ECE6E0D
:100868009E90900ECD6ECD80000E596E000E456E96
:10087800000E466E000E476E000E486E010E536E57
:1008880053C084FF7ED090D0340E4B5C210E4C5860
:10089800D8A009D01D0E4B5C250E4C58D8B003D0FB
:1008A800020E536E27D043EC10F02AD029D07CD00A
:1008B800A00E4B5C0F0E4C58D8A009D0890E4B5C8B
:1008C800130E4C58D8B003D0030E536E54D043ECDB
:1008D80010F057D056D068D0900E4B5C010E4C5893
:1008E800D8A00BD0BD0E4B5C020E4C58D8B005D02A
:1008F800040ED7D753C084FF03D043EC10F000D0C8
:10090800F19C52D0900E4B5C010E4C58D8A036D0BA
:10091800090E4B5C070E4C58D8B030D0D8904534EF
:10092800456E4634466E4734476E4834486EE90E85
:100938004B5C030E4C58D8A00CD0010E4524456ED4
:10094800000E4620466E000E4720476E000E4820D7
:10095800486E5928596E1F0E5964B6D746C052F0D2
:10096800000E536E53C084FF000E4A6E010E496E8E
:10097800F29807D0A9D753C084FF03D043EC10F0F6
:1009880000D0F18C11D05350000AD8B465D7010AB1
:10099800D8B47AD7030AD8B48BD7010AD8B49CD76D
:1009A800070AD8B4AFD700D01200366E800E366072
:1009B800A6D09F0E2E6401D0A2D03450D8A403D064
:1009C800010E346E00D01F0E2F6404D07E0E2F64EB
:1009D80003D000D03F0E2F6E000E386E040E386420
:1009E80001D08DD0530E2F6015D0E00E2F24116E3C
:1009F800126AFF0E1222000E146E050E136EE6EC3C
:100A08000EF038501126000E1222730E1124F66EC5
:100A1800FD0E14D0AD0E2F24116E126AFF0E122295
:100A2800000E146E050E136EE6EC0EF0385011260B
:100A3800000E1222720E1124F66EFE0E1220F76EB0
:100A48000800F5CF35F000D0000E376E060E37647B
:100A580001D053D035A023D03404D8A40CD02E50C4
:100A68003724186E30C019F031C01AF036503824C7
:100A7800B9EC0EF03ED037503402F3502E24236EDA
:100A880034C024F034C025F030C026F031C027F03F
:100A980038503402F35036249DEC0DF02AD03050F3
:100AA800321804E131503318D8B423D03404D8A410
:100AB8000CD02E503724186E32C019F033C01AF0FB
:100AC80036503824B9EC0EF014D037503402F350B5
:100AD8002E24236E34C024F034C025F032C026F012
:100AE80033C027F038503402F35036249DEC0DF013
:100AF80000D0372AD8903532A9D7382A6FD71200B4
:100B080027C02FF028C030F02F1E301E2F4A302A61
:100B1800010E2F24356E000E3020366E000E326E18
:100B2800010E316E27C02FF028C030F0D8902F3634
:100B380030362F1E301E2F4A302A2FC033F030C0D7
:100B480034F0000E386E000E376E27C039F028C01A
:100B58003AF067D036BE0BD03906D8A03A06020E56
:100B68003326000E34223350352634503622374A85
:100B7800382A020E3126000E3222315035263250E4
:100B8800362229A025D0395000082524186E39505E
:100B980039242B242F6E2F28196E2DC01AF02EC041
:100BA8001BF023503724D5EC0AF0375000082524D1
:100BB800186E375037242B242F6E2F28196E2DC00E
:100BC8001AF02EC01BF023503924D5EC0AF000D0BF
:100BD80029A227D0395000082524186E3950392405
:100BE8002B242F6E2F28196E2DC01AF02EC01BF043
:100BF800375000082324D5EC0AF037500008252484
:100C0800186E375037242B242F6E2F28196E2DC0BD
:100C18001AF02EC01BF0395000082324D5EC0AF036
:100C280000D03950375C3850800A2F6E3A50800A0D
:100C38002F58D8A08FD71200010E03EC10F0000E29
:100C4800186E960E176E01EC0DF0110E03EC10F0F5
:100C5800010E186EF40E176E01EC0DF0B10E03ECD8
:100C680010F0010EFBEC0FF02C0EFBEC0FF02D0E2C
:100C7800FBEC0FF0B20E03EC10F0010EFBEC0FF0E2
:100C88002C0EFBEC0FF02D0EFBEC0FF0B30E03EC6B
:100C980010F0010EFBEC0FF02C0EFBEC0FF02D0EFC
:100CA800FBEC0FF0010EFBEC0FF02C0EFBEC0FF041
:100CB8002D0EFBEC0FF0B40E03EC10F0070EFBEC5E
:100CC8000FF0C00E03EC10F0A20EFBEC0FF0020EBA
:100CD800FBEC0FF0840EFBEC0FF0C10E03EC10F0F0
:100CE800C50EFBEC0FF0C20E03EC10F00A0EFBEC85
:100CF8000FF0000EFBEC0FF0C30E03EC10F08A0EA1
:100D0800FBEC0FF02A0EFBEC0FF0C40E03EC10F016
:100D18008A0EFBEC0FF0EE0EFBEC0FF0C50E03ECA9
:100D280010F00E0EFBEC0FF0200E03EC10F0360E58
:100D380003EC10F0C80EFBEC0FF03A0E03EC10F0C9
:100D4800050EFBEC0FF012000001F36FF3C0F9F091
:100D580039C0F8F03AC011F03BC012F025EC0EF0A3
:100D680011C0F4F012C0F5F0000E0001F76F000E8C
:100D7800F66F64D06E50D8B434D04050050D0001E1
:100D8800F951416E426AF3504126F450422242BE64
:100D980028D0425004E1810E415CD8A022D0000E38
:100DA8000001F96F4050070DF3500001F825030FBB
:100DB8000001F86FA00E0001F86504D0A00E000134
:100DC800F86F00D00001F6513A24D96E0001F751AE
:100DD8003B20DA6E200EDE18D8B42CD002D02AD0F0
:100DE80000D0F8C02EF00001F6513A24D96E000167
:100DF800F7513B20DA6EDF502F6E3CC030F03DC01B
:100E080031F03EC032F03FC033F040C034F0000152
:100E1800F951D9EC04F04050060DF3500001F925C2
:100E28000001F96F800E0001F96504D0800E000101
:100E3800F96F00D00001F64BF72B00D00001F451F8
:100E48000001F65D0001F5510001F759D8A092D7CD
:100E580012001FC023F0246A256A1E34233601E3DA
:100E680024802350266E2650D8A402D00ED06CD0F1
:100E780022C023F0246A256A2134233601E3248022
:100E880023502B6E2B50D8A407D0000E1D6E000ED9
:100E98001E6E000E1F6E58D02B507B0F26261FC0CB
:100EA8002BF022502B1A800E2B161E8E218EFF0E31
:100EB8002016FF0E2116000E2216000E276E000EB9
:100EC800286E000E296E070E2A6E00D01DA007D0CE
:100ED80020502726215028222250292200D0D8909D
:100EE8001F321E321D32D8902036213622362A2E45
:100EF800EDD700D0090E2A6E00D01DA007D02050D3
:100F08002726215028222250292200D0D8901F328B
:100F18001E321D32D8902932283227322A2EEDD798
:100F280000D027C011F028C012F029C013F026C045
:100F380014F02BC015F074EC09F011C01DF012C0AC
:100F48001EF013C01FF000D01200E00E03EC10F0EA
:100F5800020EFBEC0FF01C0EFBEC0FF0070EFBEC87
:100F68000FF0120EFBEC0FF0370EFBEC0FF0320E09
:100F7800FBEC0FF0290EFBEC0FF02D0EFBEC0FF045
:100F8800290EFBEC0FF0250EFBEC0FF02B0EFBEC03
:100F98000FF0390EFBEC0FF0000EFBEC0FF0010E1A
:100FA800FBEC0FF0030EFBEC0FF0100EFBEC0FF058
:100FB800E10E03EC10F0030EFBEC0FF01D0EFBEC42
:100FC8000FF0070EFBEC0FF0060EFBEC0FF02E0EE9
:100FD800FBEC0FF02C0EFBEC0FF0290EFBEC0FF0E6
:100FE8002D0EFBEC0FF02E0EFBEC0FF02E0EFBEC93
:100FF8000FF0370EFBEC0FF03F0EFBEC0FF0000E7E
:10100800FBEC0FF0000EFBEC0FF0020EFBEC0FF008
:10101800100EFBEC0FF0130E03EC10F0000E186E20
:101028000A0E176E01EC0DF0290E03EC10F0000EFD
:10103800186E640E176E01EC0DF0120013C015F057
:10104800166A176A1234153601E3168015501F6E9A
:101058001F50D8A402D039D063D0170E156E11C016
:1010680016F012C017F013C018F01528196E04D026
:10107800D890183217321632192EFAD716501A6E1F
:10108800128EFF0E1116FF0E1216000E13161150B7
:101098001B6E12501C6E13501D6E1E6A8E0E1F5E44
:1010A8001FAE10D01F50800A8F0FD8B003D00DD0BC
:1010B80037D000D0D8901E321D321C321B321F3E52
:1010C800F9D719D0170E1F6411D0000E116E000E3B
:1010D800126E000E136E000E146E22D007D0D89038
:1010E8001B361C361D361E361F0600D01F50D8B4BE
:1010F80002D0F5D700D01A50D8B409D01E1E1D1E34
:101108001C1E1B6C000E1C221D221E2200D01BC0A0
:1011180011F01CC012F01DC013F01EC014F000D056
:1011280012002EC032F0336A346A2D34323601E3AD
:1011380033803250396E3950D8A402D00ED061D0E5
:1011480031C032F0336A346A3034323601E33380E6
:1011580032503A6E3A50D8A407D0000E2C6E000ECA
:101168002D6E000E2E6E4DD0000E366E000E376EB0
:10117800000E386E3A50890F395E2EC03AF0315061
:101188003A1A800E3A162D8EFF0E2C16FF0E2D16CB
:10119800000E2E16308EFF0E2F16FF0E3016000E84
:1011A8003116180E356E00D0D890363637363836A8
:1011B8002F502C5C30502D5831502E58D8A007D0C5
:1011C8002F502C5E30502D5A31502E5A3680D890E0
:1011D8002C362D362E36352EE7D700D036C011F0F6
:1011E80037C012F038C013F039C014F03AC015F007
:1011F80074EC09F011C02CF012C02DF013C02EF0C1
:1012080000D01200236E800E236069D09F0E1864F0
:1012180001D065D0FF0E1D6EFF0E1E6E195023C043
:101228001FF0206A1F26000E20221D501F261E5068
:10123800202220BE0AD0205004E1800E1F5CD8A0D6
:1012480004D023500008800F196EFF0E1D6EFF0E8C
:101258001E6E1A5018C01FF0206A1F26000E20228A
:101268001D501F261E50202220BE0BD0205004E106
:10127800A00E1F5CD8A005D018500008A00F1A6E49
:1012880000D018C014F0235019241D6E1D04156ECB
:1012980018501A241E6E1E04166E23502AEC0DF0E8
:1012A8001C50216E1BC022F0838683981AC018F048
:1012B8001850D8B413D001D011D019C023F023503E
:1012C800D8B40AD001D008D02150A9EC0FF0225090
:1012D800A9EC0FF02306F3D71806EAD78388120083
:1012E8001450D8B405D0115012101310D8A40ED031
:1012F800000E116E000E126E000E136E53D006D043
:10130800142AD89013321232113200D0000E111460
:10131800166E000E1214176EFE0E1314186E165069
:1013280017101810D8B40ED0EBD70CD0142A010E11
:101338001126000E1222000E1322D89013321232F8
:10134800113200D0000E1114166E000E1214176E12
:10135800FF0E1314186E165017101810D8B408D0B2
:10136800E5D706D01406D89011361236133600D0B9
:1013780012BE04D0020E1460F5D700D014B002D00B
:10138800129E00D0D8901432145013121550D8B4AD
:1013980002D0138E00D011C011F012C012F013C089
:1013A80013F000D01200416E040ECB6E070ECA6E09
:1013B800000E206E800E216E400E226E4150FAEC17
:1013C8000EF019C01DF01AC01EF01BC01FF02DEC46
:1013D80007F01DC02CF01EC02DF01FC02EF0000E0F
:1013E8002F6EA00E306E410E316E95EC08F02CC0B9
:1013F8003EF02DC03FF02EC040F03EC011F03FC07F
:1014080012F040C013F022EC08F011C042F012C0F4
:1014180043F041503B6E3C6A42503B5C3C50800A72
:101428003D6E4350800A3D58D8B003D0424A432A03
:1014380000D042C03BF0030E3B163B38F00B0C09C2
:10144800BD6E42C03BF043C03CF03C343C323B32C2
:101458003C343C323B323B50BE6E1200BDEC0FF0C8
:10146800D1EC0EF0000E256E000E246E60EC0FF02D
:101478007E0E4F6E010E506E4FC011F050C012F02C
:10148800F60E136EFF0E146EA0EC0EF0020E396EFF
:101498004FC03AF050C03BF0FF0E3D6E3C68000E66
:1014A8003F6E000E3E6E010E406E320EA8EC06F046
:1014B80005D0530E0001E96F500E04D0460E00010E
:1014C800E96F410E0001EA6F320E0001EB6F350E35
:1014D8000001EC6F320E0001EE6F300E0001F06F6C
:1014E800320E0001F16F960E396EE90E3A6E000E5B
:1014F8003B6EFF0E3D6E3C68000E3F6E000E3E6E6A
:10150800010E406E010EA8EC06F01200000E1C6ED3
:101518001AAE07D0196C1A1ED8B01A2A010E1C6E02
:1015280000D018AE07D0176C181ED8B0182A010EB4
:101538001C1A00D0000E1E6E000E1D6E19501A10D7
:10154800D8B421D0010E1B6E05D0D89019361A36A2
:101558001B2A00D01ABE02D0F8D700D0D8901D366A
:101568001E361950175C1A501858D8A006D01950B2
:10157800175E1A50185A1D8000D0D8901A321932A6
:101588001B2EECD700D01C50D8B405D01D6C1E1EE5
:10159800D8B01E2A00D01DC017F01EC018F000D009
:1015A8001200226E800E22603FD09F0E186401D078
:1015B8003BD0FF0E1C6EFF0E1D6E195018C01EF09A
:1015C8001F6A1E26000E1F221C501E261D501F2299
:1015D8001FBE0BD01F5004E1A00E1E5CD8A005D082
:1015E80018500008A00F196E00D01B50206E1AC0AA
:1015F80021F018C014F022C015F0185019241C6EE0
:101608001C04166E22502AEC0DF08386839807D0AE
:101618002050A9EC0FF02150A9EC0FF000D01906CA
:101628001928D8A4F5D78388120000F800F800F824
:10163800FF07FF07E0071F001F001FF8000000005A
:101648000000000000000000000000000000000092
:101658000000000043482D004348200043482B0069
:101668007C3C3C003E3E7C003E7C7C00202D2000E3
:10167800202B200045512000203020003130300040
:10168800323030002031200020322000203320006A
:10169800203420002035200020362000203720006C
:1016A80020382000203920000600EACF06F0E1CFDC
:1016B80007F0E2CF08F0D9CF09F0DACF0AF0F3CF7C
:1016C8000BF0F4CF0CF0F6CF0DF0F7CF0EF0F8CF0B
:1016D8000FF0F5CF10F09EA003D018EC10F000D05A
:1016E800F2A203D01CEC04F000D010C0F5FF0FC02C
:1016F800F8FF0EC0F7FF0DC0F6FF0CC0F4FF0BC0DB
:10170800F3FF0AC0DAFF09C0D9FF08C0E2FF07C02B
:10171800E1FF06C0EAFF05C0E9FF04C0FBFF03C004
:10172800FAFF110001EE7EF01F0EEE6AE806FDE1F9
:1017380000EE45F0280EEE6AE806FDE1320EF66E80
:10174800160EF76E000EF86E01EE00F010EE7EF049
:101758000900F5CFEEFFE550E150FAE1A60EF66E6E
:10176800170EF76E000EF86E00EE80F010EE73F0B4
:101778000900F5CFEEFFE550E150FAE1940EF66E60
:10178800200EF76E000EF86E0900F5CF6DF0090017
:10179800F5CF6EF0000EF86E0001BBEF01F001010D
:1017A800010606020400000000000000000000001E
:1017B80000000000000000000000202838383838F9
:1017C80038000000000000000000000000000000D9
:1017D8000000000000003838383838383800000079
:1017E80000000000000001000001010101010101E9
:1017F8000101A262E22202C2E0A8906898B0301803
:101808007A10385A424A52535032342F322F3031DC
:101818000000136E000EAC6E000EAB6E13A002D06B
:10182800AC8800D013A203D0AC8CAB8C00D013A42E
:1018380002D0AC8E00D013A602D0AB8802D0AB8AFF
:1018480000D013B8AC849E9813AA02D0AB8600D0FF
:1018580013AC02D09D8A01D09D9A9E9A13AE02D0F5
:101868009D8801D09D9811C0AFFF1250B06EAC8A10
:10187800AB8E949C948EACB8ACBE02D0948C00D045
:101888001200680E136E000E146E000E626E300E9B
:101898005F6E020E5E6E050E5C6E300E5B6E100E95
:1018A800606E250E6C6EEAEC0FF01350132463EC97
:1018B8000EF0145063EC0EF0625063EC0EF05F50C3
:1018C80063EC0EF05E5063EC0EF05C5063EC0EF0CF
:1018D8005B5063EC0EF0605063EC0EF06C5063EC00
:1018E8000EF0E1EC0FF01200680E156E000E146E8B
:1018F800EAEC0FF01550152463EC0EF0145063EC6D
:101908000EF094EC0FF0D880153463EC0EF0010E55
:10191800C2EC0DF0626E010EC2EC0DF05F6E010EAE
:10192800C2EC0DF05E6E010EC2EC0DF05C6E010EA5
:10193800C2EC0DF05B6E010EC2EC0DF0606E000E95
:10194800C2EC0DF06C6EE1EC0FF01200000E176E99
:10195800000E166E13501410D8B421D0010E156E57
:1019680005D0D89013361436152A00D014BE02D0EC
:10197800F8D700D0D890163617361350115C14508B
:101988001258D8A006D01350115E1450125A16805F
:1019980000D0D89014321332152EECD700D016C0D0
:1019A80011F017C012F012003F5000083D24186EC5
:1019B800D8803F34196E41C01AF042C01BF03B502A
:1019C800D5EC0AF03BC023F03CC024F03DC025F024
:1019D8003EC026F03FC027F040C028F0000E2A6E17
:1019E800030E296E000E2C6E000E2B6E41C02DF0DA
:1019F80042C02EF084EC05F0120017C011F018C098
:101A080012F0000E146EFA0E136EE6EC0EF011C012
:101A18001BF012C01CF01BC019F01CC01AF0191ED4
:101A28001A1E194A1A2AFF0E19241B6EFF0E1A20B5
:101A38001C6EB80EB16E1BC0D6FF1C50D76EA1929B
:101A4800B18000D0A1A2FED7B1901200176E2A0E65
:101A580003EC10F0000EFBEC0FF017505A24FBECCF
:101A68000FF0000EFBEC0FF015505A24FBEC0FF0B2
:101A78002B0E03EC10F0000EFBEC0FF01450612459
:101A8800FBEC0FF0000EFBEC0FF016506124FBECA2
:101A98000FF02C0E03EC10F012001A501B10D8B4E3
:101AA8001DD0010E1C6E05D0D8901A361B361C2A84
:101AB80000D01BBE02D0F8D700D01A50185C1B50BB
:101AC8001958D8A005D01A50185E1B50195A00D0C2
:101AD800D8901B321A321C2EF0D700D018C018F03C
:101AE80019C019F012001FC017F020C018F0010E1D
:101AF8001A6EF40E196E8AEC0AF01728226E1F501F
:101B08002010D8A403D0000E226E00D0070E226445
:101B180003D0070E226E00D022C021F0D8902136C3
:101B2800D8902136D89021368050C70B2110806E6E
:101B380012002B6E2BC02CF02D6A0ED023C018F08B
:101B480025C019F026C01AF027C01BF02C50D5EC80
:101B58000AF02C4A2D2A00D024502BC028F0296ADC
:101B68002826000E292228502C5C2D50800A2A6E27
:101B78002950800A2A58D8A0E1D71200116E3FECEC
:101B880010F0000E126E070E126401D00FD012EC86
:101B980010F082A803D0D880133604D01350132431
:101BA800136E00D03BEC10F0122AEDD71150D8B4C8
:101BB80003D0D8EC0FF003D02DEC10F000D0135068
:101BC80000D012001FC017F020C018F0000E1A6EC7
:101BD8000A0E196E8AEC0AF017C021F018C022F01C
:101BE80022BE0BD0225004E1080E215CD8A005D0FB
:101BF800000E226E070E216E00D08050F80B2110C7
:101C0800806E1200B2CF17F0186A000E1A6E020E1C
:101C1800196E8AEC0AF017C021F018C022F0000EE5
:101C2800B26E21C011F022C012F0000E146E3C0EEC
:101C3800136EE6EC0EF011C01FF012C020F000D0B9
:101C4800120011C015F012C016F003D0154A162A5A
:101C580000D015C0D9FF16C0DAFFDF50D8A4F6D7D8
:101C680011C013F012C014F0131E141E134A142AC4
:101C780015501324116E16501420126E00D0120045
:101C88002A0E03EC10F0000EFBEC0FF0000EFBEC3C
:101C98000FF0000EFBEC0FF07F0EFBEC0FF02B0E9D
:101CA80003EC10F0000EFBEC0FF0000EFBEC0FF055
:101CB800000EFBEC0FF09F0EFBEC0FF01200116E04
:101CC800000E126E070E126401D011D011AE03D0AF
:101CD8003FEC10F003D032EC10F000D012EC10F012
:101CE8003BEC10F011501124116E122AEBD73FEC87
:101CF80010F012EC10F03BEC10F01200480E186EC9
:101D0800AA0E166EEAEC0FF01850182463EC0EF0C9
:101D1800165063EC0EF094EC0FF0D880183463EC96
:101D28000EF0000EC2EC0DF0176EE1EC0FF017C0CC
:101D380014F0156A00D0120011C015F012C016F088
:101D480005D0154A162A134A142A00D013C0F6FFE4
:101D580014C0F7FF15C0D9FF16C0DAFF0800F5CF89
:101D6800DFFFDF50D8A4EDD712001B6E800E1B607A
:101D780013D09F0E186401D00FD018C014F01B2880
:101D8800156E1828166E1B502AEC0DF01A50FBEC35
:101D98000FF01950FBEC0FF0120083888396800E29
:101DA800C76E300EC66E20EC06F044EC0EF0A9ECBF
:101DB80007F0360E03EC10F0C00EFBEC0FF0010E2E
:101DC800546E120011501302F3CF15F0F4CF16F031
:101DD80011501402F350162612501302F35016260F
:101DE80015C011F016C012F000D012001C6E1C5065
:101DF800116E126A136A8E0E146E000E156E74EC54
:101E080009F011C019F012C01AF013C01BF000D06D
:101E18001200640E5D18D8A406D0C6EC0FF05D5011
:101E2800D7EC09F007D05D50050F5D6E5D50D7EC1B
:101E380009F000D01200136E000E126E3A0E1360F5
:101E480006D02F0E136403D0010E126E00D012C0FC
:101E580011F0113000D012005D50D8A406D0C6ECA5
:101E68000FF05D50D7EC09F007D05D50FB0F5D6EA9
:101E78005D50D7EC09F000D01200156EEAEC0FF0B7
:101E88001550152463EC0EF0135063EC0EF014504B
:101E980063EC0EF0E1EC0FF01200480E166EAC0E7B
:101EA800136E020E146E165041EC0FF0EE0E136E08
:101EB80016507BEC0FF01200000E186E800E196E93
:101EC800A00E1A6E24C01BF025C01CF0000E06ECF4
:101ED80009F01200030ED56EDB0ED66E0B0ED76E10
:101EE800F294D58E00D0F2A4FED7D59E1200146EBF
:101EF800EAEC0FF01450142463EC0EF0135063EC6A
:101F08000EF0E1EC0FF01200F292F19CF288000E54
:101F1800CF6E000ECE6E9E909D80F28CF28E1200D7
:101F28003BEC10F03FEC10F012EC10F032EC10F03B
:101F38003BEC10F012005150D8A403D0F3EC0FF092
:101F480003D01EEC10F000D01200126E9E96C9CF7E
:101F580011F012C0C9FF00D0C7A0FED71200000EB2
:101F6800126E190E116E3C0E0DEC0CF0700ED36E45
:101F78001200839A000E186E640E176E01EC0DF0B5
:101F8800838A1200CFEC0FF028EC10F037EC10F039
:101F980028EC10F01200F90ECB6E050ECA6E4A0E30
:101FA800BB6E3C0EBA6E120032EC10F012EC10F060
:101FB8003BEC10F03FEC10F012003BEC10F032EC70
:101FC80010F012EC10F03FEC10F012003FEC10F0A3
:101FD80012EC10F032EC10F03BEC10F01200010E95
:101FE800516E5D50D7EC09F0838283841200136E22
:101FF800839883861350A9EC0FF083881200136E20
:10200800839883961350A9EC0FF083881200116E01
:1020180000D0ACA2FED711C0ADFF12009580060E0D
:10202800E82EFED700D01200000E536EF19CCD9022
:102038009E901200000E516E83928394120012EC4F
:1020480010F03FEC10F012006EEC0FF06EEC0FF099
:10205800120012EC10F03BEC10F0120082989498E9
:1020680000D000D01200000EBA6E82921200839047
:10207800959000D01200948800D000D01200000E75
:0E208800536ECD901200F288F19C1200FF0101
:10FD720000000000000000005F0000000700070014
:10FD8200147F147F14242A7F2A12231308646236F4
:10FD9200495620500008070300001C224100004180
:10FDA200221C002A1C7F1C2A08083E0808008070BA
:10FDB20030000808080808000060600020100804ED
:10FDC200023E5149453E00427F4000724949494640
:10FDD2002141494D331814127F1027454545393CBE
:10FDE2004A494931412111090736494949364649AB
:10FDF20049291E00001400000040340000000814CD
:10FE02002241141414141400412214080201590945
:10FE1200063E415D594E7C1211127C7F494949369A
:10FE22003E414141227F4141413E7F494949417F13
:10FE3200090909013E414151737F0808087F0041C9
:10FE42007F41002040413F017F081422417F404012
:10FE520040407F021C027F7F0408107F3E414141E7
:10FE62003E7F090909063E4151215E7F0919294653
:10FE7200264949493203017F01033F4040403F1F69
:10FE82002040201F3F4038403F631408146303049E
:10FE92007804036159494D43007F414141020408FE
:10FEA2001020004141417F040201020440404040D1
:10FEB20040000307080020545478407F2844443807
:10FEC2003844444428384444287F38545454180051
:10FED200087E090218A4A49C787F080404780044D0
:10FEE2007D40002040403D007F1028440000417FBB
:10FEF20040007C047804787C080404783844444444
:10FF020038FC1824241818242418FC7C080404083B
:10FF1200485454542404043F44243C4040207C1C54
:10FF22002040201C3C4030403C44281028444C9047
:10FF320090907C4464544C440008364100000077A1
:10FF420000000041360800020102040201000A001A
:10FF52006400E80310270100100000010010205483
:10FF6200656D7065726174757265203D202564202F
:10FF72006465677265657343203D2025642064656E
:10FF82006772656573460D0A00253032783A25306E
:10FF920032783A2530327820253032782F253032A7
:10FFA200782F25303278004B6579204C6F6361746D
:10FFB200696F6E203D202564200D0A0A004E4543DC
:10FFC2005F427574746F6E203D202578200D0A0003
:10FFD20052504D203D202564206463203D2025643D
:10FFE2000D0A0030313233343536373839616263C5
:0EFFF200646566004C41422031302000000062
:020000040020DA
:08000000FFFFFFFFFFFFFFFF00
:020000040030CA
:0E000000FF08191EFF8381FF0FC00FE00F40A5
:00000001FF
