:04000000C0EF7FF0DE
:10FF520040792430191202780010000E0C6E000E47
:10FF62000B6E0CBE08D0500E0B5C460E0C58D8B06F
:10FF720005D001D003D00B4A0C2AF3D71200520E3F
:10FF8200F66EFF0EF76E000EF86E00EE01F010EE48
:10FF92000AF00900F5CFEEFFE550E150FAE1000169
:10FFA200D3EF7FF01A0EC16E1F0E926E000E936E8B
:10FFB200000E946E000E956E000E966E000E0D6E83
:10FFC200090E0D6401D0FAD70D50010D010EF32474
:10FFD200D96E000EF420DA6EDF50836E0D50010DE3
:10FFE200010EF324D96E000EF420DA6EDF50816E1A
:0EFFF200AEEC7FF00D2AE4D7E1D700EF00F06F
:020000040020DA
:08000000FFFFFFFFFFFFFFFF00
:020000040030CA
:0E000000FF08191EFF8381FF0FC00FE00F40A5
:00000001FF
