:0400000045EF6EF06A
:10D6A400000EBA6E82921200010EC26E0E0EC16E90
:10D6B400A90EC06E1200036E8398839603507FEC0C
:10D6C4006BF083881200036E8398838603507FEC8B
:10D6D4006BF083881200F90ECB6E050ECA6E4A0EEB
:10D6E400BB6E3C0EBA6E1200839A000E086E640E76
:10D6F400076E1CEC6EF0838A1200026E9E96C9CFF0
:10D7040001F002C0C9FF00D0C7A0FED71200000E6E
:10D71400026E190E016E3C0EE0EC6EF0700ED36ECC
:10D724001200535032342F312F303120303030300A
:10D734003030203030303000030ED56EDB0ED66E24
:10D744000B0ED76EF294D58E00D0F2A4FED7D59EE0
:10D754001200838E89EC6CF09EEC6BF0839EA6EC39
:10D764006CF09EEC6BF04CEC78F01200000E086E3E
:10D77400800E096EA00E0A6E14C00BF015C00CF0DA
:10D78400000E31EC72F01200838E89EC6CF06DECBB
:10D794006BF09EEC6BF0839EA6EC6CF052EC6BF09D
:10D7A4009EEC6BF04CEC78F01200C28200D0C2B256
:10D7B400FED7C450046E036AC3500324056E000EE2
:10D7C4000420066E05C001F006C002F000D012006D
:10D7D40001500302F3CF05F0F4CF06F00150040228
:10D7E400F350062602500302F350062605C001F04A
:08D7F40006C002F000D0120093
:10D7FD0001322E3556003030003030002D440030CF
:10D80D003000303000303000303000440030003017
:10D81D0000300030003000300083888396800EC7C2
:10D82D006E300EC66EE7EC74F000EC6DF0F2EC733A
:10D83D00F0360E5DEC6BF0C00E65EC6BF0010E7A00
:10D84D006E12003F6E3FC040F04050D8B40BD00177
:10D85D00D009D040C03AF07D50B6EC76F0ABEC6B11
:10D86D00F04006F2D7000E3A6E7D50B6EC76F0120F
:10D87D00000B6E800E0B6013D09F0E086401D00F4D
:10D88D00D008C004F00B28056E0828066E0B50CC8E
:10D89D00EC6DF00A5065EC6BF0095065EC6BF01215
:10D8AD000001C005F002C006F005D0054A062A03A6
:10D8BD004A042A00D003C0F6FF04C0F7FF05C0D903
:10D8CD00FF06C0DAFF0800F5CFDFFFDF50D8A4ED6B
:10D8DD00D71200406E3F04416E4150D8B40BD001B9
:10D8ED00D009D041C03AF04050C5EC71F0C6EC6B98
:10D8FD00F04106F2D7000E3A6E4050C5EC71F0C6FD
:10D90D00EC6BF0120070C001F071C002F0FC0E0360
:10D91D006EFF0E046E57EC6CF0020E296E70C02A6D
:10D92D00F071C02BF0FF0E2D6E2C68000E2F6E00C7
:10D93D000E2E6E010E306E780E9FEC72F01200708E
:10D94D00C001F071C002F0FA0E036EFF0E046E57A7
:10D95D00EC6CF0020E296E70C02AF071C02BF0FF36
:10D96D000E2D6E2C68000E2F6E000E2E6E010E30D9
:10D97D006E780E9FEC72F01200000E0C6E0AAE0760
:10D98D00D0096C0A1ED8B00A2A010E0C6E00D009FF
:10D99D00C001F00AC002F0036A8E0E046E0CC005C1
:10D9AD00F062EC71F001C009F002C00AF003C00B87
:10D9BD00F000D0120001C005F002C006F003D00542
:10D9CD004A062A00D005C0D9FF06C0DAFFDF50D8BD
:10D9DD00A4F6D701C003F002C004F0031E041E0319
:10D9ED004A042A05500324016E06500420026E00DD
:10D9FD00D012002A0E5DEC6BF0000E65EC6BF000A2
:10DA0D000E65EC6BF0000E65EC6BF07F0E65EC6B4C
:10DA1D00F02B0E5DEC6BF0000E65EC6BF0000E65FF
:10DA2D00EC6BF0000E65EC6BF09F0E65EC6BF0127D
:10DA3D0000366E000E7D6E36C033F07D507CEC7975
:10DA4D00F00AD0809A01D0808A819613D0809A01F5
:10DA5D00D0808A81860ED03650000AD8B4F2D70114
:10DA6D000AD8B4F1D7030AD8B4F1D7010AD8B4F063
:10DA7D00D700D01200366E010E7D6E36C033F07DAC
:10DA8D00507CEC79F00AD0819801D08188819A136D
:10DA9D00D0819801D08188818A0ED03650000AD865
:10DAAD00B4F2D7010AD8B4F1D7030AD8B4F1D7012B
:10DABD000AD8B4F0D700D01200366E020E7D6E3645
:10DACD00C033F07D507CEC79F00AD0829001D08289
:10DADD0080829413D0829001D0828082840ED036C1
:10DAED0050000AD8B4F2D7010AD8B4F1D7030AD836
:10DAFD00B4F1D7010AD8B4F0D700D01200366E03B6
:10DB0D000E7D6E36C033F07D507CEC79F00AD084FA
:10DB1D009001D08480849213D0849001D08480842D
:10DB2D00820ED03650000AD8B4F2D7010AD8B4F11B
:10DB3D00D7030AD8B4F1D7010AD8B4F0D700D01260
:10DB4D00001B6E1BC01CF01D6A0ED013C008F01513
:10DB5D00C009F016C00AF017C00BF01C5098EC6FFE
:10DB6D00F01C4A1D2A00D014501BC018F0196A1859
:10DB7D0026000E192218501C5C1D50800A1A6E19B1
:10DB8D0050800A1A58D8A0E1D71200076E2A0E5DF0
:10DB9D00EC6BF0000E65EC6BF007507B2465EC6BC5
:10DBAD00F0000E65EC6BF005507B2465EC6BF02BF3
:10DBBD000E5DEC6BF0000E65EC6BF004507E246591
:10DBCD00EC6BF0000E65EC6BF006507E2465EC6B93
:10DBDD00F02C0E5DEC6BF012002F5000082D240878
:10DBED006ED8802F34096E31C00AF032C00BF02B85
:10DBFD005098EC6FF02BC013F02CC014F02DC01505
:10DC0D00F02EC016F02FC017F030C018F0000E1A0D
:10DC1D006E030E196E000E1C6E000E1B6E31C01DB4
:10DC2D00F032C01EF06FEC75F0120007C001F00865
:10DC3D00C002F0000E046EFA0E036EEAEC6BF001FA
:10DC4D00C00BF002C00CF00BC009F00CC00AF009BB
:10DC5D001E0A1E094A0A2AFF0E09240B6EFF0E0A20
:10DC6D00200C6EB80EB16E0BC0B2FF0C50B36EA18E
:10DC7D0092B18000D0A1A2FED7B190120000EE802B
:10DC8D00F01F0EEE6AE806FDE100EE6BF0140EEEED
:10DC9D006AE806FDE1260EF66ED70EF76E000EF859
:10DCAD006E00EE9FF010EE16F00900F5CFEEFFE5D9
:10DCBD0050E150FAE1FD0EF66ED70EF76E000EF83C
:10DCCD006E00EE42F010EE29F00900F5CFEEFFE503
:10DCDD0050E150FAE1000EF86E000118EF6FF015EB
:10DCED00C008F017C009F01BC00AF01CC00BF013E0
:10DCFD0050DCEC6FF0155019241D6E1D04086E17C5
:10DD0D00C009F01BC00AF01CC00BF01350DCEC6F07
:10DD1D00F015C008F019C009F01BC00AF01CC00BAB
:10DD2D00F0135098EC6FF015C008F019C009F01BF6
:10DD3D00C00AF01CC00BF0135017241D6E1D049863
:10DD4D00EC6FF01200246E2450040DF328C26ED730
:10DD5D00EC6BF001C022F002C023F022C001F023D1
:10DD6D00C002F0000E046E050E036EEAEC6BF001BE
:10DD7D00C009F002C00AF0C3EC6CF009C00DF00A46
:10DD8D00C00EF00BC00FF0000E106E800E116E4421
:10DD9D000E126E0EEC73F00DC01FF00EC020F00FC2
:10DDAD00C021F01FC01CF020C01DF021C01EF000CE
:10DDBD00D01200036E000EAC6E000EAB6E03A0020F
:10DDCD00D0AC8800D003A203D0AC8CAB8C00D003B8
:10DDDD00A402D0AC8E00D003A602D0AB8802D0AB8B
:10DDED008A00D003B8AC849E9803AA02D0AB8600FB
:10DDFD00D003AC02D09D8A01D09D9A9E9A03AE02AB
:10DE0D00D09D8801D09D9801C0AFFF0250B06EAC7F
:10DE1D008AAB8E949C948EACB8ACBE02D0948C0020
:10DE2D00D01200700ED36E1F0E926E070E936E0001
:10DE3D000E946E000E956E000E966E56EC6BF0897C
:10DE4D00EC6BF029EC7BF0000EA9EC6EF01CC06BB6
:10DE5D00F01DC06CF01EC06DF06BC001F06CC00207
:10DE6D00F06DC003F0000E046E200E056E400E0620
:10DE7D006E20EC70F0D8B002D0010E01D0000E7300
:10DE8D006E00D07304D8A405D0010E746E03EC712E
:10DE9D00F0F8D7000E746EB6EC70F0F3D700EF000B
:10DEAD00F0000E2C6E28AE07D0276C281ED8B02897
:10DEBD002A010E2C6E00D02AAE05D0296C2A1ED850
:10DECD00B02A2A00D029502A10D8B41DD0010E2B0B
:10DEDD006E05D0D89029362A362B2A00D02ABE02BC
:10DEED00D0F8D700D02950275C2A502858D8A00543
:10DEFD00D02950275E2A50285A00D0D8902A32298E
:10DF0D00322B2EF0D700D02C50D8B405D0276C284A
:10DF1D001ED8B0282A00D027C027F028C028F0002E
:10DF2D00D01200126E800E12603FD09F0E08640159
:10DF3D00D03BD0FF0E0C6EFF0E0D6E095008C00EBB
:10DF4D00F00F6A0E26000E0F220C500E260D500FEC
:10DF5D00220FBE0BD00F5004E1A00E0E5CD8A00511
:10DF6D00D008500008A00F096E00D00B50106E0A9B
:10DF7D00C011F008C004F012C005F0085009240CBF
:10DF8D006E0C04066E1250CCEC6DF08386839807F0
:10DF9D00D010507FEC6BF011507FEC6BF000D0097E
:10DFAD00060928D8A4F5D783881200126E800E12A8
:10DFBD00603FD09F0E086401D03BD0FF0E0C6EFF6A
:10DFCD000E0D6E095012C00EF00F6A0E26000E0FC8
:10DFDD00220C500E260D500F220FBE0BD00F5004E9
:10DFED00E1800E0E5CD8A005D012500008800F09FC
:10DFFD006E00D00B50106E0AC011F008C004F01264
:10E00D005009240C6E0C04056E08C006F01250CC9D
:10E01D00EC6DF08386839807D010507FEC6BF01178
:10E02D00507FEC6BF000D009060928D8A4F5D783F2
:10E03D0088120003AE17D001C007F002C008F0032C
:10E04D00C009F0071E081E091E072A000E08220926
:10E05D0022000E0724016E000E0820026E800E09AC
:10E06D0020036E00D006AE17D004C007F005C0081F
:10E07D00F006C009F0071E081E091E072A000E082B
:10E08D00220922000E0724046E000E0820056E8062
:10E09D000E0920066E00D0000E011A000E021A8025
:10E0AD000E031A000E041A000E051A800E061A042D
:10E0BD0050015C0550025806500358D8B002D0D814
:10E0CD009002D0D88000D01200000E066E04AE076C
:10E0DD00D0036C041ED8B0042A010E066E00D002C7
:10E0ED00AE07D0016C021ED8B0022A010E061A002E
:10E0FD00D0000E086E000E076E03500410D8B42128
:10E10D00D0010E056E05D0D89003360436052A00D1
:10E11D00D004BE02D0F8D700D0D890073608360309
:10E12D0050015C04500258D8A006D00350015E0483
:10E13D0050025A078000D0D89004320332052EECDD
:10E14D00D700D00650D8B405D0076C081ED8B0083B
:10E15D002A00D007C001F008C002F000D0120084E0
:10E16D0094010E63EC6DF0010E85EC6DF0010E4126
:10E17D00EC6DF0020E1FEC6DF0060E28EC6CF0034A
:10E18D000E1FEC6DF0020E28EC6CF0010E1FEC6D05
:10E19D00F080A210D0020E85EC6DF0050E28EC6C0F
:10E1AD00F0030E85EC6DF0020E28EC6CF0010E857F
:10E1BD00EC6DF000D0020E63EC6DF0070E28EC6CE8
:10E1CD00F0030E63EC6DF0020E28EC6CF0010E63A3
:10E1DD00EC6DF080A810D0020E41EC6DF0050E280C
:10E1ED00EC6CF0030E41EC6DF0020E28EC6CF001BE
:10E1FD000E41EC6DF000D012008484010E63EC6DC5
:10E20D00F0010E85EC6DF0010E41EC6DF0020E1F6C
:10E21D00EC6DF080A605D0080E3F6E000E70EC6C14
:10E22D00F0060E28EC6CF0030E1FEC6DF0020E28BC
:10E23D00EC6CF0010E1FEC6DF080A210D0020E857B
:10E24D00EC6DF0070E28EC6CF0030E85EC6DF00212
:10E25D000E28EC6CF0010E85EC6DF000D0020E6313
:10E26D00EC6DF080A406D0070E3F6E010E70EC6CC5
:10E27D00F000D0020E63EC6DF0050E28EC6CF0038F
:10E28D000E63EC6DF0020E28EC6CF0010E63EC6D7C
:10E29D00F080A810D0020E41EC6DF0060E28EC6C4B
:10E2AD00F0030E41EC6DF0020E28EC6CF0010E4106
:10E2BD00EC6DF000D012000450D8B405D00150021E
:10E2CD00100310D8A40ED0000E016E000E026E00C9
:10E2DD000E036E53D006D0042AD8900332023201B9
:10E2ED003200D0000E0114066E000E0214076EFEF1
:10E2FD000E0314086E065007100810D8B40ED0EB9C
:10E30D00D70CD0042A010E0126000E0222000E03A6
:10E31D0022D89003320232013200D0000E011406D1
:10E32D006E000E0214076EFF0E0314086E065007E2
:10E33D00100810D8B408D0E5D706D00406D890013F
:10E34D00360236033600D002BE04D0020E0460F54C
:10E35D00D700D004B002D0029E00D0D89004320471
:10E36D005003120550D8B402D0038E00D001C00165
:10E37D00F002C002F003C003F000D012003B6E614A
:10E38D00D03AC001F0026A000E046E0A0E036E6BE5
:10E39D00EC70F00150300F576E3AC027F0286A002C
:10E3AD000E2A6E0A0E296E57EC6FF02750300F585B
:10E3BD006E8350380B3A10836E8392280E296E5758
:10E3CD000E2A6E000E2B6E070E2D6E2C68000E2F72
:10E3DD006E000E2E6E020E306E020E9FEC72F03934
:10E3ED00D03AC001F0026A000E046E0A0E036E6B85
:10E3FD00EC70F00150300F5A6E3AC027F0286A00C9
:10E40D000E2A6E0A0E296E57EC6FF02750300F5BF7
:10E41D006E8350380B3A10836E8392640E296E5AB8
:10E42D000E2A6E000E2B6E000E2D6E1F0E2C6E0022
:10E43D000E2F6E000E2E6E020E306E020E9FEC72BF
:10E44D00F008D03B50000AD8B49BD7010AD8B4C805
:10E45D00D700D01200136E800E136069D09F0E0886
:10E46D006401D065D0FF0E0D6EFF0E0E6E095013B8
:10E47D00C00FF0106A0F26000E10220D500F260E41
:10E48D0050102210BE0AD0105004E1800E0F5CD83F
:10E49D00A004D013500008800F096EFF0E0D6EFF03
:10E4AD000E0E6E0A5008C00FF0106A0F26000E10E7
:10E4BD00220D500F260E50102210BE0BD0105004FE
:10E4CD00E1A00E0F5CD8A005D008500008A00F0ADF
:10E4DD006E00D008C004F0135009240D6E0D040514
:10E4ED006E08500A240E6E0E04066E1350CCEC6DA1
:10E4FD00F00C50116E0BC012F0838683980AC00881
:10E50D00F00850D8B413D001D011D009C013F013B6
:10E51D0050D8B40AD001D008D011507FEC6BF01256
:10E52D00507FEC6BF01306F3D70806EAD7838812F9
:10E53D0000356E35C039F029C038F02AC001F02BF6
:10E54D00C002F0E1EC6CF001C033F002C034F00019
:10E55D000E376E000E366E54D04250D8B42CD030DB
:10E56D0050050D3950316E326AF3503126F4503268
:10E57D002232BE21D0325004E1810E315CD8A01B75
:10E58D00D0000E396E3050070DF3503824030F387C
:10E59D006EA00E386403D0A00E386E00D036502A0F
:10E5AD0024D96E37502B20DA6E200EDE18D8B42504
:10E5BD00D002D023D000D038C01EF036502A24D936
:10E5CD006E37502B20DA6EDF501F6E2CC020F02DD1
:10E5DD00C021F02EC022F02FC023F030C024F0391E
:10E5ED00500BEC76F03050060DF3503924396E8017
:10E5FD000E396403D0800E396E00D0364A372A00AA
:10E60D00D03350365C34503758D8A0A6D712000FEF
:10E61D00C013F0146A156A0E34133601E314801317
:10E62D00501A6E1A50D8A402D00ED061D012C01359
:10E63D00F0146A156A1134133601E3148013501B5C
:10E64D006E1B50D8A407D0000E0D6E000E0E6E007E
:10E65D000E0F6E4DD0000E176E000E186E000E19B7
:10E66D006E1B50890F1A5E0FC01BF012501B1A80C3
:10E67D000E1B160E8EFF0E0D16FF0E0E16000E0F34
:10E68D0016118EFF0E1016FF0E1116000E12161813
:10E69D000E166E00D0D89017361836193610500D4C
:10E6AD005C11500E5812500F58D8A007D010500DB5
:10E6BD005E11500E5A12500F5A1780D8900D360E0B
:10E6CD00360F36162EE7D700D017C001F018C0024E
:10E6DD00F019C003F01AC004F01BC005F062EC7114
:10E6ED00F001C00DF002C00EF003C00FF000D0120B
:10E6FD00001AC01CF01D6A1E6A19341C3601E31D78
:10E70D00801C50266E2650D8A402D039D063D01765
:10E71D000E1C6E18C01DF019C01EF01AC01FF01C83
:10E72D0028206E04D0D8901F321E321D32202EFAB2
:10E73D00D71D50216E198EFF0E1816FF0E191600DB
:10E74D000E1A161850226E1950236E1A50246E256B
:10E75D006A8E0E265E26AE10D02650800A8F0FD8F8
:10E76D00B003D00DD037D000D0D89025322432232D
:10E77D00322232263EF9D719D0170E266411D00059
:10E78D000E186E000E196E000E1A6E000E1B6E2204
:10E79D00D007D0D8902236233624362536260600CB
:10E7AD00D02650D8B402D0F5D700D02150D8B40916
:10E7BD00D0251E241E231E226C000E23222422256A
:10E7CD002200D022C018F023C019F024C01AF02561
:10E7DD00C01BF000D01200E00E5DEC6BF0020E6578
:10E7ED00EC6BF01C0E65EC6BF0070E65EC6BF0122C
:10E7FD000E65EC6BF0370E65EC6BF0320E65EC6B65
:10E80D00F0290E65EC6BF02D0E65EC6BF0290E65A5
:10E81D00EC6BF0250E65EC6BF02B0E65EC6BF039A7
:10E82D000E65EC6BF0000E65EC6BF0010E65EC6B9C
:10E83D00F0030E65EC6BF0100E65EC6BF0E10E5D08
:10E84D00EC6BF0030E65EC6BF01D0E65EC6BF007D9
:10E85D000E65EC6BF0060E65EC6BF02E0E65EC6B39
:10E86D00F02C0E65EC6BF0290E65EC6BF02D0E6542
:10E87D00EC6BF02E0E65EC6BF02E0E65EC6BF0373D
:10E88D000E65EC6BF03F0E65EC6BF0000E65EC6BFE
:10E89D00F0000E65EC6BF0020E65EC6BF0100E6582
:10E8AD00EC6BF0130E5DEC6BF0000E086E0A0E07AC
:10E8BD006E1CEC6EF0290E5DEC6BF0000E086E64B4
:10E8CD000E076E1CEC6EF012000BC00FF0106A11EB
:10E8DD006A0A340F3601E310800F50126E1250D8B1
:10E8ED00A402D00ED06CD00EC00FF0106A116A0DBC
:10E8FD00340F3601E310800F50176E1750D8A40750
:10E90D00D0000E096E000E0A6E000E0B6E58D01759
:10E91D00507B0F12260BC017F00E50171A800E17D2
:10E92D00160A8E0D8EFF0E0C16FF0E0D16000E0E16
:10E93D0016000E136E000E146E000E156E070E16D9
:10E94D006E00D009A007D00C5013260D5014220EC6
:10E95D0050152200D0D8900B320A320932D8900CC3
:10E96D00360D360E36162EEDD700D0090E166E006A
:10E97D00D009A007D00C5013260D5014220E50159F
:10E98D002200D0D8900B320A320932D890153214A9
:10E99D00321332162EEDD700D013C001F014C00281
:10E9AD00F015C003F012C004F017C005F062EC7151
:10E9BD00F001C009F002C00AF003C00BF000D01244
:10E9CD0000010E5DEC6BF0000E086E960E076E1CCE
:10E9DD00EC6EF0110E5DEC6BF0010E086EF40E078F
:10E9ED006E1CEC6EF0B10E5DEC6BF0010E65EC6B18
:10E9FD00F02C0E65EC6BF02D0E65EC6BF0B20E5D30
:10EA0D00EC6BF0010E65EC6BF02C0E65EC6BF02DE4
:10EA1D000E65EC6BF0B30E5DEC6BF0010E65EC6BFF
:10EA2D00F02C0E65EC6BF02D0E65EC6BF0010E65A8
:10EA3D00EC6BF02C0E65EC6BF02D0E65EC6BF0B401
:10EA4D000E5DEC6BF0070E65EC6BF0C00E5DEC6BC4
:10EA5D00F0A20E65EC6BF0020E65EC6BF0840E65AA
:10EA6D00EC6BF0C10E5DEC6BF0C50E65EC6BF0C29E
:10EA7D000E5DEC6BF00A0E65EC6BF0000E65EC6B49
:10EA8D00F0C30E5DEC6BF08A0E65EC6BF02A0E6533
:10EA9D00EC6BF0C40E5DEC6BF08A0E65EC6BF0EE7A
:10EAAD000E65EC6BF0C50E5DEC6BF00E0E65EC6B50
:10EABD00F0200E5DEC6BF0360E5DEC6BF0C80E6564
:10EACD00EC6BF03A0E5DEC6BF0050E65EC6BF01235
:10EADD000017C01FF018C020F01F1E201E1F4A2057
:10EAED002A010E1F24256E000E2020266E000E22F8
:10EAFD006E010E216E17C01FF018C020F0D8901FA8
:10EB0D003620361F1E201E1F4A202A1FC023F0202C
:10EB1D00C024F0000E286E000E276E17C029F018C5
:10EB2D00C02AF067D026BE0BD02906D8A02A06022F
:10EB3D000E2326000E24222350252624502622277C
:10EB4D004A282A020E2126000E2222215025262295
:10EB5D0050262219A025D0295000081524086E2909
:10EB6D005029241B241F6E1F28096E1DC00AF01E7C
:10EB7D00C00BF01350272498EC6FF02750000815A8
:10EB8D0024086E275027241B241F6E1F28096E1D75
:10EB9D00C00AF01EC00BF01350292498EC6FF00042
:10EBAD00D019A227D0295000081524086E29502904
:10EBBD00241B241F6E1F28096E1DC00AF01EC00BDA
:10EBCD00F027500008132498EC6FF027500008151B
:10EBDD0024086E275027241B241F6E1F28096E1D25
:10EBED00C00AF01EC00BF029500008132498EC6FDA
:10EBFD00F000D02950275C2850800A1F6E2A5080C3
:10EC0D000A1F58D8A08FD71200266E800E2660A638
:10EC1D00D09F0E1E6401D0A2D02450D8A403D001E1
:10EC2D000E246E00D01F0E1F6404D07E0E1F6403D1
:10EC3D00D000D03F0E1F6E000E286E040E2864010A
:10EC4D00D08DD0530E1F6015D0E00E1F24016E0223
:10EC5D006AFF0E0222000E046E050E036EEAEC6BC7
:10EC6D00F028500126000E0222CF0E0124F66EFD73
:10EC7D000E14D0AD0E1F24016E026AFF0E0222008B
:10EC8D000E046E050E036EEAEC6BF02850012600A3
:10EC9D000E0222CE0E0124F66EFE0E0220F76E0835
:10ECAD0000F5CF25F000D0000E276E060E2764016B
:10ECBD00D053D025A023D02404D8A40CD01E502787
:10ECCD0024086E20C009F021C00AF0265028243FE8
:10ECDD00EC6CF03ED027502402F3501E24136E240A
:10ECED00C014F024C015F020C016F021C017F02874
:10ECFD00502402F3502624A7EC6DF02AD020502288
:10ED0D001804E121502318D8B423D02404D8A40C1E
:10ED1D00D01E502724086E22C009F023C00AF02609
:10ED2D005028243FEC6CF014D027502402F3501ED1
:10ED3D0024136E24C014F024C015F022C016F02345
:10ED4D00C017F028502402F3502624A7EC6DF000D4
:10ED5D00D0272AD8902532A9D7282A6FD712003B61
:10ED6D006EAED03AC001F0026A000E046E0A0E03B8
:10ED7D006E6BEC70F00150300F4B6E3AC027F028DF
:10ED8D006A000E2A6E0A0E296E57EC6FF02750306E
:10ED9D000F4C6E280E296E4B0E2A6E000E2B6E0731
:10EDAD000E2D6E2C68000E2F6E000E2E6E020E3084
:10EDBD006E640E9FEC72F091D03AC001F0026A00C1
:10EDCD000E046E0A0E036E6BEC70F00150300F489E
:10EDDD006E3AC027F0286A000E2A6E0A0E296E5769
:10EDED00EC6FF02750300F496E460E296E480E2AF3
:10EDFD006E000E2B6EFF0E2D6E2C68000E2F6E000A
:10EE0D000E2E6E020E306E640E9FEC72F066D03ACE
:10EE1D00C001F0026A000E046E0A0E036E6BEC70F8
:10EE2D00F00150300F546E3AC027F0286A000E2AB8
:10EE3D006E0A0E296E57EC6FF02750300F556E6429
:10EE4D000E296E540E2A6E000E2B6E000E2D6E1FA7
:10EE5D000E2C6E000E2F6E000E2E6E020E306E6496
:10EE6D000E9FEC72F03AD03AC001F0026A000E0427
:10EE7D006E0A0E036E6BEC70F00150300F516E3A4E
:10EE8D00C027F0286A000E2A6E0A0E296E57EC6F05
:10EE9D00F02750300F526E820E296E510E2A6E00E1
:10EEAD000E2B6EF80E2D6E1F0E2C6E000E2F6E009B
:10EEBD000E2E6E020E306E640E9FEC72F00ED03B75
:10EECD0050000AD8B44ED7010AD8B476D7030AD861
:10EEDD00B49ED7010AD8B4C7D700D0120010C01401
:10EEED00F011C015F0141E151E144A152A010E142A
:10EEFD00241A6E000E15201B6E000E176E010E16D5
:10EF0D006E10C014F011C015F0D8901436153614CB
:10EF1D001E151E144A152A14C018F015C019F0003C
:10EF2D000E1D6E000E1C6E10C01EF011C01FF00ED7
:10EF3D00501024086E12C009F013C00AF00C503F97
:10EF4D00EC6CF0105000080E24086E12C009F0137E
:10EF5D00C00AF00C503FEC6CF00EC008F012C00966
:10EF6D00F013C00AF00C5010243FEC6CF00EC008EA
:10EF7D00F012C009F013C00AF0105000080C243F25
:10EF8D00EC6CF078D01BBE0BD01E06D8A01F06026D
:10EF9D000E1826000E192218501A2619501B221C65
:10EFAD004A1D2A020E1626000E172216501A261773
:10EFBD00501B220E501E24086E12C009F013C00AF9
:10EFCD00F00C501C243FEC6CF00E501E24086E12F9
:10EFDD00C009F013C00AF01C5000080C243FEC6C63
:10EFED00F01E5000080E24086E12C009F013C00A5E
:10EFFD00F00C501C243FEC6CF01E5000080E240841
:10F00D006E12C009F013C00AF01C5000080C243F0A
:10F01D00EC6CF00E501C24086E12C009F013C00ADF
:10F02D00F00C501E243FEC6CF00E501C24086E1298
:10F03D00C009F013C00AF01E5000080C243FEC6C00
:10F04D00F01C5000080E24086E12C009F013C00AFF
:10F05D00F00C501E243FEC6CF01C5000080E2408E0
:10F06D006E12C009F013C00AF01E5000080C243FA8
:10F07D00EC6CF000D01E501C5C1D50800A146E1FED
:10F08D0050800A1458D8A07ED71200D7EC6BF0012F
:10F09D00C03AF002C03BF0000EA9EC6EF01CC03C73
:10F0AD00F01DC03DF01EC03EF03CC001F03DC00261
:10F0BD00F03EC003F0000E046E200E056E400E06ED
:10F0CD006E20EC70F0D8B002D0010E01D0000E739E
:10F0DD006E3CC018F03DC019F03EC01AF07FEC73C5
:10F0ED00F01850300F436E000E0C6E200E0D6E4159
:10F0FD000E0E6E3CC009F03DC00AF03EC00BF06B29
:10F10D00EC74F009C018F00AC019F00BC01AF07FAA
:10F11D00EC73F018C027F019C028F0000E2A6E0A03
:10F12D000E296E57EC6FF02750300F456E7350D887
:10F13D00A402D04E0E01D0440E4F6E7450D8A402CE
:10F14D00D04E0E01D0440E5D6E00D0000E80B60183
:10F15D000E776E000E80B8010E766E000E80B40133
:10F16D000E796E000E80B2010E786E7750D8A40223
:10F17D00D0300E01D0310E656E7650D8A402D0304D
:10F18D000E01D0310E636E7950D8A402D0300E012D
:10F19D00D0310E696E7850D8A402D0300E01D03126
:10F1AD000E676E00D0020E296E5D0E2A6E000E2BBC
:10F1BD006EFF0E2D6E2C68000E2F6E000E2E6E0142
:10F1CD000E306E230E9FEC72F0020E296E430E2A46
:10F1DD006E000E2B6EFF0E2D6E2C68000E2F6E0026
:10F1ED000E2E6E010E306E4B0E9FEC72F0020E293C
:10F1FD006E4E0E2A6E000E2B6EFF0E2D6E2C6800BD
:10F20D000E2F6E000E2E6E010E306E640E9FEC7280
:10F21D00F0140E296E650E2A6E000E2B6EFF0E2D4C
:10F22D006E2C68000E2F6E000E2E6E010E306E08C5
:10F23D000E9FEC72F0140E296E630E2A6E000E2BCB
:10F24D006EFF0E2D6E2C68000E2F6E000E2E6E01B1
:10F25D000E306E230E9FEC72F0140E296E690E2A7D
:10F26D006E000E2B6EFF0E2D6E2C68000E2F6E0095
:10F27D000E2E6E010E306E3C0E9FEC72F0140E29A8
:10F28D006E670E2A6E000E2B6EFF0E2D6E2C680013
:10F29D000E2F6E000E2E6E010E306E550E9FEC72FF
:10F2AD00F0140E296E5F0E2A6E000E2B6EFF0E2DC2
:10F2BD006E2C68000E2F6E000E2E6E010E306E6CD1
:10F2CD000E9FEC72F0140E296E610E2A6E000E2B3D
:10F2DD006EFF0E2D6E2C68000E2F6E000E2E6E0121
:10F2ED000E306E770E9FEC72F01200346E34501E9D
:10F2FD000DF3502E0F356E3350D8A467D0000E2C61
:10F30D006E280E2B6E35C02DF02E6A000E306E0756
:10F31D000E2F6E000E326E000E316EF3EC6DF0009E
:10F32D000E2C6E3C0E2B6E35C02DF02E6A000E305D
:10F33D006E070E2F6E000E326E000E316EF3EC6DF9
:10F34D00F0000E2C6E500E2B6E35C02DF02E6A0077
:10F35D000E306E070E2F6E000E326E000E316EF3F4
:10F36D00EC6DF0000E0D6E280E0C6E35C00EF00F0C
:10F37D006A000E116E070E106EF80E136E000E124F
:10F38D006E75EC77F0000E0D6E3C0E0C6E35C00EEA
:10F39D00F00F6A000E116E070E106EFF0E136EE069
:10F3AD000E126E75EC77F0000E0D6E500E0C6E3564
:10F3BD00C00EF00F6A000E116E070E106E070E13C1
:10F3CD006EE00E126E75EC77F03CD13304D8A46765
:10F3DD00D0000E2C6E280E2B6E35C02DF02E6A002F
:10F3ED000E306E070E2F6EF80E326E000E316EF36C
:10F3FD00EC6DF0000E2C6E3C0E2B6E35C02DF02EEC
:10F40D006A000E306E070E2F6E000E326E000E313A
:10F41D006EF3EC6DF0000E2C6E500E2B6E35C02D74
:10F42D00F02E6A000E306E070E2F6E000E326E003B
:10F43D000E316EF3EC6DF0000E0D6E280E0C6E3568
:10F44D00C00EF00F6A000E116E070E106EF80E133F
:10F45D006E000E126E75EC77F0000E0D6E3C0E0CFC
:10F46D006E35C00EF00F6A000E116E070E106EFF96
:10F47D000E136EE00E126E75EC77F0000E0D6E50E1
:10F48D000E0C6E35C00EF00F6A000E116E070E10C9
:10F49D006E070E136EE00E126E75EC77F0D2D00380
:10F4AD000E3318D8A467D0000E2C6E280E2B6E3597
:10F4BD00C02DF02E6A000E306E070E2F6E000E322C
:10F4CD006E000E316EF3EC6DF0000E2C6E3C0E2BBB
:10F4DD006E35C02DF02E6A000E306E070E2F6EFFAA
:10F4ED000E326EE00E316EF3EC6DF0000E2C6E50A0
:10F4FD000E2B6E35C02DF02E6A000E306E070E2FBE
:10F50D006E000E326E000E316EF3EC6DF0000E0DCE
:10F51D006E280E0C6E35C00EF00F6A000E116E07C0
:10F52D000E106EF80E136E000E126E75EC77F00065
:10F53D000E0D6E3C0E0C6E35C00EF00F6A000E11E6
:10F54D006E070E106EFF0E136EE00E126E75EC77D9
:10F55D00F0000E0D6E500E0C6E35C00EF00F6A00E1
:10F56D000E116E070E106E070E136EE00E126E75F5
:10F57D00EC77F067D0000E2C6E280E2B6E35C02D5B
:10F58D00F02E6A000E306E070E2F6E000E326E00DA
:10F59D000E316EF3EC6DF0000E2C6E3C0E2B6E35B5
:10F5AD00C02DF02E6A000E306E070E2F6E000E323B
:10F5BD006E000E316EF3EC6DF0000E2C6E500E2BB6
:10F5CD006E35C02DF02E6A000E306E070E2F6E07B1
:10F5DD000E326EE00E316EF3EC6DF0000E0D6E28F6
:10F5ED000E0C6E35C00EF00F6A000E116E070E1068
:10F5FD006EF80E136E000E126E75EC77F0000E0D98
:10F60D006E3C0E0C6E35C00EF00F6A000E116E07BB
:10F61D000E106EFF0E136EE00E126E75EC77F0008D
:10F62D000E0D6E500E0C6E35C00EF00F6A000E11E1
:10F63D006E070E106E070E136EE00E126E75EC77E0
:10F64D00F000D0120076EC6BF013EC6CF0000E15A0
:10F65D006E000E146EB8EC6BF0800E706E000E71B5
:10F66D006E70C001F071C002F0E40E036EFF0E0467
:10F67D006E57EC6CF0020E296E70C02AF071C02B23
:10F68D00F0FF0E2D6E2C68000E2F6E000E2E6E01EB
:10F69D000E306E020E9FEC72F0020E296E5D0E2A78
:10F6AD006E000E2B6EFF0E2D6E2C68000E2F6E0051
:10F6BD000E2E6E010E306E230E9FEC72F070C00197
:10F6CD00F071C002F0EA0E036EFF0E046E57EC6C83
:10F6DD00F0020E296E70C02AF071C02BF0FF0E2DB6
:10F6ED006E2C68000E2F6E000E2E6E010E306E32D7
:10F6FD000E9FEC72F0020E296E430E2A6E000E2B39
:10F70D006EFF0E2D6E2C68000E2F6E000E2E6E01EC
:10F71D000E306E4B0E9FEC72F070C001F071C00296
:10F72D00F0F70E036EFF0E046E57EC6CF0020E290F
:10F73D006E4E0E2A6E000E2B6EFF0E2D6E2C680077
:10F74D000E2F6E000E2E6E010E306E640E9FEC723B
:10F75D00F070C001F071C002F0FC0E036EFF0E04DC
:10F76D006E57EC6CF0020E296E70C02AF071C02B32
:10F77D00F0FF0E2D6E2C68000E2F6E000E2E6E01FA
:10F78D000E306E780E9FEC72F070C001F071C002F9
:10F79D00F0AA0E036EFF0E046E57EC6CF00B0E29E3
:10F7AD006E70C02AF071C02BF0FF0E2D6E2C68000C
:10F7BD000E2F6E000E2E6E010E306E010E9FEC722E
:10F7CD00F0140E296E650E2A6E000E2B6EFF0E2D97
:10F7DD006E2C68000E2F6E000E2E6E010E306E0810
:10F7ED000E9FEC72F0140E296E630E2A6E000E2B16
:10F7FD006EFF0E2D6E2C68000E2F6E000E2E6E01FC
:10F80D000E306E230E9FEC72F0140E296E690E2AC7
:10F81D006E000E2B6EFF0E2D6E2C68000E2F6E00DF
:10F82D000E2E6E010E306E3C0E9FEC72F0140E29F2
:10F83D006E670E2A6E000E2B6EFF0E2D6E2C68005D
:10F84D000E2F6E000E2E6E010E306E550E9FEC7249
:10F85D00F0140E296E5F0E2A6E000E2B6EFF0E2D0C
:10F86D006E2C68000E2F6E000E2E6E010E306E6C1B
:10F87D000E9FEC72F0140E296E610E2A6E000E2B87
:10F88D006EFF0E2D6E2C68000E2F6E000E2E6E016B
:10F89D000E306E770E9FEC72F070C001F071C002E9
:10F8AD00F0CC0E036EFF0E046E57EC6CF01E0E299D
:10F8BD006E70C02AF071C02BF0070E2D6E2C6800F3
:10F8CD000E2F6E000E2E6E010E306E1E0E9FEC7200
:10F8DD00F0000E146E1E0E136E000E166E260E1513
:10F8ED006E000E186E3C0E176E000E1A6E120E196B
:10F8FD006E070E1C6E1B6876EC6EF0000E2C6E28DB
:10F90D000E2B6E000E2E6E2E0E2D6E000E306E070F
:10F91D000E2F6EF80E326E000E316EF3EC6DF000A0
:10F92D000E0D6E3C0E0C6E000E0F6E2E0E0E6E003A
:10F93D000E116E070E106EFF0E136EE00E126E7529
:10F94D00EC77F0000E0D6E500E0C6E000E0F6E2E3D
:10F95D000E0E6E000E116E070E106E070E136EE07A
:10F96D000E126E75EC77F0280E296E4B0E2A6E0076
:10F97D000E2B6E070E2D6E2C68000E2F6E000E2EA8
:10F98D006E020E306E640E9FEC72F070C001F0715D
:10F99D00C002F0DD0E036EFF0E046E57EC6CF03CF2
:10F9AD000E296E70C02AF071C02BF0FF0E2D6E2C3B
:10F9BD0068000E2F6E000E2E6E010E306E1E0E9F05
:10F9CD00EC72F0000E146E1E0E136E000E166E44C9
:10F9DD000E156E000E186E3C0E176E000E1A6E127E
:10F9ED000E196EFF0E1C6E1B6876EC6EF0000E2C61
:10F9FD006E280E2B6E000E2E6E4C0E2D6E000E30E0
:10FA0D006E070E2F6EF80E326E000E316EF3EC6D2A
:10FA1D00F0000E0D6E3C0E0C6E000E0F6E4C0E0EA9
:10FA2D006E000E116E070E106EFF0E136EE00E12AD
:10FA3D006E75EC77F0000E0D6E500E0C6E000E0F05
:10FA4D006E4C0E0E6E000E116E070E106E070E131D
:10FA5D006EE00E126E75EC77F0460E296E480E2A8A
:10FA6D006E000E2B6EFF0E2D6E2C68000E2F6E008D
:10FA7D000E2E6E020E306E640E9FEC72F070C00191
:10FA8D00F071C002F0C00E036EFF0E046E57EC6CE9
:10FA9D00F05A0E296E70C02AF071C02BF0000E2D99
:10FAAD006E1F0E2C6E000E2F6E000E2E6E010E3080
:10FABD006E1E0E9FEC72F0000E146E1E0E136E0075
:10FACD000E166E620E156E000E186E3C0E176E0041
:10FADD000E1A6E120E196E000E1C6E1F0E1B6E7618
:10FAED00EC6EF0000E0D6E280E0C6E000E0F6E6A91
:10FAFD000E0E6E000E116E070E106EF80E136E00C8
:10FB0D000E126E75EC77F0000E0D6E3C0E0C6E0045
:10FB1D000E0F6E6A0E0E6E000E116E070E106EFF3A
:10FB2D000E136EE00E126E75EC77F0000E2C6E500B
:10FB3D000E2B6E000E2E6E6A0E2D6E000E306E07A1
:10FB4D000E2F6E070E326EE00E316EF3EC6DF0641B
:10FB5D000E296E540E2A6E000E2B6E000E2D6E1F8A
:10FB6D000E2C6E000E2F6E000E2E6E020E306E6479
:10FB7D000E9FEC72F070C001F071C002F0D60E0352
:10FB8D006EFF0E046E57EC6CF0780E296E70C02A65
:10FB9D00F071C02BF0F80E2D6E1F0E2C6E000E2F77
:10FBAD006E000E2E6E010E306E1E0E9FEC72F0006A
:10FBBD000E146E1E0E136E000E166E800E156E0058
:10FBCD000E186E3C0E176E000E1A6E120E196EF890
:10FBDD000E1C6E1F0E1B6E76EC6EF0000E2C6E283A
:10FBED000E2B6E000E2E6E880E2D6E000E306E07D3
:10FBFD000E2F6EF80E326E000E316EF3EC6DF000BE
:10FC0D000E0D6E3C0E0C6E000E0F6E880E0E6E00FD
:10FC1D000E116E070E106EFF0E136EE00E126E7546
:10FC2D00EC77F0000E0D6E500E0C6E000E0F6E8800
:10FC3D000E0E6E000E116E070E106E070E136EE097
:10FC4D000E126E75EC77F0820E296E510E2A6E0033
:10FC5D000E2B6EF80E2D6E1F0E2C6E000E2F6E00DD
:10FC6D000E2E6E020E306E640E9FEC72F0280E2971
:10FC7D006E570E2A6E000E2B6E070E2D6E2C680021
:10FC8D000E2F6E000E2E6E020E306E020E9FEC7257
:10FC9D00F070C001F071C002F0F30E036EFF0E04A0
:10FCAD006E57EC6CF01E0E296E70C02AF071C02BD1
:10FCBD00F0070E2D6E2C68000E2F6E000E2E6E01AD
:10FCCD000E306E030E9FEC72F070C001F071C00229
:10FCDD00F0EF0E036EFF0E046E57EC6CF05A0E290A
:10FCED006E70C02AF071C02BF0000E2D6E1F0E2C01
:10FCFD006E000E2F6E000E2E6E010E306E030E9FD7
:10FD0D00EC72F0640E296E5A0E2A6E000E2B6E00E8
:10FD1D000E2D6E1F0E2C6E000E2F6E000E2E6E020F
:10FD2D000E306E020E9FEC72F005D0530E00019F47
:10FD3D006F500E04D0460E00019F6F410E0001A0C2
:10FD4D006F320E0001A16F350E0001A26F320E0051
:10FD5D0001A46F300E0001A66F320E0001A76F389F
:10FD6D000E0001A96F360E0001AA6F370E0001AB10
:10FD7D006F370E0001AC6F350E0001AD6F360E0002
:10FD8D0001AE6F360E0001B06F350E0001B16F3749
:10FD9D000E0001B26F350E0001B36F960E296E9FE6
:10FDAD000E2A6E000E2B6EFF0E2D6E2C68000E2F80
:10FDBD006E000E2E6E010E306E010E9FEC72F01263
:10FDCD000000000000000000005F000000070007B9
:10FDDD0000147F147F14242A7F2A122313086462CF
:10FDED0036495620500008070300001C2241000030
:10FDFD0041221C002A1C7F1C2A08083E080800808E
:10FE0D007030000808080808000060600020100825
:10FE1D0004023E5149453E00427F40007249494926
:10FE2D00462141494D331814127F10274545453958
:10FE3D003C4A49493141211109073649494936465C
:10FE4D004949291E0000140000004034000000083C
:10FE5D0014224114141414140041221408020159DF
:10FE6D0009063E415D594E7C1211127C7F4949496C
:10FE7D00363E414141227F4141413E7F4949494101
:10FE8D007F090909013E414151737F0808087F0030
:10FE9D00417F41002040413F017F081422417F40B6
:10FEAD004040407F021C027F7F0408107F3E41418D
:10FEBD00413E7F090909063E4151215E7F091929FD
:10FECD0046264949493203017F01033F4040403FE7
:10FEDD001F2040201F3F4038403F63140814630328
:10FEED00047804036159494D43007F4141410204A7
:10FEFD00081020004141417F0402010204404040AE
:10FF0D004040000307080020545478407F284444A3
:10FF1D00383844444428384444287F3854545418BD
:10FF2D0000087E090218A4A49C787F0804047800B8
:10FF3D00447D40002040403D007F1028440000419A
:10FF4D007F40007C047804787C08040478384444AD
:10FF5D004438FC1824241818242418FC7C080404A4
:10FF6D0008485454542404043F44243C4040207C0D
:10FF7D001C2040201C3C4030403C44281028444C60
:10FF8D009090907C4464544C44000836410000002D
:10FF9D007700000041360800020102040245575067
:10FFAD002045574C54204E5350204E534C54205204
:10FFBD002053004E4F5254482F534F55544800452F
:10FFCD004153542F57455354004E2F53204C54003A
:10FFDD00452F57204C54004D6F64653A004C5356D5
:10FFED003A00504E5300504557002D440020002A32
:02FFFD00000002
:020000040020DA
:08000000FFFFFFFFFFFFFFFF00
:020000040030CA
:0E000000FF08191EFF8381FF0FC00FE00F40A5
:00000001FF
